{
  "contractName": "Token",
  "abi": [
    {
      "inputs": [],
      "stateMutability": "nonpayable",
      "type": "constructor"
    },
    {
      "anonymous": false,
      "inputs": [
        {
          "indexed": true,
          "internalType": "address",
          "name": "owner",
          "type": "address"
        },
        {
          "indexed": true,
          "internalType": "address",
          "name": "approved",
          "type": "address"
        },
        {
          "indexed": true,
          "internalType": "uint256",
          "name": "tokenId",
          "type": "uint256"
        }
      ],
      "name": "Approval",
      "type": "event"
    },
    {
      "anonymous": false,
      "inputs": [
        {
          "indexed": true,
          "internalType": "address",
          "name": "owner",
          "type": "address"
        },
        {
          "indexed": true,
          "internalType": "address",
          "name": "operator",
          "type": "address"
        },
        {
          "indexed": false,
          "internalType": "bool",
          "name": "approved",
          "type": "bool"
        }
      ],
      "name": "ApprovalForAll",
      "type": "event"
    },
    {
      "anonymous": false,
      "inputs": [
        {
          "indexed": true,
          "internalType": "address",
          "name": "from",
          "type": "address"
        },
        {
          "indexed": true,
          "internalType": "address",
          "name": "to",
          "type": "address"
        },
        {
          "indexed": true,
          "internalType": "uint256",
          "name": "tokenId",
          "type": "uint256"
        }
      ],
      "name": "Transfer",
      "type": "event"
    },
    {
      "inputs": [
        {
          "internalType": "address",
          "name": "to",
          "type": "address"
        },
        {
          "internalType": "uint256",
          "name": "tokenId",
          "type": "uint256"
        }
      ],
      "name": "approve",
      "outputs": [],
      "stateMutability": "nonpayable",
      "type": "function"
    },
    {
      "inputs": [
        {
          "internalType": "address",
          "name": "owner",
          "type": "address"
        }
      ],
      "name": "balanceOf",
      "outputs": [
        {
          "internalType": "uint256",
          "name": "",
          "type": "uint256"
        }
      ],
      "stateMutability": "view",
      "type": "function",
      "constant": true
    },
    {
      "inputs": [
        {
          "internalType": "uint256",
          "name": "tokenId",
          "type": "uint256"
        }
      ],
      "name": "getApproved",
      "outputs": [
        {
          "internalType": "address",
          "name": "",
          "type": "address"
        }
      ],
      "stateMutability": "view",
      "type": "function",
      "constant": true
    },
    {
      "inputs": [
        {
          "internalType": "address",
          "name": "owner",
          "type": "address"
        },
        {
          "internalType": "address",
          "name": "operator",
          "type": "address"
        }
      ],
      "name": "isApprovedForAll",
      "outputs": [
        {
          "internalType": "bool",
          "name": "",
          "type": "bool"
        }
      ],
      "stateMutability": "view",
      "type": "function",
      "constant": true
    },
    {
      "inputs": [],
      "name": "name",
      "outputs": [
        {
          "internalType": "string",
          "name": "",
          "type": "string"
        }
      ],
      "stateMutability": "view",
      "type": "function",
      "constant": true
    },
    {
      "inputs": [
        {
          "internalType": "uint256",
          "name": "tokenId",
          "type": "uint256"
        }
      ],
      "name": "ownerOf",
      "outputs": [
        {
          "internalType": "address",
          "name": "",
          "type": "address"
        }
      ],
      "stateMutability": "view",
      "type": "function",
      "constant": true
    },
    {
      "inputs": [
        {
          "internalType": "address",
          "name": "from",
          "type": "address"
        },
        {
          "internalType": "address",
          "name": "to",
          "type": "address"
        },
        {
          "internalType": "uint256",
          "name": "tokenId",
          "type": "uint256"
        }
      ],
      "name": "safeTransferFrom",
      "outputs": [],
      "stateMutability": "nonpayable",
      "type": "function"
    },
    {
      "inputs": [
        {
          "internalType": "address",
          "name": "from",
          "type": "address"
        },
        {
          "internalType": "address",
          "name": "to",
          "type": "address"
        },
        {
          "internalType": "uint256",
          "name": "tokenId",
          "type": "uint256"
        },
        {
          "internalType": "bytes",
          "name": "_data",
          "type": "bytes"
        }
      ],
      "name": "safeTransferFrom",
      "outputs": [],
      "stateMutability": "nonpayable",
      "type": "function"
    },
    {
      "inputs": [
        {
          "internalType": "address",
          "name": "operator",
          "type": "address"
        },
        {
          "internalType": "bool",
          "name": "approved",
          "type": "bool"
        }
      ],
      "name": "setApprovalForAll",
      "outputs": [],
      "stateMutability": "nonpayable",
      "type": "function"
    },
    {
      "inputs": [
        {
          "internalType": "bytes4",
          "name": "interfaceId",
          "type": "bytes4"
        }
      ],
      "name": "supportsInterface",
      "outputs": [
        {
          "internalType": "bool",
          "name": "",
          "type": "bool"
        }
      ],
      "stateMutability": "view",
      "type": "function",
      "constant": true
    },
    {
      "inputs": [],
      "name": "symbol",
      "outputs": [
        {
          "internalType": "string",
          "name": "",
          "type": "string"
        }
      ],
      "stateMutability": "view",
      "type": "function",
      "constant": true
    },
    {
      "inputs": [
        {
          "internalType": "uint256",
          "name": "tokenId",
          "type": "uint256"
        }
      ],
      "name": "tokenURI",
      "outputs": [
        {
          "internalType": "string",
          "name": "",
          "type": "string"
        }
      ],
      "stateMutability": "view",
      "type": "function",
      "constant": true
    },
    {
      "inputs": [
        {
          "internalType": "address",
          "name": "from",
          "type": "address"
        },
        {
          "internalType": "address",
          "name": "to",
          "type": "address"
        },
        {
          "internalType": "uint256",
          "name": "tokenId",
          "type": "uint256"
        }
      ],
      "name": "transferFrom",
      "outputs": [],
      "stateMutability": "nonpayable",
      "type": "function"
    },
    {
      "inputs": [],
      "name": "setAdmin",
      "outputs": [],
      "stateMutability": "nonpayable",
      "type": "function"
    },
    {
      "inputs": [],
      "name": "getContractBalance",
      "outputs": [
        {
          "internalType": "uint256",
          "name": "",
          "type": "uint256"
        }
      ],
      "stateMutability": "view",
      "type": "function",
      "constant": true
    },
    {
      "inputs": [],
      "name": "getWalletBalance",
      "outputs": [
        {
          "internalType": "uint256",
          "name": "",
          "type": "uint256"
        }
      ],
      "stateMutability": "view",
      "type": "function",
      "constant": true
    },
    {
      "inputs": [],
      "name": "mint",
      "outputs": [],
      "stateMutability": "nonpayable",
      "type": "function"
    },
    {
      "inputs": [],
      "name": "getAllCardIds",
      "outputs": [
        {
          "internalType": "uint256[]",
          "name": "",
          "type": "uint256[]"
        }
      ],
      "stateMutability": "view",
      "type": "function",
      "constant": true
    },
    {
      "inputs": [
        {
          "internalType": "address",
          "name": "_owner",
          "type": "address"
        }
      ],
      "name": "getOwnCardIds",
      "outputs": [
        {
          "internalType": "uint256[]",
          "name": "",
          "type": "uint256[]"
        }
      ],
      "stateMutability": "view",
      "type": "function",
      "constant": true
    },
    {
      "inputs": [
        {
          "internalType": "address",
          "name": "_owner",
          "type": "address"
        }
      ],
      "name": "getOwnCollection",
      "outputs": [
        {
          "internalType": "uint256[]",
          "name": "",
          "type": "uint256[]"
        }
      ],
      "stateMutability": "view",
      "type": "function",
      "constant": true
    },
    {
      "inputs": [
        {
          "internalType": "uint256",
          "name": "_tokenId",
          "type": "uint256"
        },
        {
          "internalType": "uint256",
          "name": "price",
          "type": "uint256"
        }
      ],
      "name": "setPrice",
      "outputs": [
        {
          "internalType": "uint256",
          "name": "",
          "type": "uint256"
        }
      ],
      "stateMutability": "nonpayable",
      "type": "function"
    },
    {
      "inputs": [
        {
          "internalType": "uint256",
          "name": "_tokenId",
          "type": "uint256"
        }
      ],
      "name": "getTokenPrice",
      "outputs": [
        {
          "internalType": "uint256",
          "name": "",
          "type": "uint256"
        }
      ],
      "stateMutability": "view",
      "type": "function",
      "constant": true
    },
    {
      "inputs": [
        {
          "internalType": "uint256",
          "name": "_tokenId",
          "type": "uint256"
        }
      ],
      "name": "buyCard",
      "outputs": [],
      "stateMutability": "payable",
      "type": "function",
      "payable": true
    },
    {
      "inputs": [],
      "name": "takePromotionalCard",
      "outputs": [
        {
          "internalType": "uint256",
          "name": "",
          "type": "uint256"
        }
      ],
      "stateMutability": "payable",
      "type": "function",
      "payable": true
    },
    {
      "inputs": [],
      "name": "getContractEthBalance",
      "outputs": [
        {
          "internalType": "uint256",
          "name": "",
          "type": "uint256"
        }
      ],
      "stateMutability": "view",
      "type": "function",
      "constant": true
    }
  ],
  "bytecode": "0x608060405260016009553480156200001657600080fd5b506040518060400160405280600781526020017f54686520626169000000000000000000000000000000000000000000000000008152506040518060400160405280600381526020017f546865000000000000000000000000000000000000000000000000000000000081525081600090805190602001906200009b929190620000bd565b508060019080519060200190620000b4929190620000bd565b505050620001d1565b828054620000cb906200019c565b90600052602060002090601f016020900481019282620000ef57600085556200013b565b82601f106200010a57805160ff19168380011785556200013b565b828001600101855582156200013b579182015b828111156200013a5782518255916020019190600101906200011d565b5b5090506200014a91906200014e565b5090565b5b80821115620001695760008160009055506001016200014f565b5090565b7f4e487b7100000000000000000000000000000000000000000000000000000000600052602260045260246000fd5b60006002820490506001821680620001b557607f821691505b602082108103620001cb57620001ca6200016d565b5b50919050565b613e2a80620001e16000396000f3fe6080604052600436106101665760003560e01c80636352211e116100d1578063c457fb371161008a578063e137285b11610064578063e137285b1461052f578063e985e9c51461054d578063f7d975771461058a578063f8f8bfd2146105c757610166565b8063c457fb3714610499578063c70f5eaa146104d6578063c87b56dd146104f257610166565b80636352211e146103775780636f9fb98a146103b457806370a08231146103df57806395d89b411461041c578063a22cb46514610447578063b88d4fde1461047057610166565b80631249c58b116101235780631249c58b146102a157806323b872dd146102b85780632cae2096146102e1578063329a27e7146102f857806342842e0e146103235780634de57d751461034c57610166565b80630164c1db1461016b57806301ffc9a71461019657806306fdde03146101d3578063081812fc146101fe578063095ea7b31461023b5780630f5ed45014610264575b600080fd5b34801561017757600080fd5b50610180610604565b60405161018d9190612930565b60405180910390f35b3480156101a257600080fd5b506101bd60048036038101906101b891906129be565b61071e565b6040516101ca9190612a06565b60405180910390f35b3480156101df57600080fd5b506101e8610800565b6040516101f59190612aba565b60405180910390f35b34801561020a57600080fd5b5061022560048036038101906102209190612b08565b610892565b6040516102329190612b76565b60405180910390f35b34801561024757600080fd5b50610262600480360381019061025d9190612bbd565b610917565b005b34801561027057600080fd5b5061028b60048036038101906102869190612bfd565b610a2e565b6040516102989190612930565b60405180910390f35b3480156102ad57600080fd5b506102b6610bed565b005b3480156102c457600080fd5b506102df60048036038101906102da9190612c2a565b610d86565b005b3480156102ed57600080fd5b506102f6610de6565b005b34801561030457600080fd5b5061030d610e29565b60405161031a9190612c8c565b60405180910390f35b34801561032f57600080fd5b5061034a60048036038101906103459190612c2a565b610e48565b005b34801561035857600080fd5b50610361610e68565b60405161036e9190612c8c565b60405180910390f35b34801561038357600080fd5b5061039e60048036038101906103999190612b08565b610e70565b6040516103ab9190612b76565b60405180910390f35b3480156103c057600080fd5b506103c9610f21565b6040516103d69190612c8c565b60405180910390f35b3480156103eb57600080fd5b5061040660048036038101906104019190612bfd565b610f29565b6040516104139190612c8c565b60405180910390f35b34801561042857600080fd5b50610431610fe0565b60405161043e9190612aba565b60405180910390f35b34801561045357600080fd5b5061046e60048036038101906104699190612cd3565b611072565b005b34801561047c57600080fd5b5061049760048036038101906104929190612e48565b611088565b005b3480156104a557600080fd5b506104c060048036038101906104bb9190612b08565b6110ea565b6040516104cd9190612c8c565b60405180910390f35b6104f060048036038101906104eb9190612b08565b611107565b005b3480156104fe57600080fd5b5061051960048036038101906105149190612b08565b611430565b6040516105269190612aba565b60405180910390f35b6105376114d7565b6040516105449190612c8c565b60405180910390f35b34801561055957600080fd5b50610574600480360381019061056f9190612ecb565b611886565b6040516105819190612a06565b60405180910390f35b34801561059657600080fd5b506105b160048036038101906105ac9190612f0b565b61191a565b6040516105be9190612c8c565b60405180910390f35b3480156105d357600080fd5b506105ee60048036038101906105e99190612bfd565b6119f1565b6040516105fb9190612930565b60405180910390f35b606060016009541161066157600067ffffffffffffffff81111561062b5761062a612d1d565b5b6040519080825280602002602001820160405280156106595781602001602082028036833780820191505090505b50905061071b565b600060016009546106729190612f7a565b67ffffffffffffffff81111561068b5761068a612d1d565b5b6040519080825280602002602001820160405280156106b95781602001602082028036833780820191505090505b50905060005b60016009546106ce9190612f7a565b811015610715576001816106e29190612fae565b8282815181106106f5576106f4613004565b5b60200260200101818152505060018161070e9190612fae565b90506106bf565b81925050505b90565b60007f80ac58cd000000000000000000000000000000000000000000000000000000007bffffffffffffffffffffffffffffffffffffffffffffffffffffffff1916827bffffffffffffffffffffffffffffffffffffffffffffffffffffffff191614806107e957507f5b5e139f000000000000000000000000000000000000000000000000000000007bffffffffffffffffffffffffffffffffffffffffffffffffffffffff1916827bffffffffffffffffffffffffffffffffffffffffffffffffffffffff1916145b806107f957506107f882611c48565b5b9050919050565b60606000805461080f90613062565b80601f016020809104026020016040519081016040528092919081815260200182805461083b90613062565b80156108885780601f1061085d57610100808354040283529160200191610888565b820191906000526020600020905b81548152906001019060200180831161086b57829003601f168201915b5050505050905090565b600061089d82611cb2565b6108dc576040517f08c379a00000000000000000000000000000000000000000000000000000000081526004016108d390613105565b60405180910390fd5b6004600083815260200190815260200160002060009054906101000a900473ffffffffffffffffffffffffffffffffffffffff169050919050565b600061092282610e70565b90508073ffffffffffffffffffffffffffffffffffffffff168373ffffffffffffffffffffffffffffffffffffffff1603610992576040517f08c379a000000000000000000000000000000000000000000000000000000000815260040161098990613197565b60405180910390fd5b8073ffffffffffffffffffffffffffffffffffffffff166109b1611d1e565b73ffffffffffffffffffffffffffffffffffffffff1614806109e057506109df816109da611d1e565b611886565b5b610a1f576040517f08c379a0000000000000000000000000000000000000000000000000000000008152600401610a1690613229565b60405180910390fd5b610a298383611d26565b505050565b60606000600860008473ffffffffffffffffffffffffffffffffffffffff1673ffffffffffffffffffffffffffffffffffffffff16815260200190815260200160002054905060008103610ace57600067ffffffffffffffff811115610a9757610a96612d1d565b5b604051908082528060200260200182016040528015610ac55781602001602082028036833780820191505090505b50915050610be8565b60008167ffffffffffffffff811115610aea57610ae9612d1d565b5b604051908082528060200260200182016040528015610b185781602001602082028036833780820191505090505b50905060006001905060005b83811080610b33575060095482105b15610be0578573ffffffffffffffffffffffffffffffffffffffff166006600084815260200190815260200160002060009054906101000a900473ffffffffffffffffffffffffffffffffffffffff1673ffffffffffffffffffffffffffffffffffffffff1603610bcd5781838281518110610bb257610bb1613004565b5b6020026020010181815250508080610bc990613249565b9150505b8180610bd890613249565b925050610b24565b829450505050505b919050565b600a60009054906101000a900473ffffffffffffffffffffffffffffffffffffffff1673ffffffffffffffffffffffffffffffffffffffff163373ffffffffffffffffffffffffffffffffffffffff1614610c7d576040517f08c379a0000000000000000000000000000000000000000000000000000000008152600401610c7490613303565b60405180910390fd5b610c8933600954611ddf565b3360066000600954815260200190815260200160002060006101000a81548173ffffffffffffffffffffffffffffffffffffffff021916908373ffffffffffffffffffffffffffffffffffffffff1602179055506001600860003373ffffffffffffffffffffffffffffffffffffffff1673ffffffffffffffffffffffffffffffffffffffff16815260200190815260200160002054610d299190612fae565b600860003373ffffffffffffffffffffffffffffffffffffffff1673ffffffffffffffffffffffffffffffffffffffff1681526020019081526020016000208190555060096000815480929190610d7f90613249565b9190505550565b610d97610d91611d1e565b82611dfd565b610dd6576040517f08c379a0000000000000000000000000000000000000000000000000000000008152600401610dcd90613395565b60405180910390fd5b610de1838383611edb565b505050565b33600a60006101000a81548173ffffffffffffffffffffffffffffffffffffffff021916908373ffffffffffffffffffffffffffffffffffffffff160217905550565b60003373ffffffffffffffffffffffffffffffffffffffff1631905090565b610e6383838360405180602001604052806000815250611088565b505050565b600047905090565b6000806002600084815260200190815260200160002060009054906101000a900473ffffffffffffffffffffffffffffffffffffffff169050600073ffffffffffffffffffffffffffffffffffffffff168173ffffffffffffffffffffffffffffffffffffffff1603610f18576040517f08c379a0000000000000000000000000000000000000000000000000000000008152600401610f0f90613427565b60405180910390fd5b80915050919050565b600047905090565b60008073ffffffffffffffffffffffffffffffffffffffff168273ffffffffffffffffffffffffffffffffffffffff1603610f99576040517f08c379a0000000000000000000000000000000000000000000000000000000008152600401610f90906134b9565b60405180910390fd5b600360008373ffffffffffffffffffffffffffffffffffffffff1673ffffffffffffffffffffffffffffffffffffffff168152602001908152602001600020549050919050565b606060018054610fef90613062565b80601f016020809104026020016040519081016040528092919081815260200182805461101b90613062565b80156110685780601f1061103d57610100808354040283529160200191611068565b820191906000526020600020905b81548152906001019060200180831161104b57829003601f168201915b5050505050905090565b61108461107d611d1e565b8383612141565b5050565b611099611093611d1e565b83611dfd565b6110d8576040517f08c379a00000000000000000000000000000000000000000000000000000000081526004016110cf90613395565b60405180910390fd5b6110e4848484846122ad565b50505050565b600060076000838152602001908152602001600020549050919050565b600060076000838152602001908152602001600020549050600061112a34612309565b60405160200161113a919061353b565b6040516020818303038152906040529050600061115683612309565b82604051602001611168929190613561565b604051602081830303815290604052905082341481906111be576040517f08c379a00000000000000000000000000000000000000000000000000000000081526004016111b59190612aba565b60405180910390fd5b5060006006600086815260200190815260200160002060009054906101000a900473ffffffffffffffffffffffffffffffffffffffff1690508073ffffffffffffffffffffffffffffffffffffffff163373ffffffffffffffffffffffffffffffffffffffff1603611265576040517f08c379a000000000000000000000000000000000000000000000000000000000815260040161125c906135d1565b60405180910390fd5b611270813387611edb565b336006600087815260200190815260200160002060006101000a81548173ffffffffffffffffffffffffffffffffffffffff021916908373ffffffffffffffffffffffffffffffffffffffff1602179055506001600860003373ffffffffffffffffffffffffffffffffffffffff1673ffffffffffffffffffffffffffffffffffffffff1681526020019081526020016000205461130e9190612fae565b600860003373ffffffffffffffffffffffffffffffffffffffff1673ffffffffffffffffffffffffffffffffffffffff168152602001908152602001600020819055506000600860008373ffffffffffffffffffffffffffffffffffffffff1673ffffffffffffffffffffffffffffffffffffffff168152602001908152602001600020541115611429576001600860008373ffffffffffffffffffffffffffffffffffffffff1673ffffffffffffffffffffffffffffffffffffffff168152602001908152602001600020546113e59190612f7a565b600860008373ffffffffffffffffffffffffffffffffffffffff1673ffffffffffffffffffffffffffffffffffffffff168152602001908152602001600020819055505b5050505050565b606061143b82611cb2565b61147a576040517f08c379a000000000000000000000000000000000000000000000000000000000815260040161147190613663565b60405180910390fd5b6000611484612469565b905060008151116114a457604051806020016040528060008152506114cf565b806114ae84612309565b6040516020016114bf929190613561565b6040516020818303038152906040525b915050919050565b600080341461151b576040517f08c379a0000000000000000000000000000000000000000000000000000000008152600401611512906136f5565b60405180910390fd5b600080600190505b6009548110156115d057600a60009054906101000a900473ffffffffffffffffffffffffffffffffffffffff1673ffffffffffffffffffffffffffffffffffffffff166006600083815260200190815260200160002060009054906101000a900473ffffffffffffffffffffffffffffffffffffffff1673ffffffffffffffffffffffffffffffffffffffff16036115bd578091506115d0565b80806115c890613249565b915050611523565b5060008103611614576040517f08c379a000000000000000000000000000000000000000000000000000000000815260040161160b90613787565b60405180910390fd5b60006006600083815260200190815260200160002060009054906101000a900473ffffffffffffffffffffffffffffffffffffffff1690508073ffffffffffffffffffffffffffffffffffffffff163373ffffffffffffffffffffffffffffffffffffffff16036116ba576040517f08c379a00000000000000000000000000000000000000000000000000000000081526004016116b190613819565b60405180910390fd5b6116c5813384611edb565b336006600084815260200190815260200160002060006101000a81548173ffffffffffffffffffffffffffffffffffffffff021916908373ffffffffffffffffffffffffffffffffffffffff1602179055506001600860003373ffffffffffffffffffffffffffffffffffffffff1673ffffffffffffffffffffffffffffffffffffffff168152602001908152602001600020546117639190612fae565b600860003373ffffffffffffffffffffffffffffffffffffffff1673ffffffffffffffffffffffffffffffffffffffff168152602001908152602001600020819055506000600860008373ffffffffffffffffffffffffffffffffffffffff1673ffffffffffffffffffffffffffffffffffffffff16815260200190815260200160002054111561187e576001600860008373ffffffffffffffffffffffffffffffffffffffff1673ffffffffffffffffffffffffffffffffffffffff1681526020019081526020016000205461183a9190612f7a565b600860008373ffffffffffffffffffffffffffffffffffffffff1673ffffffffffffffffffffffffffffffffffffffff168152602001908152602001600020819055505b819250505090565b6000600560008473ffffffffffffffffffffffffffffffffffffffff1673ffffffffffffffffffffffffffffffffffffffff16815260200190815260200160002060008373ffffffffffffffffffffffffffffffffffffffff1673ffffffffffffffffffffffffffffffffffffffff16815260200190815260200160002060009054906101000a900460ff16905092915050565b60006006600084815260200190815260200160002060009054906101000a900473ffffffffffffffffffffffffffffffffffffffff1673ffffffffffffffffffffffffffffffffffffffff163373ffffffffffffffffffffffffffffffffffffffff16146119bd576040517f08c379a00000000000000000000000000000000000000000000000000000000081526004016119b4906138ab565b60405180910390fd5b8160076000858152602001908152602001600020819055506007600084815260200190815260200160002054905092915050565b60606000600860008473ffffffffffffffffffffffffffffffffffffffff1673ffffffffffffffffffffffffffffffffffffffff16815260200190815260200160002054905060008103611a9157600067ffffffffffffffff811115611a5a57611a59612d1d565b5b604051908082528060200260200182016040528015611a885781602001602082028036833780820191505090505b50915050611c43565b6000611a9c84610a2e565b9050600561ffff168211611ab4578092505050611c43565b6000815190505b600561ffff16811115611b8b5760008142611ad691906138fa565b905060008190505b600183611aeb9190612f7a565b811015611b4b5783600182611b009190612fae565b81518110611b1157611b10613004565b5b6020026020010151848281518110611b2c57611b2b613004565b5b6020026020010181815250508080611b4390613249565b915050611ade565b5082600183611b5a9190612f7a565b81518110611b6b57611b6a613004565b5b6020026020010160008152508180611b829061392b565b92505050611abb565b6000600561ffff1667ffffffffffffffff811115611bac57611bab612d1d565b5b604051908082528060200260200182016040528015611bda5781602001602082028036833780820191505090505b50905060005b600561ffff16811015611c3a57838181518110611c0057611bff613004565b5b6020026020010151828281518110611c1b57611c1a613004565b5b6020026020010181815250508080611c3290613249565b915050611be0565b50809450505050505b919050565b60007f01ffc9a7000000000000000000000000000000000000000000000000000000007bffffffffffffffffffffffffffffffffffffffffffffffffffffffff1916827bffffffffffffffffffffffffffffffffffffffffffffffffffffffff1916149050919050565b60008073ffffffffffffffffffffffffffffffffffffffff166002600084815260200190815260200160002060009054906101000a900473ffffffffffffffffffffffffffffffffffffffff1673ffffffffffffffffffffffffffffffffffffffff1614159050919050565b600033905090565b816004600083815260200190815260200160002060006101000a81548173ffffffffffffffffffffffffffffffffffffffff021916908373ffffffffffffffffffffffffffffffffffffffff160217905550808273ffffffffffffffffffffffffffffffffffffffff16611d9983610e70565b73ffffffffffffffffffffffffffffffffffffffff167f8c5be1e5ebec7d5bd14f71427d1e84f3dd0314c0f7b2291e5b200ac8c7c3b92560405160405180910390a45050565b611df9828260405180602001604052806000815250612480565b5050565b6000611e0882611cb2565b611e47576040517f08c379a0000000000000000000000000000000000000000000000000000000008152600401611e3e906139c6565b60405180910390fd5b6000611e5283610e70565b90508073ffffffffffffffffffffffffffffffffffffffff168473ffffffffffffffffffffffffffffffffffffffff161480611e945750611e938185611886565b5b80611ed257508373ffffffffffffffffffffffffffffffffffffffff16611eba84610892565b73ffffffffffffffffffffffffffffffffffffffff16145b91505092915050565b8273ffffffffffffffffffffffffffffffffffffffff16611efb82610e70565b73ffffffffffffffffffffffffffffffffffffffff1614611f51576040517f08c379a0000000000000000000000000000000000000000000000000000000008152600401611f4890613a58565b60405180910390fd5b600073ffffffffffffffffffffffffffffffffffffffff168273ffffffffffffffffffffffffffffffffffffffff1603611fc0576040517f08c379a0000000000000000000000000000000000000000000000000000000008152600401611fb790613aea565b60405180910390fd5b611fcb8383836124db565b611fd6600082611d26565b6001600360008573ffffffffffffffffffffffffffffffffffffffff1673ffffffffffffffffffffffffffffffffffffffff16815260200190815260200160002060008282546120269190612f7a565b925050819055506001600360008473ffffffffffffffffffffffffffffffffffffffff1673ffffffffffffffffffffffffffffffffffffffff168152602001908152602001600020600082825461207d9190612fae565b92505081905550816002600083815260200190815260200160002060006101000a81548173ffffffffffffffffffffffffffffffffffffffff021916908373ffffffffffffffffffffffffffffffffffffffff160217905550808273ffffffffffffffffffffffffffffffffffffffff168473ffffffffffffffffffffffffffffffffffffffff167fddf252ad1be2c89b69c2b068fc378daa952ba7f163c4a11628f55a4df523b3ef60405160405180910390a461213c8383836124e0565b505050565b8173ffffffffffffffffffffffffffffffffffffffff168373ffffffffffffffffffffffffffffffffffffffff16036121af576040517f08c379a00000000000000000000000000000000000000000000000000000000081526004016121a690613b56565b60405180910390fd5b80600560008573ffffffffffffffffffffffffffffffffffffffff1673ffffffffffffffffffffffffffffffffffffffff16815260200190815260200160002060008473ffffffffffffffffffffffffffffffffffffffff1673ffffffffffffffffffffffffffffffffffffffff16815260200190815260200160002060006101000a81548160ff0219169083151502179055508173ffffffffffffffffffffffffffffffffffffffff168373ffffffffffffffffffffffffffffffffffffffff167f17307eab39ab6107e8899845ad3d59bd9653f200f220920489ca2b5937696c31836040516122a09190612a06565b60405180910390a3505050565b6122b8848484611edb565b6122c4848484846124e5565b612303576040517f08c379a00000000000000000000000000000000000000000000000000000000081526004016122fa90613be8565b60405180910390fd5b50505050565b606060008203612350576040518060400160405280600181526020017f30000000000000000000000000000000000000000000000000000000000000008152509050612464565b600082905060005b6000821461238257808061236b90613249565b915050600a8261237b9190613c08565b9150612358565b60008167ffffffffffffffff81111561239e5761239d612d1d565b5b6040519080825280601f01601f1916602001820160405280156123d05781602001600182028036833780820191505090505b5090505b6000851461245d576001826123e99190612f7a565b9150600a856123f891906138fa565b60306124049190612fae565b60f81b81838151811061241a57612419613004565b5b60200101907effffffffffffffffffffffffffffffffffffffffffffffffffffffffffffff1916908160001a905350600a856124569190613c08565b94506123d4565b8093505050505b919050565b606060405180602001604052806000815250905090565b61248a838361266c565b61249760008484846124e5565b6124d6576040517f08c379a00000000000000000000000000000000000000000000000000000000081526004016124cd90613be8565b60405180910390fd5b505050565b505050565b505050565b60006125068473ffffffffffffffffffffffffffffffffffffffff16612845565b1561265f578373ffffffffffffffffffffffffffffffffffffffff1663150b7a0261252f611d1e565b8786866040518563ffffffff1660e01b81526004016125519493929190613c8e565b6020604051808303816000875af192505050801561258d57506040513d601f19601f8201168201806040525081019061258a9190613cef565b60015b61260f573d80600081146125bd576040519150601f19603f3d011682016040523d82523d6000602084013e6125c2565b606091505b506000815103612607576040517f08c379a00000000000000000000000000000000000000000000000000000000081526004016125fe90613be8565b60405180910390fd5b805181602001fd5b63150b7a0260e01b7bffffffffffffffffffffffffffffffffffffffffffffffffffffffff1916817bffffffffffffffffffffffffffffffffffffffffffffffffffffffff191614915050612664565b600190505b949350505050565b600073ffffffffffffffffffffffffffffffffffffffff168273ffffffffffffffffffffffffffffffffffffffff16036126db576040517f08c379a00000000000000000000000000000000000000000000000000000000081526004016126d290613d68565b60405180910390fd5b6126e481611cb2565b15612724576040517f08c379a000000000000000000000000000000000000000000000000000000000815260040161271b90613dd4565b60405180910390fd5b612730600083836124db565b6001600360008473ffffffffffffffffffffffffffffffffffffffff1673ffffffffffffffffffffffffffffffffffffffff16815260200190815260200160002060008282546127809190612fae565b92505081905550816002600083815260200190815260200160002060006101000a81548173ffffffffffffffffffffffffffffffffffffffff021916908373ffffffffffffffffffffffffffffffffffffffff160217905550808273ffffffffffffffffffffffffffffffffffffffff16600073ffffffffffffffffffffffffffffffffffffffff167fddf252ad1be2c89b69c2b068fc378daa952ba7f163c4a11628f55a4df523b3ef60405160405180910390a4612841600083836124e0565b5050565b6000808273ffffffffffffffffffffffffffffffffffffffff163b119050919050565b600081519050919050565b600082825260208201905092915050565b6000819050602082019050919050565b6000819050919050565b6128a781612894565b82525050565b60006128b9838361289e565b60208301905092915050565b6000602082019050919050565b60006128dd82612868565b6128e78185612873565b93506128f283612884565b8060005b8381101561292357815161290a88826128ad565b9750612915836128c5565b9250506001810190506128f6565b5085935050505092915050565b6000602082019050818103600083015261294a81846128d2565b905092915050565b6000604051905090565b600080fd5b600080fd5b60007fffffffff0000000000000000000000000000000000000000000000000000000082169050919050565b61299b81612966565b81146129a657600080fd5b50565b6000813590506129b881612992565b92915050565b6000602082840312156129d4576129d361295c565b5b60006129e2848285016129a9565b91505092915050565b60008115159050919050565b612a00816129eb565b82525050565b6000602082019050612a1b60008301846129f7565b92915050565b600081519050919050565b600082825260208201905092915050565b60005b83811015612a5b578082015181840152602081019050612a40565b83811115612a6a576000848401525b50505050565b6000601f19601f8301169050919050565b6000612a8c82612a21565b612a968185612a2c565b9350612aa6818560208601612a3d565b612aaf81612a70565b840191505092915050565b60006020820190508181036000830152612ad48184612a81565b905092915050565b612ae581612894565b8114612af057600080fd5b50565b600081359050612b0281612adc565b92915050565b600060208284031215612b1e57612b1d61295c565b5b6000612b2c84828501612af3565b91505092915050565b600073ffffffffffffffffffffffffffffffffffffffff82169050919050565b6000612b6082612b35565b9050919050565b612b7081612b55565b82525050565b6000602082019050612b8b6000830184612b67565b92915050565b612b9a81612b55565b8114612ba557600080fd5b50565b600081359050612bb781612b91565b92915050565b60008060408385031215612bd457612bd361295c565b5b6000612be285828601612ba8565b9250506020612bf385828601612af3565b9150509250929050565b600060208284031215612c1357612c1261295c565b5b6000612c2184828501612ba8565b91505092915050565b600080600060608486031215612c4357612c4261295c565b5b6000612c5186828701612ba8565b9350506020612c6286828701612ba8565b9250506040612c7386828701612af3565b9150509250925092565b612c8681612894565b82525050565b6000602082019050612ca16000830184612c7d565b92915050565b612cb0816129eb565b8114612cbb57600080fd5b50565b600081359050612ccd81612ca7565b92915050565b60008060408385031215612cea57612ce961295c565b5b6000612cf885828601612ba8565b9250506020612d0985828601612cbe565b9150509250929050565b600080fd5b600080fd5b7f4e487b7100000000000000000000000000000000000000000000000000000000600052604160045260246000fd5b612d5582612a70565b810181811067ffffffffffffffff82111715612d7457612d73612d1d565b5b80604052505050565b6000612d87612952565b9050612d938282612d4c565b919050565b600067ffffffffffffffff821115612db357612db2612d1d565b5b612dbc82612a70565b9050602081019050919050565b82818337600083830152505050565b6000612deb612de684612d98565b612d7d565b905082815260208101848484011115612e0757612e06612d18565b5b612e12848285612dc9565b509392505050565b600082601f830112612e2f57612e2e612d13565b5b8135612e3f848260208601612dd8565b91505092915050565b60008060008060808587031215612e6257612e6161295c565b5b6000612e7087828801612ba8565b9450506020612e8187828801612ba8565b9350506040612e9287828801612af3565b925050606085013567ffffffffffffffff811115612eb357612eb2612961565b5b612ebf87828801612e1a565b91505092959194509250565b60008060408385031215612ee257612ee161295c565b5b6000612ef085828601612ba8565b9250506020612f0185828601612ba8565b9150509250929050565b60008060408385031215612f2257612f2161295c565b5b6000612f3085828601612af3565b9250506020612f4185828601612af3565b9150509250929050565b7f4e487b7100000000000000000000000000000000000000000000000000000000600052601160045260246000fd5b6000612f8582612894565b9150612f9083612894565b925082821015612fa357612fa2612f4b565b5b828203905092915050565b6000612fb982612894565b9150612fc483612894565b9250827fffffffffffffffffffffffffffffffffffffffffffffffffffffffffffffffff03821115612ff957612ff8612f4b565b5b828201905092915050565b7f4e487b7100000000000000000000000000000000000000000000000000000000600052603260045260246000fd5b7f4e487b7100000000000000000000000000000000000000000000000000000000600052602260045260246000fd5b6000600282049050600182168061307a57607f821691505b60208210810361308d5761308c613033565b5b50919050565b7f4552433732313a20617070726f76656420717565727920666f72206e6f6e657860008201527f697374656e7420746f6b656e0000000000000000000000000000000000000000602082015250565b60006130ef602c83612a2c565b91506130fa82613093565b604082019050919050565b6000602082019050818103600083015261311e816130e2565b9050919050565b7f4552433732313a20617070726f76616c20746f2063757272656e74206f776e6560008201527f7200000000000000000000000000000000000000000000000000000000000000602082015250565b6000613181602183612a2c565b915061318c82613125565b604082019050919050565b600060208201905081810360008301526131b081613174565b9050919050565b7f4552433732313a20617070726f76652063616c6c6572206973206e6f74206f7760008201527f6e6572206e6f7220617070726f76656420666f7220616c6c0000000000000000602082015250565b6000613213603883612a2c565b915061321e826131b7565b604082019050919050565b6000602082019050818103600083015261324281613206565b9050919050565b600061325482612894565b91507fffffffffffffffffffffffffffffffffffffffffffffffffffffffffffffffff820361328657613285612f4b565b5b600182019050919050565b7f6f6e6c792061646d696e206861766520746865207065726d697373696f6e207460008201527f6f206d696e740000000000000000000000000000000000000000000000000000602082015250565b60006132ed602683612a2c565b91506132f882613291565b604082019050919050565b6000602082019050818103600083015261331c816132e0565b9050919050565b7f4552433732313a207472616e736665722063616c6c6572206973206e6f74206f60008201527f776e6572206e6f7220617070726f766564000000000000000000000000000000602082015250565b600061337f603183612a2c565b915061338a82613323565b604082019050919050565b600060208201905081810360008301526133ae81613372565b9050919050565b7f4552433732313a206f776e657220717565727920666f72206e6f6e657869737460008201527f656e7420746f6b656e0000000000000000000000000000000000000000000000602082015250565b6000613411602983612a2c565b915061341c826133b5565b604082019050919050565b6000602082019050818103600083015261344081613404565b9050919050565b7f4552433732313a2062616c616e636520717565727920666f7220746865207a6560008201527f726f206164647265737300000000000000000000000000000000000000000000602082015250565b60006134a3602a83612a2c565b91506134ae82613447565b604082019050919050565b600060208201905081810360008301526134d281613496565b9050919050565b7f207061796d656e74206d75737420626520657861637420000000000000000000815250565b600081905092915050565b600061351582612a21565b61351f81856134ff565b935061352f818560208601612a3d565b80840191505092915050565b6000613546826134d9565b601782019150613556828461350a565b915081905092915050565b600061356d828561350a565b9150613579828461350a565b91508190509392505050565b7f796f752063616e6e6f742062757920796f7572206f776e20746f6b656e200000600082015250565b60006135bb601e83612a2c565b91506135c682613585565b602082019050919050565b600060208201905081810360008301526135ea816135ae565b9050919050565b7f4552433732314d657461646174613a2055524920717565727920666f72206e6f60008201527f6e6578697374656e7420746f6b656e0000000000000000000000000000000000602082015250565b600061364d602f83612a2c565b9150613658826135f1565b604082019050919050565b6000602082019050818103600083015261367c81613640565b9050919050565b7f796f75206d757374206e6f742073656e642065746820746f20636f6e7472616360008201527f7400000000000000000000000000000000000000000000000000000000000000602082015250565b60006136df602183612a2c565b91506136ea82613683565b604082019050919050565b6000602082019050818103600083015261370e816136d2565b9050919050565b7f4e6f7420666f756e6420616e7920617661696c61626c65206361726420666f7260008201527f2070726f6d6f74696f6e616c20707572706f73652e0000000000000000000000602082015250565b6000613771603583612a2c565b915061377c82613715565b604082019050919050565b600060208201905081810360008301526137a081613764565b9050919050565b7f796f752063616e6e6f74207265636569766520796f7572206f776e20746f6b6560008201527f6e20000000000000000000000000000000000000000000000000000000000000602082015250565b6000613803602283612a2c565b915061380e826137a7565b604082019050919050565b60006020820190508181036000830152613832816137f6565b9050919050565b7f796f75206d757374206f776e657220746f2073657420746f6b656e207072696360008201527f6500000000000000000000000000000000000000000000000000000000000000602082015250565b6000613895602183612a2c565b91506138a082613839565b604082019050919050565b600060208201905081810360008301526138c481613888565b9050919050565b7f4e487b7100000000000000000000000000000000000000000000000000000000600052601260045260246000fd5b600061390582612894565b915061391083612894565b9250826139205761391f6138cb565b5b828206905092915050565b600061393682612894565b91506000820361394957613948612f4b565b5b600182039050919050565b7f4552433732313a206f70657261746f7220717565727920666f72206e6f6e657860008201527f697374656e7420746f6b656e0000000000000000000000000000000000000000602082015250565b60006139b0602c83612a2c565b91506139bb82613954565b604082019050919050565b600060208201905081810360008301526139df816139a3565b9050919050565b7f4552433732313a207472616e736665722066726f6d20696e636f72726563742060008201527f6f776e6572000000000000000000000000000000000000000000000000000000602082015250565b6000613a42602583612a2c565b9150613a4d826139e6565b604082019050919050565b60006020820190508181036000830152613a7181613a35565b9050919050565b7f4552433732313a207472616e7366657220746f20746865207a65726f2061646460008201527f7265737300000000000000000000000000000000000000000000000000000000602082015250565b6000613ad4602483612a2c565b9150613adf82613a78565b604082019050919050565b60006020820190508181036000830152613b0381613ac7565b9050919050565b7f4552433732313a20617070726f766520746f2063616c6c657200000000000000600082015250565b6000613b40601983612a2c565b9150613b4b82613b0a565b602082019050919050565b60006020820190508181036000830152613b6f81613b33565b9050919050565b7f4552433732313a207472616e7366657220746f206e6f6e20455243373231526560008201527f63656976657220696d706c656d656e7465720000000000000000000000000000602082015250565b6000613bd2603283612a2c565b9150613bdd82613b76565b604082019050919050565b60006020820190508181036000830152613c0181613bc5565b9050919050565b6000613c1382612894565b9150613c1e83612894565b925082613c2e57613c2d6138cb565b5b828204905092915050565b600081519050919050565b600082825260208201905092915050565b6000613c6082613c39565b613c6a8185613c44565b9350613c7a818560208601612a3d565b613c8381612a70565b840191505092915050565b6000608082019050613ca36000830187612b67565b613cb06020830186612b67565b613cbd6040830185612c7d565b8181036060830152613ccf8184613c55565b905095945050505050565b600081519050613ce981612992565b92915050565b600060208284031215613d0557613d0461295c565b5b6000613d1384828501613cda565b91505092915050565b7f4552433732313a206d696e7420746f20746865207a65726f2061646472657373600082015250565b6000613d52602083612a2c565b9150613d5d82613d1c565b602082019050919050565b60006020820190508181036000830152613d8181613d45565b9050919050565b7f4552433732313a20746f6b656e20616c7265616479206d696e74656400000000600082015250565b6000613dbe601c83612a2c565b9150613dc982613d88565b602082019050919050565b60006020820190508181036000830152613ded81613db1565b905091905056fea26469706673582212209aba2c965f230bf1f9855fd062c58b94153c0ce2b34b7cba7c824fe6917bb91e64736f6c634300080e0033",
  "immutableReferences": {},
  "source": "pragma solidity ^0.8.1;\n\nimport \"../node_modules/@openzeppelin/contracts/token/ERC721/ERC721.sol\";\nimport \"../node_modules/@openzeppelin/contracts/utils/Strings.sol\";\n\ncontract Token is ERC721 {\n    using Strings for uint256;\n\n    // string public domain = \"localhost:8080\";\n\n    mapping(uint256 => address) internal cardToOwner;\n    mapping(uint256 => uint256) internal cardToPrice;\n    mapping(address => uint256) internal ownerCardCount;\n    uint256 nextId = 1;\n    uint16 internal constant CARD_PER_COLLECTION = 5;\n    address _admin;\n\n    constructor() ERC721(\"The bai\", \"The\") {}\n\n    function setAdmin() public {\n        _admin = msg.sender;\n    }\n\n    function getContractBalance() public view returns (uint256) {\n        return address(this).balance;\n    }\n\n    function getWalletBalance() public view returns (uint256) {\n        return address(msg.sender).balance;\n    }\n\n    function mint() public {\n        require(msg.sender == _admin, \"only admin have the permission to mint\");\n        _safeMint(msg.sender, nextId);\n\n        cardToOwner[nextId] = msg.sender;\n        ownerCardCount[msg.sender] = ownerCardCount[msg.sender] + 1;\n        nextId++;\n    }\n\n    function getAllCardIds() public view returns (uint256[] memory) {\n        if (nextId <= 1) {\n            return new uint256[](0);\n        }\n\n        uint256[] memory ids = new uint256[](nextId - 1);\n        uint256 i = 0;\n        while (i < nextId - 1) {\n            ids[i] = i + 1;\n            i = i + 1;\n        }\n\n        return ids;\n    }\n\n    function getOwnCardIds(address _owner)\n        public\n        view\n        returns (uint256[] memory)\n    {\n        uint256 ownerCount = ownerCardCount[_owner];\n        if (ownerCount == 0) {\n            return new uint256[](0);\n        }\n\n        uint256[] memory ids = new uint256[](ownerCount);\n        uint256 i = 1;\n        uint256 count = 0;\n        while (count < ownerCount || i < nextId) {\n            if (cardToOwner[i] == _owner) {\n                ids[count] = i;\n                count++;\n            }\n            i++;\n        }\n\n        return ids;\n    }\n\n    function getOwnCollection(address _owner)\n        public\n        view\n        returns (uint256[] memory)\n    {\n        uint256 ownerCount = ownerCardCount[_owner];\n        if (ownerCount == 0) {\n            return new uint256[](0);\n        }\n\n        uint256[] memory myCards = getOwnCardIds(_owner);\n\n        if (ownerCount <= CARD_PER_COLLECTION) {\n            return myCards;\n        }\n\n        uint256 cardsLength = myCards.length;\n        while (cardsLength > CARD_PER_COLLECTION) {\n            uint256 removeIndex = block.timestamp % cardsLength;\n\n            for (uint256 i = removeIndex; i < cardsLength - 1; i++) {\n                myCards[i] = myCards[i + 1];\n            }\n            delete myCards[cardsLength - 1];\n            cardsLength--;\n        }\n\n        uint256[] memory ids = new uint256[](CARD_PER_COLLECTION);\n        for (uint256 i = 0; i < CARD_PER_COLLECTION; i++) {\n            ids[i] = myCards[i];\n        }\n\n        return ids;\n    }\n\n    function setPrice(uint256 _tokenId, uint256 price)\n        public\n        returns (uint256)\n    {\n        require(\n            msg.sender == cardToOwner[_tokenId],\n            \"you must owner to set token price\"\n        );\n\n        cardToPrice[_tokenId] = price;\n\n        return cardToPrice[_tokenId];\n    }\n\n    function getTokenPrice(uint256 _tokenId) public view returns (uint256) {\n        return cardToPrice[_tokenId];\n    }\n\n    function buyCard(uint256 _tokenId) external payable {\n        uint256 price = cardToPrice[_tokenId];\n\n        string memory s1 = string.concat(\n            \" payment must be exact \",\n            Strings.toString(msg.value)\n        );\n        string memory s2 = string.concat(Strings.toString(price), s1);\n        require(msg.value == price, s2);\n\n        address owner = cardToOwner[_tokenId];\n\n        require(msg.sender != owner, \"you cannot buy your own token \");\n\n        //do transfer\n        _transfer(owner, msg.sender, _tokenId);\n\n        cardToOwner[_tokenId] = msg.sender;\n        ownerCardCount[msg.sender] = ownerCardCount[msg.sender] + 1;\n        if (ownerCardCount[owner] > 0) {\n            ownerCardCount[owner] = ownerCardCount[owner] - 1;\n        }\n    }\n\n    function takePromotionalCard() external payable returns (uint256) {\n        require(msg.value == 0, \"you must not send eth to contract\");\n\n        uint256 _tokenId = 0;\n        for (uint256 i = 1; i < nextId; i++) {\n            if (cardToOwner[i] == _admin) {\n                _tokenId = i;\n                break;\n            }\n        }\n\n        require(\n            _tokenId != 0,\n            \"Not found any available card for promotional purpose.\"\n        );\n\n        address owner = cardToOwner[_tokenId];\n\n        require(msg.sender != owner, \"you cannot receive your own token \");\n\n        //do transfer\n        _transfer(owner, msg.sender, _tokenId);\n\n        cardToOwner[_tokenId] = msg.sender;\n        ownerCardCount[msg.sender] = ownerCardCount[msg.sender] + 1;\n        if (ownerCardCount[owner] > 0) {\n            ownerCardCount[owner] = ownerCardCount[owner] - 1;\n        }\n\n        return _tokenId;\n    }\n\n    function getContractEthBalance() public view returns (uint256) {\n        return address(this).balance;\n    }\n}\n",
  "sourcePath": "/Users/hieudao/Documents/fork/nft-game/smartcontract/contracts/Token.sol",
  "compiler": {
    "name": "solc",
    "version": "0.8.14+commit.80d49f37.Emscripten.clang"
  },
  "schemaVersion": "3.4.7",
  "updatedAt": "2022-06-30T13:18:22.328Z",
  "networkType": "ethereum",
  "devdoc": {
    "kind": "dev",
    "methods": {
      "approve(address,uint256)": {
        "details": "See {IERC721-approve}."
      },
      "balanceOf(address)": {
        "details": "See {IERC721-balanceOf}."
      },
      "getApproved(uint256)": {
        "details": "See {IERC721-getApproved}."
      },
      "isApprovedForAll(address,address)": {
        "details": "See {IERC721-isApprovedForAll}."
      },
      "name()": {
        "details": "See {IERC721Metadata-name}."
      },
      "ownerOf(uint256)": {
        "details": "See {IERC721-ownerOf}."
      },
      "safeTransferFrom(address,address,uint256)": {
        "details": "See {IERC721-safeTransferFrom}."
      },
      "safeTransferFrom(address,address,uint256,bytes)": {
        "details": "See {IERC721-safeTransferFrom}."
      },
      "setApprovalForAll(address,bool)": {
        "details": "See {IERC721-setApprovalForAll}."
      },
      "supportsInterface(bytes4)": {
        "details": "See {IERC165-supportsInterface}."
      },
      "symbol()": {
        "details": "See {IERC721Metadata-symbol}."
      },
      "tokenURI(uint256)": {
        "details": "See {IERC721Metadata-tokenURI}."
      },
      "transferFrom(address,address,uint256)": {
        "details": "See {IERC721-transferFrom}."
      }
    },
    "version": 1
  },
  "userdoc": {
    "kind": "user",
    "methods": {},
    "version": 1
  }
}