{
  "contractName": "Token",
  "abi": [
    {
      "inputs": [],
      "stateMutability": "nonpayable",
      "type": "constructor"
    },
    {
      "anonymous": false,
      "inputs": [
        {
          "indexed": true,
          "internalType": "address",
          "name": "owner",
          "type": "address"
        },
        {
          "indexed": true,
          "internalType": "address",
          "name": "approved",
          "type": "address"
        },
        {
          "indexed": true,
          "internalType": "uint256",
          "name": "tokenId",
          "type": "uint256"
        }
      ],
      "name": "Approval",
      "type": "event"
    },
    {
      "anonymous": false,
      "inputs": [
        {
          "indexed": true,
          "internalType": "address",
          "name": "owner",
          "type": "address"
        },
        {
          "indexed": true,
          "internalType": "address",
          "name": "operator",
          "type": "address"
        },
        {
          "indexed": false,
          "internalType": "bool",
          "name": "approved",
          "type": "bool"
        }
      ],
      "name": "ApprovalForAll",
      "type": "event"
    },
    {
      "anonymous": false,
      "inputs": [
        {
          "indexed": true,
          "internalType": "address",
          "name": "from",
          "type": "address"
        },
        {
          "indexed": true,
          "internalType": "address",
          "name": "to",
          "type": "address"
        },
        {
          "indexed": true,
          "internalType": "uint256",
          "name": "tokenId",
          "type": "uint256"
        }
      ],
      "name": "Transfer",
      "type": "event"
    },
    {
      "inputs": [
        {
          "internalType": "address",
          "name": "to",
          "type": "address"
        },
        {
          "internalType": "uint256",
          "name": "tokenId",
          "type": "uint256"
        }
      ],
      "name": "approve",
      "outputs": [],
      "stateMutability": "nonpayable",
      "type": "function"
    },
    {
      "inputs": [
        {
          "internalType": "address",
          "name": "owner",
          "type": "address"
        }
      ],
      "name": "balanceOf",
      "outputs": [
        {
          "internalType": "uint256",
          "name": "",
          "type": "uint256"
        }
      ],
      "stateMutability": "view",
      "type": "function",
      "constant": true
    },
    {
      "inputs": [
        {
          "internalType": "uint256",
          "name": "tokenId",
          "type": "uint256"
        }
      ],
      "name": "getApproved",
      "outputs": [
        {
          "internalType": "address",
          "name": "",
          "type": "address"
        }
      ],
      "stateMutability": "view",
      "type": "function",
      "constant": true
    },
    {
      "inputs": [
        {
          "internalType": "address",
          "name": "owner",
          "type": "address"
        },
        {
          "internalType": "address",
          "name": "operator",
          "type": "address"
        }
      ],
      "name": "isApprovedForAll",
      "outputs": [
        {
          "internalType": "bool",
          "name": "",
          "type": "bool"
        }
      ],
      "stateMutability": "view",
      "type": "function",
      "constant": true
    },
    {
      "inputs": [],
      "name": "name",
      "outputs": [
        {
          "internalType": "string",
          "name": "",
          "type": "string"
        }
      ],
      "stateMutability": "view",
      "type": "function",
      "constant": true
    },
    {
      "inputs": [
        {
          "internalType": "uint256",
          "name": "tokenId",
          "type": "uint256"
        }
      ],
      "name": "ownerOf",
      "outputs": [
        {
          "internalType": "address",
          "name": "",
          "type": "address"
        }
      ],
      "stateMutability": "view",
      "type": "function",
      "constant": true
    },
    {
      "inputs": [
        {
          "internalType": "address",
          "name": "from",
          "type": "address"
        },
        {
          "internalType": "address",
          "name": "to",
          "type": "address"
        },
        {
          "internalType": "uint256",
          "name": "tokenId",
          "type": "uint256"
        }
      ],
      "name": "safeTransferFrom",
      "outputs": [],
      "stateMutability": "nonpayable",
      "type": "function"
    },
    {
      "inputs": [
        {
          "internalType": "address",
          "name": "from",
          "type": "address"
        },
        {
          "internalType": "address",
          "name": "to",
          "type": "address"
        },
        {
          "internalType": "uint256",
          "name": "tokenId",
          "type": "uint256"
        },
        {
          "internalType": "bytes",
          "name": "_data",
          "type": "bytes"
        }
      ],
      "name": "safeTransferFrom",
      "outputs": [],
      "stateMutability": "nonpayable",
      "type": "function"
    },
    {
      "inputs": [
        {
          "internalType": "address",
          "name": "operator",
          "type": "address"
        },
        {
          "internalType": "bool",
          "name": "approved",
          "type": "bool"
        }
      ],
      "name": "setApprovalForAll",
      "outputs": [],
      "stateMutability": "nonpayable",
      "type": "function"
    },
    {
      "inputs": [
        {
          "internalType": "bytes4",
          "name": "interfaceId",
          "type": "bytes4"
        }
      ],
      "name": "supportsInterface",
      "outputs": [
        {
          "internalType": "bool",
          "name": "",
          "type": "bool"
        }
      ],
      "stateMutability": "view",
      "type": "function",
      "constant": true
    },
    {
      "inputs": [],
      "name": "symbol",
      "outputs": [
        {
          "internalType": "string",
          "name": "",
          "type": "string"
        }
      ],
      "stateMutability": "view",
      "type": "function",
      "constant": true
    },
    {
      "inputs": [
        {
          "internalType": "uint256",
          "name": "tokenId",
          "type": "uint256"
        }
      ],
      "name": "tokenURI",
      "outputs": [
        {
          "internalType": "string",
          "name": "",
          "type": "string"
        }
      ],
      "stateMutability": "view",
      "type": "function",
      "constant": true
    },
    {
      "inputs": [
        {
          "internalType": "address",
          "name": "from",
          "type": "address"
        },
        {
          "internalType": "address",
          "name": "to",
          "type": "address"
        },
        {
          "internalType": "uint256",
          "name": "tokenId",
          "type": "uint256"
        }
      ],
      "name": "transferFrom",
      "outputs": [],
      "stateMutability": "nonpayable",
      "type": "function"
    },
    {
      "inputs": [],
      "name": "setAdmin",
      "outputs": [],
      "stateMutability": "nonpayable",
      "type": "function"
    },
    {
      "inputs": [],
      "name": "getContractBalance",
      "outputs": [
        {
          "internalType": "uint256",
          "name": "",
          "type": "uint256"
        }
      ],
      "stateMutability": "view",
      "type": "function",
      "constant": true
    },
    {
      "inputs": [],
      "name": "getWalletBalance",
      "outputs": [
        {
          "internalType": "uint256",
          "name": "",
          "type": "uint256"
        }
      ],
      "stateMutability": "view",
      "type": "function",
      "constant": true
    },
    {
      "inputs": [],
      "name": "mint",
      "outputs": [],
      "stateMutability": "nonpayable",
      "type": "function"
    },
    {
      "inputs": [],
      "name": "getAllCardIds",
      "outputs": [
        {
          "internalType": "uint256[]",
          "name": "",
          "type": "uint256[]"
        }
      ],
      "stateMutability": "view",
      "type": "function",
      "constant": true
    },
    {
      "inputs": [
        {
          "internalType": "address",
          "name": "_owner",
          "type": "address"
        }
      ],
      "name": "getOwnCardIds",
      "outputs": [
        {
          "internalType": "uint256[]",
          "name": "",
          "type": "uint256[]"
        }
      ],
      "stateMutability": "view",
      "type": "function",
      "constant": true
    },
    {
      "inputs": [
        {
          "internalType": "address",
          "name": "_owner",
          "type": "address"
        }
      ],
      "name": "getOwnCollection",
      "outputs": [
        {
          "internalType": "uint256[]",
          "name": "",
          "type": "uint256[]"
        }
      ],
      "stateMutability": "view",
      "type": "function",
      "constant": true
    },
    {
      "inputs": [
        {
          "internalType": "uint256",
          "name": "_tokenId",
          "type": "uint256"
        },
        {
          "internalType": "uint256",
          "name": "price",
          "type": "uint256"
        }
      ],
      "name": "setPrice",
      "outputs": [
        {
          "internalType": "uint256",
          "name": "",
          "type": "uint256"
        }
      ],
      "stateMutability": "nonpayable",
      "type": "function"
    },
    {
      "inputs": [
        {
          "internalType": "uint256",
          "name": "_tokenId",
          "type": "uint256"
        }
      ],
      "name": "getTokenPrice",
      "outputs": [
        {
          "internalType": "uint256",
          "name": "",
          "type": "uint256"
        }
      ],
      "stateMutability": "view",
      "type": "function",
      "constant": true
    },
    {
      "inputs": [
        {
          "internalType": "uint256",
          "name": "_tokenId",
          "type": "uint256"
        }
      ],
      "name": "buyCard",
      "outputs": [],
      "stateMutability": "payable",
      "type": "function",
      "payable": true
    },
    {
      "inputs": [],
      "name": "takePromotionalCard",
      "outputs": [
        {
          "internalType": "uint256",
          "name": "",
          "type": "uint256"
        }
      ],
      "stateMutability": "payable",
      "type": "function",
      "payable": true
    },
    {
      "inputs": [],
      "name": "getContractEthBalance",
      "outputs": [
        {
          "internalType": "uint256",
          "name": "",
          "type": "uint256"
        }
      ],
      "stateMutability": "view",
      "type": "function",
      "constant": true
    }
  ],
  "bytecode": "0x608060405260016009553480156200001657600080fd5b506040518060400160405280600781526020017f54686520626169000000000000000000000000000000000000000000000000008152506040518060400160405280600381526020017f546865000000000000000000000000000000000000000000000000000000000081525081600090805190602001906200009b929190620000bd565b508060019080519060200190620000b4929190620000bd565b505050620001d1565b828054620000cb906200019c565b90600052602060002090601f016020900481019282620000ef57600085556200013b565b82601f106200010a57805160ff19168380011785556200013b565b828001600101855582156200013b579182015b828111156200013a5782518255916020019190600101906200011d565b5b5090506200014a91906200014e565b5090565b5b80821115620001695760008160009055506001016200014f565b5090565b7f4e487b7100000000000000000000000000000000000000000000000000000000600052602260045260246000fd5b60006002820490506001821680620001b557607f821691505b602082108103620001cb57620001ca6200016d565b5b50919050565b613e1980620001e16000396000f3fe6080604052600436106101665760003560e01c80636352211e116100d1578063c457fb371161008a578063e137285b11610064578063e137285b1461052f578063e985e9c51461054d578063f7d975771461058a578063f8f8bfd2146105c757610166565b8063c457fb3714610499578063c70f5eaa146104d6578063c87b56dd146104f257610166565b80636352211e146103775780636f9fb98a146103b457806370a08231146103df57806395d89b411461041c578063a22cb46514610447578063b88d4fde1461047057610166565b80631249c58b116101235780631249c58b146102a157806323b872dd146102b85780632cae2096146102e1578063329a27e7146102f857806342842e0e146103235780634de57d751461034c57610166565b80630164c1db1461016b57806301ffc9a71461019657806306fdde03146101d3578063081812fc146101fe578063095ea7b31461023b5780630f5ed45014610264575b600080fd5b34801561017757600080fd5b50610180610604565b60405161018d919061291f565b60405180910390f35b3480156101a257600080fd5b506101bd60048036038101906101b891906129ad565b61071e565b6040516101ca91906129f5565b60405180910390f35b3480156101df57600080fd5b506101e8610800565b6040516101f59190612aa9565b60405180910390f35b34801561020a57600080fd5b5061022560048036038101906102209190612af7565b610892565b6040516102329190612b65565b60405180910390f35b34801561024757600080fd5b50610262600480360381019061025d9190612bac565b610917565b005b34801561027057600080fd5b5061028b60048036038101906102869190612bec565b610a2e565b604051610298919061291f565b60405180910390f35b3480156102ad57600080fd5b506102b6610bed565b005b3480156102c457600080fd5b506102df60048036038101906102da9190612c19565b610d86565b005b3480156102ed57600080fd5b506102f6610de6565b005b34801561030457600080fd5b5061030d610e29565b60405161031a9190612c7b565b60405180910390f35b34801561032f57600080fd5b5061034a60048036038101906103459190612c19565b610e48565b005b34801561035857600080fd5b50610361610e68565b60405161036e9190612c7b565b60405180910390f35b34801561038357600080fd5b5061039e60048036038101906103999190612af7565b610e70565b6040516103ab9190612b65565b60405180910390f35b3480156103c057600080fd5b506103c9610f21565b6040516103d69190612c7b565b60405180910390f35b3480156103eb57600080fd5b5061040660048036038101906104019190612bec565b610f29565b6040516104139190612c7b565b60405180910390f35b34801561042857600080fd5b50610431610fe0565b60405161043e9190612aa9565b60405180910390f35b34801561045357600080fd5b5061046e60048036038101906104699190612cc2565b611072565b005b34801561047c57600080fd5b5061049760048036038101906104929190612e37565b611088565b005b3480156104a557600080fd5b506104c060048036038101906104bb9190612af7565b6110ea565b6040516104cd9190612c7b565b60405180910390f35b6104f060048036038101906104eb9190612af7565b611107565b005b3480156104fe57600080fd5b5061051960048036038101906105149190612af7565b611430565b6040516105269190612aa9565b60405180910390f35b6105376114d7565b6040516105449190612c7b565b60405180910390f35b34801561055957600080fd5b50610574600480360381019061056f9190612eba565b611886565b60405161058191906129f5565b60405180910390f35b34801561059657600080fd5b506105b160048036038101906105ac9190612efa565b61191a565b6040516105be9190612c7b565b60405180910390f35b3480156105d357600080fd5b506105ee60048036038101906105e99190612bec565b6119e0565b6040516105fb919061291f565b60405180910390f35b606060016009541161066157600067ffffffffffffffff81111561062b5761062a612d0c565b5b6040519080825280602002602001820160405280156106595781602001602082028036833780820191505090505b50905061071b565b600060016009546106729190612f69565b67ffffffffffffffff81111561068b5761068a612d0c565b5b6040519080825280602002602001820160405280156106b95781602001602082028036833780820191505090505b50905060005b60016009546106ce9190612f69565b811015610715576001816106e29190612f9d565b8282815181106106f5576106f4612ff3565b5b60200260200101818152505060018161070e9190612f9d565b90506106bf565b81925050505b90565b60007f80ac58cd000000000000000000000000000000000000000000000000000000007bffffffffffffffffffffffffffffffffffffffffffffffffffffffff1916827bffffffffffffffffffffffffffffffffffffffffffffffffffffffff191614806107e957507f5b5e139f000000000000000000000000000000000000000000000000000000007bffffffffffffffffffffffffffffffffffffffffffffffffffffffff1916827bffffffffffffffffffffffffffffffffffffffffffffffffffffffff1916145b806107f957506107f882611c37565b5b9050919050565b60606000805461080f90613051565b80601f016020809104026020016040519081016040528092919081815260200182805461083b90613051565b80156108885780601f1061085d57610100808354040283529160200191610888565b820191906000526020600020905b81548152906001019060200180831161086b57829003601f168201915b5050505050905090565b600061089d82611ca1565b6108dc576040517f08c379a00000000000000000000000000000000000000000000000000000000081526004016108d3906130f4565b60405180910390fd5b6004600083815260200190815260200160002060009054906101000a900473ffffffffffffffffffffffffffffffffffffffff169050919050565b600061092282610e70565b90508073ffffffffffffffffffffffffffffffffffffffff168373ffffffffffffffffffffffffffffffffffffffff1603610992576040517f08c379a000000000000000000000000000000000000000000000000000000000815260040161098990613186565b60405180910390fd5b8073ffffffffffffffffffffffffffffffffffffffff166109b1611d0d565b73ffffffffffffffffffffffffffffffffffffffff1614806109e057506109df816109da611d0d565b611886565b5b610a1f576040517f08c379a0000000000000000000000000000000000000000000000000000000008152600401610a1690613218565b60405180910390fd5b610a298383611d15565b505050565b60606000600860008473ffffffffffffffffffffffffffffffffffffffff1673ffffffffffffffffffffffffffffffffffffffff16815260200190815260200160002054905060008103610ace57600067ffffffffffffffff811115610a9757610a96612d0c565b5b604051908082528060200260200182016040528015610ac55781602001602082028036833780820191505090505b50915050610be8565b60008167ffffffffffffffff811115610aea57610ae9612d0c565b5b604051908082528060200260200182016040528015610b185781602001602082028036833780820191505090505b50905060006001905060005b83811080610b33575060095482105b15610be0578573ffffffffffffffffffffffffffffffffffffffff166006600084815260200190815260200160002060009054906101000a900473ffffffffffffffffffffffffffffffffffffffff1673ffffffffffffffffffffffffffffffffffffffff1603610bcd5781838281518110610bb257610bb1612ff3565b5b6020026020010181815250508080610bc990613238565b9150505b8180610bd890613238565b925050610b24565b829450505050505b919050565b600a60009054906101000a900473ffffffffffffffffffffffffffffffffffffffff1673ffffffffffffffffffffffffffffffffffffffff163373ffffffffffffffffffffffffffffffffffffffff1614610c7d576040517f08c379a0000000000000000000000000000000000000000000000000000000008152600401610c74906132f2565b60405180910390fd5b610c8933600954611dce565b3360066000600954815260200190815260200160002060006101000a81548173ffffffffffffffffffffffffffffffffffffffff021916908373ffffffffffffffffffffffffffffffffffffffff1602179055506001600860003373ffffffffffffffffffffffffffffffffffffffff1673ffffffffffffffffffffffffffffffffffffffff16815260200190815260200160002054610d299190612f9d565b600860003373ffffffffffffffffffffffffffffffffffffffff1673ffffffffffffffffffffffffffffffffffffffff1681526020019081526020016000208190555060096000815480929190610d7f90613238565b9190505550565b610d97610d91611d0d565b82611dec565b610dd6576040517f08c379a0000000000000000000000000000000000000000000000000000000008152600401610dcd90613384565b60405180910390fd5b610de1838383611eca565b505050565b33600a60006101000a81548173ffffffffffffffffffffffffffffffffffffffff021916908373ffffffffffffffffffffffffffffffffffffffff160217905550565b60003373ffffffffffffffffffffffffffffffffffffffff1631905090565b610e6383838360405180602001604052806000815250611088565b505050565b600047905090565b6000806002600084815260200190815260200160002060009054906101000a900473ffffffffffffffffffffffffffffffffffffffff169050600073ffffffffffffffffffffffffffffffffffffffff168173ffffffffffffffffffffffffffffffffffffffff1603610f18576040517f08c379a0000000000000000000000000000000000000000000000000000000008152600401610f0f90613416565b60405180910390fd5b80915050919050565b600047905090565b60008073ffffffffffffffffffffffffffffffffffffffff168273ffffffffffffffffffffffffffffffffffffffff1603610f99576040517f08c379a0000000000000000000000000000000000000000000000000000000008152600401610f90906134a8565b60405180910390fd5b600360008373ffffffffffffffffffffffffffffffffffffffff1673ffffffffffffffffffffffffffffffffffffffff168152602001908152602001600020549050919050565b606060018054610fef90613051565b80601f016020809104026020016040519081016040528092919081815260200182805461101b90613051565b80156110685780601f1061103d57610100808354040283529160200191611068565b820191906000526020600020905b81548152906001019060200180831161104b57829003601f168201915b5050505050905090565b61108461107d611d0d565b8383612130565b5050565b611099611093611d0d565b83611dec565b6110d8576040517f08c379a00000000000000000000000000000000000000000000000000000000081526004016110cf90613384565b60405180910390fd5b6110e48484848461229c565b50505050565b600060076000838152602001908152602001600020549050919050565b600060076000838152602001908152602001600020549050600061112a346122f8565b60405160200161113a919061352a565b60405160208183030381529060405290506000611156836122f8565b82604051602001611168929190613550565b604051602081830303815290604052905082341481906111be576040517f08c379a00000000000000000000000000000000000000000000000000000000081526004016111b59190612aa9565b60405180910390fd5b5060006006600086815260200190815260200160002060009054906101000a900473ffffffffffffffffffffffffffffffffffffffff1690508073ffffffffffffffffffffffffffffffffffffffff163373ffffffffffffffffffffffffffffffffffffffff1603611265576040517f08c379a000000000000000000000000000000000000000000000000000000000815260040161125c906135c0565b60405180910390fd5b611270813387611eca565b336006600087815260200190815260200160002060006101000a81548173ffffffffffffffffffffffffffffffffffffffff021916908373ffffffffffffffffffffffffffffffffffffffff1602179055506001600860003373ffffffffffffffffffffffffffffffffffffffff1673ffffffffffffffffffffffffffffffffffffffff1681526020019081526020016000205461130e9190612f9d565b600860003373ffffffffffffffffffffffffffffffffffffffff1673ffffffffffffffffffffffffffffffffffffffff168152602001908152602001600020819055506000600860008373ffffffffffffffffffffffffffffffffffffffff1673ffffffffffffffffffffffffffffffffffffffff168152602001908152602001600020541115611429576001600860008373ffffffffffffffffffffffffffffffffffffffff1673ffffffffffffffffffffffffffffffffffffffff168152602001908152602001600020546113e59190612f69565b600860008373ffffffffffffffffffffffffffffffffffffffff1673ffffffffffffffffffffffffffffffffffffffff168152602001908152602001600020819055505b5050505050565b606061143b82611ca1565b61147a576040517f08c379a000000000000000000000000000000000000000000000000000000000815260040161147190613652565b60405180910390fd5b6000611484612458565b905060008151116114a457604051806020016040528060008152506114cf565b806114ae846122f8565b6040516020016114bf929190613550565b6040516020818303038152906040525b915050919050565b600080341461151b576040517f08c379a0000000000000000000000000000000000000000000000000000000008152600401611512906136e4565b60405180910390fd5b600080600190505b6009548110156115d057600a60009054906101000a900473ffffffffffffffffffffffffffffffffffffffff1673ffffffffffffffffffffffffffffffffffffffff166006600083815260200190815260200160002060009054906101000a900473ffffffffffffffffffffffffffffffffffffffff1673ffffffffffffffffffffffffffffffffffffffff16036115bd578091506115d0565b80806115c890613238565b915050611523565b5060008103611614576040517f08c379a000000000000000000000000000000000000000000000000000000000815260040161160b90613776565b60405180910390fd5b60006006600083815260200190815260200160002060009054906101000a900473ffffffffffffffffffffffffffffffffffffffff1690508073ffffffffffffffffffffffffffffffffffffffff163373ffffffffffffffffffffffffffffffffffffffff16036116ba576040517f08c379a00000000000000000000000000000000000000000000000000000000081526004016116b190613808565b60405180910390fd5b6116c5813384611eca565b336006600084815260200190815260200160002060006101000a81548173ffffffffffffffffffffffffffffffffffffffff021916908373ffffffffffffffffffffffffffffffffffffffff1602179055506001600860003373ffffffffffffffffffffffffffffffffffffffff1673ffffffffffffffffffffffffffffffffffffffff168152602001908152602001600020546117639190612f9d565b600860003373ffffffffffffffffffffffffffffffffffffffff1673ffffffffffffffffffffffffffffffffffffffff168152602001908152602001600020819055506000600860008373ffffffffffffffffffffffffffffffffffffffff1673ffffffffffffffffffffffffffffffffffffffff16815260200190815260200160002054111561187e576001600860008373ffffffffffffffffffffffffffffffffffffffff1673ffffffffffffffffffffffffffffffffffffffff1681526020019081526020016000205461183a9190612f69565b600860008373ffffffffffffffffffffffffffffffffffffffff1673ffffffffffffffffffffffffffffffffffffffff168152602001908152602001600020819055505b819250505090565b6000600560008473ffffffffffffffffffffffffffffffffffffffff1673ffffffffffffffffffffffffffffffffffffffff16815260200190815260200160002060008373ffffffffffffffffffffffffffffffffffffffff1673ffffffffffffffffffffffffffffffffffffffff16815260200190815260200160002060009054906101000a900460ff16905092915050565b6000600a60009054906101000a900473ffffffffffffffffffffffffffffffffffffffff1673ffffffffffffffffffffffffffffffffffffffff163373ffffffffffffffffffffffffffffffffffffffff16146119ac576040517f08c379a00000000000000000000000000000000000000000000000000000000081526004016119a39061389a565b60405180910390fd5b8160076000858152602001908152602001600020819055506007600084815260200190815260200160002054905092915050565b60606000600860008473ffffffffffffffffffffffffffffffffffffffff1673ffffffffffffffffffffffffffffffffffffffff16815260200190815260200160002054905060008103611a8057600067ffffffffffffffff811115611a4957611a48612d0c565b5b604051908082528060200260200182016040528015611a775781602001602082028036833780820191505090505b50915050611c32565b6000611a8b84610a2e565b9050600561ffff168211611aa3578092505050611c32565b6000815190505b600561ffff16811115611b7a5760008142611ac591906138e9565b905060008190505b600183611ada9190612f69565b811015611b3a5783600182611aef9190612f9d565b81518110611b0057611aff612ff3565b5b6020026020010151848281518110611b1b57611b1a612ff3565b5b6020026020010181815250508080611b3290613238565b915050611acd565b5082600183611b499190612f69565b81518110611b5a57611b59612ff3565b5b6020026020010160008152508180611b719061391a565b92505050611aaa565b6000600561ffff1667ffffffffffffffff811115611b9b57611b9a612d0c565b5b604051908082528060200260200182016040528015611bc95781602001602082028036833780820191505090505b50905060005b600561ffff16811015611c2957838181518110611bef57611bee612ff3565b5b6020026020010151828281518110611c0a57611c09612ff3565b5b6020026020010181815250508080611c2190613238565b915050611bcf565b50809450505050505b919050565b60007f01ffc9a7000000000000000000000000000000000000000000000000000000007bffffffffffffffffffffffffffffffffffffffffffffffffffffffff1916827bffffffffffffffffffffffffffffffffffffffffffffffffffffffff1916149050919050565b60008073ffffffffffffffffffffffffffffffffffffffff166002600084815260200190815260200160002060009054906101000a900473ffffffffffffffffffffffffffffffffffffffff1673ffffffffffffffffffffffffffffffffffffffff1614159050919050565b600033905090565b816004600083815260200190815260200160002060006101000a81548173ffffffffffffffffffffffffffffffffffffffff021916908373ffffffffffffffffffffffffffffffffffffffff160217905550808273ffffffffffffffffffffffffffffffffffffffff16611d8883610e70565b73ffffffffffffffffffffffffffffffffffffffff167f8c5be1e5ebec7d5bd14f71427d1e84f3dd0314c0f7b2291e5b200ac8c7c3b92560405160405180910390a45050565b611de882826040518060200160405280600081525061246f565b5050565b6000611df782611ca1565b611e36576040517f08c379a0000000000000000000000000000000000000000000000000000000008152600401611e2d906139b5565b60405180910390fd5b6000611e4183610e70565b90508073ffffffffffffffffffffffffffffffffffffffff168473ffffffffffffffffffffffffffffffffffffffff161480611e835750611e828185611886565b5b80611ec157508373ffffffffffffffffffffffffffffffffffffffff16611ea984610892565b73ffffffffffffffffffffffffffffffffffffffff16145b91505092915050565b8273ffffffffffffffffffffffffffffffffffffffff16611eea82610e70565b73ffffffffffffffffffffffffffffffffffffffff1614611f40576040517f08c379a0000000000000000000000000000000000000000000000000000000008152600401611f3790613a47565b60405180910390fd5b600073ffffffffffffffffffffffffffffffffffffffff168273ffffffffffffffffffffffffffffffffffffffff1603611faf576040517f08c379a0000000000000000000000000000000000000000000000000000000008152600401611fa690613ad9565b60405180910390fd5b611fba8383836124ca565b611fc5600082611d15565b6001600360008573ffffffffffffffffffffffffffffffffffffffff1673ffffffffffffffffffffffffffffffffffffffff16815260200190815260200160002060008282546120159190612f69565b925050819055506001600360008473ffffffffffffffffffffffffffffffffffffffff1673ffffffffffffffffffffffffffffffffffffffff168152602001908152602001600020600082825461206c9190612f9d565b92505081905550816002600083815260200190815260200160002060006101000a81548173ffffffffffffffffffffffffffffffffffffffff021916908373ffffffffffffffffffffffffffffffffffffffff160217905550808273ffffffffffffffffffffffffffffffffffffffff168473ffffffffffffffffffffffffffffffffffffffff167fddf252ad1be2c89b69c2b068fc378daa952ba7f163c4a11628f55a4df523b3ef60405160405180910390a461212b8383836124cf565b505050565b8173ffffffffffffffffffffffffffffffffffffffff168373ffffffffffffffffffffffffffffffffffffffff160361219e576040517f08c379a000000000000000000000000000000000000000000000000000000000815260040161219590613b45565b60405180910390fd5b80600560008573ffffffffffffffffffffffffffffffffffffffff1673ffffffffffffffffffffffffffffffffffffffff16815260200190815260200160002060008473ffffffffffffffffffffffffffffffffffffffff1673ffffffffffffffffffffffffffffffffffffffff16815260200190815260200160002060006101000a81548160ff0219169083151502179055508173ffffffffffffffffffffffffffffffffffffffff168373ffffffffffffffffffffffffffffffffffffffff167f17307eab39ab6107e8899845ad3d59bd9653f200f220920489ca2b5937696c318360405161228f91906129f5565b60405180910390a3505050565b6122a7848484611eca565b6122b3848484846124d4565b6122f2576040517f08c379a00000000000000000000000000000000000000000000000000000000081526004016122e990613bd7565b60405180910390fd5b50505050565b60606000820361233f576040518060400160405280600181526020017f30000000000000000000000000000000000000000000000000000000000000008152509050612453565b600082905060005b6000821461237157808061235a90613238565b915050600a8261236a9190613bf7565b9150612347565b60008167ffffffffffffffff81111561238d5761238c612d0c565b5b6040519080825280601f01601f1916602001820160405280156123bf5781602001600182028036833780820191505090505b5090505b6000851461244c576001826123d89190612f69565b9150600a856123e791906138e9565b60306123f39190612f9d565b60f81b81838151811061240957612408612ff3565b5b60200101907effffffffffffffffffffffffffffffffffffffffffffffffffffffffffffff1916908160001a905350600a856124459190613bf7565b94506123c3565b8093505050505b919050565b606060405180602001604052806000815250905090565b612479838361265b565b61248660008484846124d4565b6124c5576040517f08c379a00000000000000000000000000000000000000000000000000000000081526004016124bc90613bd7565b60405180910390fd5b505050565b505050565b505050565b60006124f58473ffffffffffffffffffffffffffffffffffffffff16612834565b1561264e578373ffffffffffffffffffffffffffffffffffffffff1663150b7a0261251e611d0d565b8786866040518563ffffffff1660e01b81526004016125409493929190613c7d565b6020604051808303816000875af192505050801561257c57506040513d601f19601f820116820180604052508101906125799190613cde565b60015b6125fe573d80600081146125ac576040519150601f19603f3d011682016040523d82523d6000602084013e6125b1565b606091505b5060008151036125f6576040517f08c379a00000000000000000000000000000000000000000000000000000000081526004016125ed90613bd7565b60405180910390fd5b805181602001fd5b63150b7a0260e01b7bffffffffffffffffffffffffffffffffffffffffffffffffffffffff1916817bffffffffffffffffffffffffffffffffffffffffffffffffffffffff191614915050612653565b600190505b949350505050565b600073ffffffffffffffffffffffffffffffffffffffff168273ffffffffffffffffffffffffffffffffffffffff16036126ca576040517f08c379a00000000000000000000000000000000000000000000000000000000081526004016126c190613d57565b60405180910390fd5b6126d381611ca1565b15612713576040517f08c379a000000000000000000000000000000000000000000000000000000000815260040161270a90613dc3565b60405180910390fd5b61271f600083836124ca565b6001600360008473ffffffffffffffffffffffffffffffffffffffff1673ffffffffffffffffffffffffffffffffffffffff168152602001908152602001600020600082825461276f9190612f9d565b92505081905550816002600083815260200190815260200160002060006101000a81548173ffffffffffffffffffffffffffffffffffffffff021916908373ffffffffffffffffffffffffffffffffffffffff160217905550808273ffffffffffffffffffffffffffffffffffffffff16600073ffffffffffffffffffffffffffffffffffffffff167fddf252ad1be2c89b69c2b068fc378daa952ba7f163c4a11628f55a4df523b3ef60405160405180910390a4612830600083836124cf565b5050565b6000808273ffffffffffffffffffffffffffffffffffffffff163b119050919050565b600081519050919050565b600082825260208201905092915050565b6000819050602082019050919050565b6000819050919050565b61289681612883565b82525050565b60006128a8838361288d565b60208301905092915050565b6000602082019050919050565b60006128cc82612857565b6128d68185612862565b93506128e183612873565b8060005b838110156129125781516128f9888261289c565b9750612904836128b4565b9250506001810190506128e5565b5085935050505092915050565b6000602082019050818103600083015261293981846128c1565b905092915050565b6000604051905090565b600080fd5b600080fd5b60007fffffffff0000000000000000000000000000000000000000000000000000000082169050919050565b61298a81612955565b811461299557600080fd5b50565b6000813590506129a781612981565b92915050565b6000602082840312156129c3576129c261294b565b5b60006129d184828501612998565b91505092915050565b60008115159050919050565b6129ef816129da565b82525050565b6000602082019050612a0a60008301846129e6565b92915050565b600081519050919050565b600082825260208201905092915050565b60005b83811015612a4a578082015181840152602081019050612a2f565b83811115612a59576000848401525b50505050565b6000601f19601f8301169050919050565b6000612a7b82612a10565b612a858185612a1b565b9350612a95818560208601612a2c565b612a9e81612a5f565b840191505092915050565b60006020820190508181036000830152612ac38184612a70565b905092915050565b612ad481612883565b8114612adf57600080fd5b50565b600081359050612af181612acb565b92915050565b600060208284031215612b0d57612b0c61294b565b5b6000612b1b84828501612ae2565b91505092915050565b600073ffffffffffffffffffffffffffffffffffffffff82169050919050565b6000612b4f82612b24565b9050919050565b612b5f81612b44565b82525050565b6000602082019050612b7a6000830184612b56565b92915050565b612b8981612b44565b8114612b9457600080fd5b50565b600081359050612ba681612b80565b92915050565b60008060408385031215612bc357612bc261294b565b5b6000612bd185828601612b97565b9250506020612be285828601612ae2565b9150509250929050565b600060208284031215612c0257612c0161294b565b5b6000612c1084828501612b97565b91505092915050565b600080600060608486031215612c3257612c3161294b565b5b6000612c4086828701612b97565b9350506020612c5186828701612b97565b9250506040612c6286828701612ae2565b9150509250925092565b612c7581612883565b82525050565b6000602082019050612c906000830184612c6c565b92915050565b612c9f816129da565b8114612caa57600080fd5b50565b600081359050612cbc81612c96565b92915050565b60008060408385031215612cd957612cd861294b565b5b6000612ce785828601612b97565b9250506020612cf885828601612cad565b9150509250929050565b600080fd5b600080fd5b7f4e487b7100000000000000000000000000000000000000000000000000000000600052604160045260246000fd5b612d4482612a5f565b810181811067ffffffffffffffff82111715612d6357612d62612d0c565b5b80604052505050565b6000612d76612941565b9050612d828282612d3b565b919050565b600067ffffffffffffffff821115612da257612da1612d0c565b5b612dab82612a5f565b9050602081019050919050565b82818337600083830152505050565b6000612dda612dd584612d87565b612d6c565b905082815260208101848484011115612df657612df5612d07565b5b612e01848285612db8565b509392505050565b600082601f830112612e1e57612e1d612d02565b5b8135612e2e848260208601612dc7565b91505092915050565b60008060008060808587031215612e5157612e5061294b565b5b6000612e5f87828801612b97565b9450506020612e7087828801612b97565b9350506040612e8187828801612ae2565b925050606085013567ffffffffffffffff811115612ea257612ea1612950565b5b612eae87828801612e09565b91505092959194509250565b60008060408385031215612ed157612ed061294b565b5b6000612edf85828601612b97565b9250506020612ef085828601612b97565b9150509250929050565b60008060408385031215612f1157612f1061294b565b5b6000612f1f85828601612ae2565b9250506020612f3085828601612ae2565b9150509250929050565b7f4e487b7100000000000000000000000000000000000000000000000000000000600052601160045260246000fd5b6000612f7482612883565b9150612f7f83612883565b925082821015612f9257612f91612f3a565b5b828203905092915050565b6000612fa882612883565b9150612fb383612883565b9250827fffffffffffffffffffffffffffffffffffffffffffffffffffffffffffffffff03821115612fe857612fe7612f3a565b5b828201905092915050565b7f4e487b7100000000000000000000000000000000000000000000000000000000600052603260045260246000fd5b7f4e487b7100000000000000000000000000000000000000000000000000000000600052602260045260246000fd5b6000600282049050600182168061306957607f821691505b60208210810361307c5761307b613022565b5b50919050565b7f4552433732313a20617070726f76656420717565727920666f72206e6f6e657860008201527f697374656e7420746f6b656e0000000000000000000000000000000000000000602082015250565b60006130de602c83612a1b565b91506130e982613082565b604082019050919050565b6000602082019050818103600083015261310d816130d1565b9050919050565b7f4552433732313a20617070726f76616c20746f2063757272656e74206f776e6560008201527f7200000000000000000000000000000000000000000000000000000000000000602082015250565b6000613170602183612a1b565b915061317b82613114565b604082019050919050565b6000602082019050818103600083015261319f81613163565b9050919050565b7f4552433732313a20617070726f76652063616c6c6572206973206e6f74206f7760008201527f6e6572206e6f7220617070726f76656420666f7220616c6c0000000000000000602082015250565b6000613202603883612a1b565b915061320d826131a6565b604082019050919050565b60006020820190508181036000830152613231816131f5565b9050919050565b600061324382612883565b91507fffffffffffffffffffffffffffffffffffffffffffffffffffffffffffffffff820361327557613274612f3a565b5b600182019050919050565b7f6f6e6c792061646d696e206861766520746865207065726d697373696f6e207460008201527f6f206d696e740000000000000000000000000000000000000000000000000000602082015250565b60006132dc602683612a1b565b91506132e782613280565b604082019050919050565b6000602082019050818103600083015261330b816132cf565b9050919050565b7f4552433732313a207472616e736665722063616c6c6572206973206e6f74206f60008201527f776e6572206e6f7220617070726f766564000000000000000000000000000000602082015250565b600061336e603183612a1b565b915061337982613312565b604082019050919050565b6000602082019050818103600083015261339d81613361565b9050919050565b7f4552433732313a206f776e657220717565727920666f72206e6f6e657869737460008201527f656e7420746f6b656e0000000000000000000000000000000000000000000000602082015250565b6000613400602983612a1b565b915061340b826133a4565b604082019050919050565b6000602082019050818103600083015261342f816133f3565b9050919050565b7f4552433732313a2062616c616e636520717565727920666f7220746865207a6560008201527f726f206164647265737300000000000000000000000000000000000000000000602082015250565b6000613492602a83612a1b565b915061349d82613436565b604082019050919050565b600060208201905081810360008301526134c181613485565b9050919050565b7f207061796d656e74206d75737420626520657861637420000000000000000000815250565b600081905092915050565b600061350482612a10565b61350e81856134ee565b935061351e818560208601612a2c565b80840191505092915050565b6000613535826134c8565b60178201915061354582846134f9565b915081905092915050565b600061355c82856134f9565b915061356882846134f9565b91508190509392505050565b7f796f752063616e6e6f742062757920796f7572206f776e20746f6b656e200000600082015250565b60006135aa601e83612a1b565b91506135b582613574565b602082019050919050565b600060208201905081810360008301526135d98161359d565b9050919050565b7f4552433732314d657461646174613a2055524920717565727920666f72206e6f60008201527f6e6578697374656e7420746f6b656e0000000000000000000000000000000000602082015250565b600061363c602f83612a1b565b9150613647826135e0565b604082019050919050565b6000602082019050818103600083015261366b8161362f565b9050919050565b7f796f75206d757374206e6f742073656e642065746820746f20636f6e7472616360008201527f7400000000000000000000000000000000000000000000000000000000000000602082015250565b60006136ce602183612a1b565b91506136d982613672565b604082019050919050565b600060208201905081810360008301526136fd816136c1565b9050919050565b7f4e6f7420666f756e6420616e7920617661696c61626c65206361726420666f7260008201527f2070726f6d6f74696f6e616c20707572706f73652e0000000000000000000000602082015250565b6000613760603583612a1b565b915061376b82613704565b604082019050919050565b6000602082019050818103600083015261378f81613753565b9050919050565b7f796f752063616e6e6f74207265636569766520796f7572206f776e20746f6b6560008201527f6e20000000000000000000000000000000000000000000000000000000000000602082015250565b60006137f2602283612a1b565b91506137fd82613796565b604082019050919050565b60006020820190508181036000830152613821816137e5565b9050919050565b7f796f75206d7573742061646d696e20746f2073657420746f6b656e207072696360008201527f6500000000000000000000000000000000000000000000000000000000000000602082015250565b6000613884602183612a1b565b915061388f82613828565b604082019050919050565b600060208201905081810360008301526138b381613877565b9050919050565b7f4e487b7100000000000000000000000000000000000000000000000000000000600052601260045260246000fd5b60006138f482612883565b91506138ff83612883565b92508261390f5761390e6138ba565b5b828206905092915050565b600061392582612883565b91506000820361393857613937612f3a565b5b600182039050919050565b7f4552433732313a206f70657261746f7220717565727920666f72206e6f6e657860008201527f697374656e7420746f6b656e0000000000000000000000000000000000000000602082015250565b600061399f602c83612a1b565b91506139aa82613943565b604082019050919050565b600060208201905081810360008301526139ce81613992565b9050919050565b7f4552433732313a207472616e736665722066726f6d20696e636f72726563742060008201527f6f776e6572000000000000000000000000000000000000000000000000000000602082015250565b6000613a31602583612a1b565b9150613a3c826139d5565b604082019050919050565b60006020820190508181036000830152613a6081613a24565b9050919050565b7f4552433732313a207472616e7366657220746f20746865207a65726f2061646460008201527f7265737300000000000000000000000000000000000000000000000000000000602082015250565b6000613ac3602483612a1b565b9150613ace82613a67565b604082019050919050565b60006020820190508181036000830152613af281613ab6565b9050919050565b7f4552433732313a20617070726f766520746f2063616c6c657200000000000000600082015250565b6000613b2f601983612a1b565b9150613b3a82613af9565b602082019050919050565b60006020820190508181036000830152613b5e81613b22565b9050919050565b7f4552433732313a207472616e7366657220746f206e6f6e20455243373231526560008201527f63656976657220696d706c656d656e7465720000000000000000000000000000602082015250565b6000613bc1603283612a1b565b9150613bcc82613b65565b604082019050919050565b60006020820190508181036000830152613bf081613bb4565b9050919050565b6000613c0282612883565b9150613c0d83612883565b925082613c1d57613c1c6138ba565b5b828204905092915050565b600081519050919050565b600082825260208201905092915050565b6000613c4f82613c28565b613c598185613c33565b9350613c69818560208601612a2c565b613c7281612a5f565b840191505092915050565b6000608082019050613c926000830187612b56565b613c9f6020830186612b56565b613cac6040830185612c6c565b8181036060830152613cbe8184613c44565b905095945050505050565b600081519050613cd881612981565b92915050565b600060208284031215613cf457613cf361294b565b5b6000613d0284828501613cc9565b91505092915050565b7f4552433732313a206d696e7420746f20746865207a65726f2061646472657373600082015250565b6000613d41602083612a1b565b9150613d4c82613d0b565b602082019050919050565b60006020820190508181036000830152613d7081613d34565b9050919050565b7f4552433732313a20746f6b656e20616c7265616479206d696e74656400000000600082015250565b6000613dad601c83612a1b565b9150613db882613d77565b602082019050919050565b60006020820190508181036000830152613ddc81613da0565b905091905056fea2646970667358221220837f0e3f9c11a2c40921ee79658f33b1ac7c9772b1b3dbddb119b15d75614f9a64736f6c634300080e0033",
  "immutableReferences": {},
  "source": "pragma solidity ^0.8.1;\r\n\r\nimport \"../node_modules/@openzeppelin/contracts/token/ERC721/ERC721.sol\";\r\nimport \"../node_modules/@openzeppelin/contracts/utils/Strings.sol\";\r\n\r\ncontract Token is ERC721 {\r\n    using Strings for uint256;\r\n\r\n    // string public domain = \"localhost:8080\";\r\n\r\n    mapping(uint256 => address) internal cardToOwner;\r\n    mapping(uint256 => uint256) internal cardToPrice;\r\n    mapping(address => uint256) internal ownerCardCount;\r\n    uint256 nextId = 1;\r\n    uint16 internal constant CARD_PER_COLLECTION = 5;\r\n    address _admin;\r\n\r\n    constructor() ERC721(\"The bai\", \"The\") {}\r\n\r\n    function setAdmin() public {\r\n        _admin = msg.sender;\r\n    }\r\n\r\n    function getContractBalance() public view returns (uint256) {\r\n        return address(this).balance;\r\n    }\r\n\r\n    function getWalletBalance() public view returns (uint256) {\r\n        return address(msg.sender).balance;\r\n    }\r\n\r\n    function mint() public {\r\n        require(msg.sender == _admin, \"only admin have the permission to mint\");\r\n        _safeMint(msg.sender, nextId);\r\n\r\n        cardToOwner[nextId] = msg.sender;\r\n        ownerCardCount[msg.sender] = ownerCardCount[msg.sender] + 1;\r\n        nextId++;\r\n    }\r\n\r\n    function getAllCardIds() public view returns (uint256[] memory) {\r\n        if (nextId <= 1) {\r\n            return new uint256[](0);\r\n        }\r\n\r\n        uint256[] memory ids = new uint256[](nextId - 1);\r\n        uint256 i = 0;\r\n        while (i < nextId - 1) {\r\n            ids[i] = i + 1;\r\n            i = i + 1;\r\n        }\r\n\r\n        return ids;\r\n    }\r\n\r\n    function getOwnCardIds(address _owner)\r\n        public\r\n        view\r\n        returns (uint256[] memory)\r\n    {\r\n        uint256 ownerCount = ownerCardCount[_owner];\r\n        if (ownerCount == 0) {\r\n            return new uint256[](0);\r\n        }\r\n\r\n        uint256[] memory ids = new uint256[](ownerCount);\r\n        uint256 i = 1;\r\n        uint256 count = 0;\r\n        while (count < ownerCount || i < nextId) {\r\n            if (cardToOwner[i] == _owner) {\r\n                ids[count] = i;\r\n                count++;\r\n            }\r\n            i++;\r\n        }\r\n\r\n        return ids;\r\n    }\r\n\r\n    function getOwnCollection(address _owner)\r\n        public\r\n        view\r\n        returns (uint256[] memory)\r\n    {\r\n        uint256 ownerCount = ownerCardCount[_owner];\r\n        if (ownerCount == 0) {\r\n            return new uint256[](0);\r\n        }\r\n\r\n        uint256[] memory myCards = getOwnCardIds(_owner);\r\n\r\n        if (ownerCount <= CARD_PER_COLLECTION) {\r\n            return myCards;\r\n        }\r\n\r\n        uint256 cardsLength = myCards.length;\r\n        while (cardsLength > CARD_PER_COLLECTION) {\r\n            uint256 removeIndex = block.timestamp % cardsLength;\r\n\r\n            for (uint256 i = removeIndex; i < cardsLength - 1; i++) {\r\n                myCards[i] = myCards[i + 1];\r\n            }\r\n            delete myCards[cardsLength - 1];\r\n            cardsLength--;\r\n        }\r\n\r\n        uint256[] memory ids = new uint256[](CARD_PER_COLLECTION);\r\n        for (uint256 i = 0; i < CARD_PER_COLLECTION; i++) {\r\n            ids[i] = myCards[i];\r\n        }\r\n\r\n        return ids;\r\n    }\r\n\r\n    function setPrice(uint256 _tokenId, uint256 price)\r\n        public\r\n        returns (uint256)\r\n    {\r\n        require(msg.sender == _admin, \"you must admin to set token price\");\r\n\r\n        cardToPrice[_tokenId] = price;\r\n\r\n        return cardToPrice[_tokenId];\r\n    }\r\n\r\n    function getTokenPrice(uint256 _tokenId) public view returns (uint256) {\r\n        return cardToPrice[_tokenId];\r\n    }\r\n\r\n    function buyCard(uint256 _tokenId) external payable {\r\n        uint256 price = cardToPrice[_tokenId];\r\n\r\n        string memory s1 = string.concat(\r\n            \" payment must be exact \",\r\n            Strings.toString(msg.value)\r\n        );\r\n        string memory s2 = string.concat(Strings.toString(price), s1);\r\n        require(msg.value == price, s2);\r\n\r\n        address owner = cardToOwner[_tokenId];\r\n\r\n        require(msg.sender != owner, \"you cannot buy your own token \");\r\n\r\n        //do transfer\r\n        _transfer(owner, msg.sender, _tokenId);\r\n\r\n        cardToOwner[_tokenId] = msg.sender;\r\n        ownerCardCount[msg.sender] = ownerCardCount[msg.sender] + 1;\r\n        if (ownerCardCount[owner] > 0) {\r\n            ownerCardCount[owner] = ownerCardCount[owner] - 1;\r\n        }\r\n    }\r\n\r\n    function takePromotionalCard() external payable returns (uint256) {\r\n        require(msg.value == 0, \"you must not send eth to contract\");\r\n\r\n        uint256 _tokenId = 0;\r\n        for (uint256 i = 1; i < nextId; i++) {\r\n            if (cardToOwner[i] == _admin) {\r\n                _tokenId = i;\r\n                break;\r\n            }\r\n        }\r\n\r\n        require(\r\n            _tokenId != 0,\r\n            \"Not found any available card for promotional purpose.\"\r\n        );\r\n\r\n        address owner = cardToOwner[_tokenId];\r\n\r\n        require(msg.sender != owner, \"you cannot receive your own token \");\r\n\r\n        //do transfer\r\n        _transfer(owner, msg.sender, _tokenId);\r\n\r\n        cardToOwner[_tokenId] = msg.sender;\r\n        ownerCardCount[msg.sender] = ownerCardCount[msg.sender] + 1;\r\n        if (ownerCardCount[owner] > 0) {\r\n            ownerCardCount[owner] = ownerCardCount[owner] - 1;\r\n        }\r\n\r\n        return _tokenId;\r\n    }\r\n\r\n    function getContractEthBalance() public view returns (uint256) {\r\n        return address(this).balance;\r\n    }\r\n}",
  "sourcePath": "G:\\cnmtptpm\\Doan_NFT\\NFT\\smartcontract\\contracts\\Token.sol",
  "compiler": {
    "name": "solc",
    "version": "0.8.14+commit.80d49f37.Emscripten.clang"
  },
  "schemaVersion": "3.4.4",
  "updatedAt": "2022-06-30T15:27:47.398Z",
  "networkType": "ethereum",
  "devdoc": {
    "kind": "dev",
    "methods": {
      "approve(address,uint256)": {
        "details": "See {IERC721-approve}."
      },
      "balanceOf(address)": {
        "details": "See {IERC721-balanceOf}."
      },
      "getApproved(uint256)": {
        "details": "See {IERC721-getApproved}."
      },
      "isApprovedForAll(address,address)": {
        "details": "See {IERC721-isApprovedForAll}."
      },
      "name()": {
        "details": "See {IERC721Metadata-name}."
      },
      "ownerOf(uint256)": {
        "details": "See {IERC721-ownerOf}."
      },
      "safeTransferFrom(address,address,uint256)": {
        "details": "See {IERC721-safeTransferFrom}."
      },
      "safeTransferFrom(address,address,uint256,bytes)": {
        "details": "See {IERC721-safeTransferFrom}."
      },
      "setApprovalForAll(address,bool)": {
        "details": "See {IERC721-setApprovalForAll}."
      },
      "supportsInterface(bytes4)": {
        "details": "See {IERC165-supportsInterface}."
      },
      "symbol()": {
        "details": "See {IERC721Metadata-symbol}."
      },
      "tokenURI(uint256)": {
        "details": "See {IERC721Metadata-tokenURI}."
      },
      "transferFrom(address,address,uint256)": {
        "details": "See {IERC721-transferFrom}."
      }
    },
    "version": 1
  },
  "userdoc": {
    "kind": "user",
    "methods": {},
    "version": 1
  }
}