{
  "contractName": "Token",
  "abi": [
    {
      "inputs": [],
      "stateMutability": "nonpayable",
      "type": "constructor"
    },
    {
      "anonymous": false,
      "inputs": [
        {
          "indexed": true,
          "internalType": "address",
          "name": "owner",
          "type": "address"
        },
        {
          "indexed": true,
          "internalType": "address",
          "name": "approved",
          "type": "address"
        },
        {
          "indexed": true,
          "internalType": "uint256",
          "name": "tokenId",
          "type": "uint256"
        }
      ],
      "name": "Approval",
      "type": "event"
    },
    {
      "anonymous": false,
      "inputs": [
        {
          "indexed": true,
          "internalType": "address",
          "name": "owner",
          "type": "address"
        },
        {
          "indexed": true,
          "internalType": "address",
          "name": "operator",
          "type": "address"
        },
        {
          "indexed": false,
          "internalType": "bool",
          "name": "approved",
          "type": "bool"
        }
      ],
      "name": "ApprovalForAll",
      "type": "event"
    },
    {
      "anonymous": false,
      "inputs": [
        {
          "indexed": true,
          "internalType": "address",
          "name": "from",
          "type": "address"
        },
        {
          "indexed": true,
          "internalType": "address",
          "name": "to",
          "type": "address"
        },
        {
          "indexed": true,
          "internalType": "uint256",
          "name": "tokenId",
          "type": "uint256"
        }
      ],
      "name": "Transfer",
      "type": "event"
    },
    {
      "inputs": [
        {
          "internalType": "address",
          "name": "to",
          "type": "address"
        },
        {
          "internalType": "uint256",
          "name": "tokenId",
          "type": "uint256"
        }
      ],
      "name": "approve",
      "outputs": [],
      "stateMutability": "nonpayable",
      "type": "function"
    },
    {
      "inputs": [
        {
          "internalType": "address",
          "name": "owner",
          "type": "address"
        }
      ],
      "name": "balanceOf",
      "outputs": [
        {
          "internalType": "uint256",
          "name": "",
          "type": "uint256"
        }
      ],
      "stateMutability": "view",
      "type": "function",
      "constant": true
    },
    {
      "inputs": [
        {
          "internalType": "uint256",
          "name": "tokenId",
          "type": "uint256"
        }
      ],
      "name": "getApproved",
      "outputs": [
        {
          "internalType": "address",
          "name": "",
          "type": "address"
        }
      ],
      "stateMutability": "view",
      "type": "function",
      "constant": true
    },
    {
      "inputs": [
        {
          "internalType": "address",
          "name": "owner",
          "type": "address"
        },
        {
          "internalType": "address",
          "name": "operator",
          "type": "address"
        }
      ],
      "name": "isApprovedForAll",
      "outputs": [
        {
          "internalType": "bool",
          "name": "",
          "type": "bool"
        }
      ],
      "stateMutability": "view",
      "type": "function",
      "constant": true
    },
    {
      "inputs": [],
      "name": "name",
      "outputs": [
        {
          "internalType": "string",
          "name": "",
          "type": "string"
        }
      ],
      "stateMutability": "view",
      "type": "function",
      "constant": true
    },
    {
      "inputs": [
        {
          "internalType": "uint256",
          "name": "tokenId",
          "type": "uint256"
        }
      ],
      "name": "ownerOf",
      "outputs": [
        {
          "internalType": "address",
          "name": "",
          "type": "address"
        }
      ],
      "stateMutability": "view",
      "type": "function",
      "constant": true
    },
    {
      "inputs": [
        {
          "internalType": "address",
          "name": "from",
          "type": "address"
        },
        {
          "internalType": "address",
          "name": "to",
          "type": "address"
        },
        {
          "internalType": "uint256",
          "name": "tokenId",
          "type": "uint256"
        }
      ],
      "name": "safeTransferFrom",
      "outputs": [],
      "stateMutability": "nonpayable",
      "type": "function"
    },
    {
      "inputs": [
        {
          "internalType": "address",
          "name": "from",
          "type": "address"
        },
        {
          "internalType": "address",
          "name": "to",
          "type": "address"
        },
        {
          "internalType": "uint256",
          "name": "tokenId",
          "type": "uint256"
        },
        {
          "internalType": "bytes",
          "name": "data",
          "type": "bytes"
        }
      ],
      "name": "safeTransferFrom",
      "outputs": [],
      "stateMutability": "nonpayable",
      "type": "function"
    },
    {
      "inputs": [
        {
          "internalType": "address",
          "name": "operator",
          "type": "address"
        },
        {
          "internalType": "bool",
          "name": "approved",
          "type": "bool"
        }
      ],
      "name": "setApprovalForAll",
      "outputs": [],
      "stateMutability": "nonpayable",
      "type": "function"
    },
    {
      "inputs": [
        {
          "internalType": "bytes4",
          "name": "interfaceId",
          "type": "bytes4"
        }
      ],
      "name": "supportsInterface",
      "outputs": [
        {
          "internalType": "bool",
          "name": "",
          "type": "bool"
        }
      ],
      "stateMutability": "view",
      "type": "function",
      "constant": true
    },
    {
      "inputs": [],
      "name": "symbol",
      "outputs": [
        {
          "internalType": "string",
          "name": "",
          "type": "string"
        }
      ],
      "stateMutability": "view",
      "type": "function",
      "constant": true
    },
    {
      "inputs": [
        {
          "internalType": "uint256",
          "name": "tokenId",
          "type": "uint256"
        }
      ],
      "name": "tokenURI",
      "outputs": [
        {
          "internalType": "string",
          "name": "",
          "type": "string"
        }
      ],
      "stateMutability": "view",
      "type": "function",
      "constant": true
    },
    {
      "inputs": [
        {
          "internalType": "address",
          "name": "from",
          "type": "address"
        },
        {
          "internalType": "address",
          "name": "to",
          "type": "address"
        },
        {
          "internalType": "uint256",
          "name": "tokenId",
          "type": "uint256"
        }
      ],
      "name": "transferFrom",
      "outputs": [],
      "stateMutability": "nonpayable",
      "type": "function"
    },
    {
      "inputs": [],
      "name": "setAdmin",
      "outputs": [],
      "stateMutability": "payable",
      "type": "function",
      "payable": true
    },
    {
      "inputs": [],
      "name": "getContractBalance",
      "outputs": [
        {
          "internalType": "uint256",
          "name": "",
          "type": "uint256"
        }
      ],
      "stateMutability": "view",
      "type": "function",
      "constant": true
    },
    {
      "inputs": [],
      "name": "getWalletBalance",
      "outputs": [
        {
          "internalType": "uint256",
          "name": "",
          "type": "uint256"
        }
      ],
      "stateMutability": "view",
      "type": "function",
      "constant": true
    },
    {
      "inputs": [],
      "name": "mint",
      "outputs": [],
      "stateMutability": "nonpayable",
      "type": "function"
    },
    {
      "inputs": [],
      "name": "getAllCardIds",
      "outputs": [
        {
          "internalType": "uint256[]",
          "name": "",
          "type": "uint256[]"
        }
      ],
      "stateMutability": "view",
      "type": "function",
      "constant": true
    },
    {
      "inputs": [
        {
          "internalType": "address",
          "name": "_owner",
          "type": "address"
        }
      ],
      "name": "getOwnCardIds",
      "outputs": [
        {
          "internalType": "uint256[]",
          "name": "",
          "type": "uint256[]"
        }
      ],
      "stateMutability": "view",
      "type": "function",
      "constant": true
    },
    {
      "inputs": [
        {
          "internalType": "address",
          "name": "_owner",
          "type": "address"
        }
      ],
      "name": "getOwnCollection",
      "outputs": [
        {
          "internalType": "uint256[]",
          "name": "",
          "type": "uint256[]"
        }
      ],
      "stateMutability": "view",
      "type": "function",
      "constant": true
    },
    {
      "inputs": [
        {
          "internalType": "uint256",
          "name": "_tokenId",
          "type": "uint256"
        },
        {
          "internalType": "uint256",
          "name": "price",
          "type": "uint256"
        }
      ],
      "name": "setPrice",
      "outputs": [
        {
          "internalType": "uint256",
          "name": "",
          "type": "uint256"
        }
      ],
      "stateMutability": "nonpayable",
      "type": "function"
    },
    {
      "inputs": [
        {
          "internalType": "uint256",
          "name": "_tokenId",
          "type": "uint256"
        }
      ],
      "name": "getTokenPrice",
      "outputs": [
        {
          "internalType": "uint256",
          "name": "",
          "type": "uint256"
        }
      ],
      "stateMutability": "view",
      "type": "function",
      "constant": true
    },
    {
      "inputs": [
        {
          "internalType": "uint256",
          "name": "_tokenId",
          "type": "uint256"
        }
      ],
      "name": "buyCard",
      "outputs": [],
      "stateMutability": "payable",
      "type": "function",
      "payable": true
    },
    {
      "inputs": [],
      "name": "takePromotionalCard",
      "outputs": [
        {
          "internalType": "uint256",
          "name": "",
          "type": "uint256"
        }
      ],
      "stateMutability": "payable",
      "type": "function",
      "payable": true
    },
    {
      "inputs": [],
      "name": "getContractEthBalance",
      "outputs": [
        {
          "internalType": "uint256",
          "name": "",
          "type": "uint256"
        }
      ],
      "stateMutability": "view",
      "type": "function",
      "constant": true
    },
    {
      "inputs": [
        {
          "internalType": "uint256",
          "name": "_tokenId",
          "type": "uint256"
        }
      ],
      "name": "sellCard",
      "outputs": [],
      "stateMutability": "payable",
      "type": "function",
      "payable": true
    },
    {
      "inputs": [],
      "name": "getPrices",
      "outputs": [
        {
          "internalType": "uint256[]",
          "name": "",
          "type": "uint256[]"
        }
      ],
      "stateMutability": "view",
      "type": "function",
      "constant": true
    }
  ],
  "bytecode": "0x608060405260016009553480156200001657600080fd5b506040518060400160405280600781526020017f54686520626169000000000000000000000000000000000000000000000000008152506040518060400160405280600381526020017f546865000000000000000000000000000000000000000000000000000000000081525081600090805190602001906200009b929190620000bd565b508060019080519060200190620000b4929190620000bd565b505050620001d1565b828054620000cb906200019c565b90600052602060002090601f016020900481019282620000ef57600085556200013b565b82601f106200010a57805160ff19168380011785556200013b565b828001600101855582156200013b579182015b828111156200013a5782518255916020019190600101906200011d565b5b5090506200014a91906200014e565b5090565b5b80821115620001695760008160009055506001016200014f565b5090565b7f4e487b7100000000000000000000000000000000000000000000000000000000600052602260045260246000fd5b60006002820490506001821680620001b557607f821691505b602082108103620001cb57620001ca6200016d565b5b50919050565b613e0280620001e16000396000f3fe60806040526004361061019c5760003560e01c80636f9fb98a116100ec578063c457fb371161008a578063e137285b11610064578063e137285b1461059f578063e985e9c5146105bd578063f7d97577146105fa578063f8f8bfd2146106375761019c565b8063c457fb3714610509578063c70f5eaa14610546578063c87b56dd146105625761019c565b806395d89b41116100c657806395d89b4114610461578063a22cb4651461048c578063b88d4fde146104b5578063bd9a548b146104de5761019c565b80636f9fb98a146103dd57806370a0823114610408578063871238e4146104455761019c565b80631249c58b11610159578063329a27e711610133578063329a27e71461032157806342842e0e1461034c5780634de57d75146103755780636352211e146103a05761019c565b80631249c58b146102d757806323b872dd146102ee5780632cae2096146103175761019c565b80630164c1db146101a157806301ffc9a7146101cc57806306fdde0314610209578063081812fc14610234578063095ea7b3146102715780630f5ed4501461029a575b600080fd5b3480156101ad57600080fd5b506101b6610674565b6040516101c391906129c0565b60405180910390f35b3480156101d857600080fd5b506101f360048036038101906101ee9190612a4e565b61078e565b6040516102009190612a96565b60405180910390f35b34801561021557600080fd5b5061021e610870565b60405161022b9190612b4a565b60405180910390f35b34801561024057600080fd5b5061025b60048036038101906102569190612b98565b610902565b6040516102689190612c06565b60405180910390f35b34801561027d57600080fd5b5061029860048036038101906102939190612c4d565b610948565b005b3480156102a657600080fd5b506102c160048036038101906102bc9190612c8d565b610a5f565b6040516102ce91906129c0565b60405180910390f35b3480156102e357600080fd5b506102ec610c1e565b005b3480156102fa57600080fd5b5061031560048036038101906103109190612cba565b610db7565b005b61031f610e17565b005b34801561032d57600080fd5b50610336610ea5565b6040516103439190612d1c565b60405180910390f35b34801561035857600080fd5b50610373600480360381019061036e9190612cba565b610ec4565b005b34801561038157600080fd5b5061038a610ee4565b6040516103979190612d1c565b60405180910390f35b3480156103ac57600080fd5b506103c760048036038101906103c29190612b98565b610eec565b6040516103d49190612c06565b60405180910390f35b3480156103e957600080fd5b506103f2610f9d565b6040516103ff9190612d1c565b60405180910390f35b34801561041457600080fd5b5061042f600480360381019061042a9190612c8d565b610fa5565b60405161043c9190612d1c565b60405180910390f35b61045f600480360381019061045a9190612b98565b61105c565b005b34801561046d57600080fd5b5061047661119f565b6040516104839190612b4a565b60405180910390f35b34801561049857600080fd5b506104b360048036038101906104ae9190612d63565b611231565b005b3480156104c157600080fd5b506104dc60048036038101906104d79190612ed8565b611247565b005b3480156104ea57600080fd5b506104f36112a9565b60405161050091906129c0565b60405180910390f35b34801561051557600080fd5b50610530600480360381019061052b9190612b98565b611371565b60405161053d9190612d1c565b60405180910390f35b610560600480360381019061055b9190612b98565b61138e565b005b34801561056e57600080fd5b5061058960048036038101906105849190612b98565b6114fe565b6040516105969190612b4a565b60405180910390f35b6105a7611566565b6040516105b49190612d1c565b60405180910390f35b3480156105c957600080fd5b506105e460048036038101906105df9190612f5b565b61175c565b6040516105f19190612a96565b60405180910390f35b34801561060657600080fd5b50610621600480360381019061061c9190612f9b565b6117f0565b60405161062e9190612d1c565b60405180910390f35b34801561064357600080fd5b5061065e60048036038101906106599190612c8d565b6118b6565b60405161066b91906129c0565b60405180910390f35b60606001600954116106d157600067ffffffffffffffff81111561069b5761069a612dad565b5b6040519080825280602002602001820160405280156106c95781602001602082028036833780820191505090505b50905061078b565b600060016009546106e2919061300a565b67ffffffffffffffff8111156106fb576106fa612dad565b5b6040519080825280602002602001820160405280156107295781602001602082028036833780820191505090505b50905060005b600160095461073e919061300a565b81101561078557600181610752919061303e565b82828151811061076557610764613094565b5b60200260200101818152505060018161077e919061303e565b905061072f565b81925050505b90565b60007f80ac58cd000000000000000000000000000000000000000000000000000000007bffffffffffffffffffffffffffffffffffffffffffffffffffffffff1916827bffffffffffffffffffffffffffffffffffffffffffffffffffffffff1916148061085957507f5b5e139f000000000000000000000000000000000000000000000000000000007bffffffffffffffffffffffffffffffffffffffffffffffffffffffff1916827bffffffffffffffffffffffffffffffffffffffffffffffffffffffff1916145b80610869575061086882611b0d565b5b9050919050565b60606000805461087f906130f2565b80601f01602080910402602001604051908101604052809291908181526020018280546108ab906130f2565b80156108f85780601f106108cd576101008083540402835291602001916108f8565b820191906000526020600020905b8154815290600101906020018083116108db57829003601f168201915b5050505050905090565b600061090d82611b77565b6004600083815260200190815260200160002060009054906101000a900473ffffffffffffffffffffffffffffffffffffffff169050919050565b600061095382610eec565b90508073ffffffffffffffffffffffffffffffffffffffff168373ffffffffffffffffffffffffffffffffffffffff16036109c3576040517f08c379a00000000000000000000000000000000000000000000000000000000081526004016109ba90613195565b60405180910390fd5b8073ffffffffffffffffffffffffffffffffffffffff166109e2611bc2565b73ffffffffffffffffffffffffffffffffffffffff161480610a115750610a1081610a0b611bc2565b61175c565b5b610a50576040517f08c379a0000000000000000000000000000000000000000000000000000000008152600401610a4790613227565b60405180910390fd5b610a5a8383611bca565b505050565b60606000600860008473ffffffffffffffffffffffffffffffffffffffff1673ffffffffffffffffffffffffffffffffffffffff16815260200190815260200160002054905060008103610aff57600067ffffffffffffffff811115610ac857610ac7612dad565b5b604051908082528060200260200182016040528015610af65781602001602082028036833780820191505090505b50915050610c19565b60008167ffffffffffffffff811115610b1b57610b1a612dad565b5b604051908082528060200260200182016040528015610b495781602001602082028036833780820191505090505b50905060006001905060005b83811080610b64575060095482105b15610c11578573ffffffffffffffffffffffffffffffffffffffff166006600084815260200190815260200160002060009054906101000a900473ffffffffffffffffffffffffffffffffffffffff1673ffffffffffffffffffffffffffffffffffffffff1603610bfe5781838281518110610be357610be2613094565b5b6020026020010181815250508080610bfa90613247565b9150505b8180610c0990613247565b925050610b55565b829450505050505b919050565b600a60009054906101000a900473ffffffffffffffffffffffffffffffffffffffff1673ffffffffffffffffffffffffffffffffffffffff163373ffffffffffffffffffffffffffffffffffffffff1614610cae576040517f08c379a0000000000000000000000000000000000000000000000000000000008152600401610ca590613301565b60405180910390fd5b610cba33600954611c83565b3360066000600954815260200190815260200160002060006101000a81548173ffffffffffffffffffffffffffffffffffffffff021916908373ffffffffffffffffffffffffffffffffffffffff1602179055506001600860003373ffffffffffffffffffffffffffffffffffffffff1673ffffffffffffffffffffffffffffffffffffffff16815260200190815260200160002054610d5a919061303e565b600860003373ffffffffffffffffffffffffffffffffffffffff1673ffffffffffffffffffffffffffffffffffffffff1681526020019081526020016000208190555060096000815480929190610db090613247565b9190505550565b610dc8610dc2611bc2565b82611ca1565b610e07576040517f08c379a0000000000000000000000000000000000000000000000000000000008152600401610dfe90613393565b60405180910390fd5b610e12838383611d36565b505050565b6802b5e3af16b18800003414610e62576040517f08c379a0000000000000000000000000000000000000000000000000000000008152600401610e5990613425565b60405180910390fd5b33600a60006101000a81548173ffffffffffffffffffffffffffffffffffffffff021916908373ffffffffffffffffffffffffffffffffffffffff160217905550565b60003373ffffffffffffffffffffffffffffffffffffffff1631905090565b610edf83838360405180602001604052806000815250611247565b505050565b600047905090565b6000806002600084815260200190815260200160002060009054906101000a900473ffffffffffffffffffffffffffffffffffffffff169050600073ffffffffffffffffffffffffffffffffffffffff168173ffffffffffffffffffffffffffffffffffffffff1603610f94576040517f08c379a0000000000000000000000000000000000000000000000000000000008152600401610f8b90613491565b60405180910390fd5b80915050919050565b600047905090565b60008073ffffffffffffffffffffffffffffffffffffffff168273ffffffffffffffffffffffffffffffffffffffff1603611015576040517f08c379a000000000000000000000000000000000000000000000000000000000815260040161100c90613523565b60405180910390fd5b600360008373ffffffffffffffffffffffffffffffffffffffff1673ffffffffffffffffffffffffffffffffffffffff168152602001908152602001600020549050919050565b60006006600083815260200190815260200160002060009054906101000a900473ffffffffffffffffffffffffffffffffffffffff1690503373ffffffffffffffffffffffffffffffffffffffff168173ffffffffffffffffffffffffffffffffffffffff1614611102576040517f08c379a00000000000000000000000000000000000000000000000000000000081526004016110f9906135b5565b60405180910390fd5b6000600260076000858152602001908152602001600020546111249190613604565b905061115382600a60009054906101000a900473ffffffffffffffffffffffffffffffffffffffff1685611f9c565b8173ffffffffffffffffffffffffffffffffffffffff166108fc829081150290604051600060405180830381858888f19350505050158015611199573d6000803e3d6000fd5b50505050565b6060600180546111ae906130f2565b80601f01602080910402602001604051908101604052809291908181526020018280546111da906130f2565b80156112275780601f106111fc57610100808354040283529160200191611227565b820191906000526020600020905b81548152906001019060200180831161120a57829003601f168201915b5050505050905090565b61124361123c611bc2565b8383612165565b5050565b611258611252611bc2565b83611ca1565b611297576040517f08c379a000000000000000000000000000000000000000000000000000000000815260040161128e90613393565b60405180910390fd5b6112a3848484846122d1565b50505050565b6060600060016009546112bc919061300a565b67ffffffffffffffff8111156112d5576112d4612dad565b5b6040519080825280602002602001820160405280156113035781602001602082028036833780820191505090505b5090506000600190505b60095481101561136957600760008281526020019081526020016000205482600183611339919061300a565b8151811061134a57611349613094565b5b602002602001018181525050808061136190613247565b91505061130d565b508091505090565b600060076000838152602001908152602001600020549050919050565b60006007600083815260200190815260200160002054905060006113b13461232d565b6040516020016113c19190613697565b604051602081830303815290604052905060006113dd8361232d565b826040516020016113ef9291906136bd565b60405160208183030381529060405290508234148190611445576040517f08c379a000000000000000000000000000000000000000000000000000000000815260040161143c9190612b4a565b60405180910390fd5b5060006006600086815260200190815260200160002060009054906101000a900473ffffffffffffffffffffffffffffffffffffffff1690508073ffffffffffffffffffffffffffffffffffffffff163373ffffffffffffffffffffffffffffffffffffffff16036114ec576040517f08c379a00000000000000000000000000000000000000000000000000000000081526004016114e39061372d565b60405180910390fd5b6114f7813387611f9c565b5050505050565b606061150982611b77565b600061151361248d565b90506000815111611533576040518060200160405280600081525061155e565b8061153d8461232d565b60405160200161154e9291906136bd565b6040516020818303038152906040525b915050919050565b60008034146115aa576040517f08c379a00000000000000000000000000000000000000000000000000000000081526004016115a1906137bf565b60405180910390fd5b600080600190505b60095481101561165f57600a60009054906101000a900473ffffffffffffffffffffffffffffffffffffffff1673ffffffffffffffffffffffffffffffffffffffff166006600083815260200190815260200160002060009054906101000a900473ffffffffffffffffffffffffffffffffffffffff1673ffffffffffffffffffffffffffffffffffffffff160361164c5780915061165f565b808061165790613247565b9150506115b2565b50600081036116a3576040517f08c379a000000000000000000000000000000000000000000000000000000000815260040161169a90613851565b60405180910390fd5b60006006600083815260200190815260200160002060009054906101000a900473ffffffffffffffffffffffffffffffffffffffff1690508073ffffffffffffffffffffffffffffffffffffffff163373ffffffffffffffffffffffffffffffffffffffff1603611749576040517f08c379a0000000000000000000000000000000000000000000000000000000008152600401611740906138e3565b60405180910390fd5b611754813384611f9c565b819250505090565b6000600560008473ffffffffffffffffffffffffffffffffffffffff1673ffffffffffffffffffffffffffffffffffffffff16815260200190815260200160002060008373ffffffffffffffffffffffffffffffffffffffff1673ffffffffffffffffffffffffffffffffffffffff16815260200190815260200160002060009054906101000a900460ff16905092915050565b6000600a60009054906101000a900473ffffffffffffffffffffffffffffffffffffffff1673ffffffffffffffffffffffffffffffffffffffff163373ffffffffffffffffffffffffffffffffffffffff1614611882576040517f08c379a000000000000000000000000000000000000000000000000000000000815260040161187990613975565b60405180910390fd5b8160076000858152602001908152602001600020819055506007600084815260200190815260200160002054905092915050565b60606000600860008473ffffffffffffffffffffffffffffffffffffffff1673ffffffffffffffffffffffffffffffffffffffff1681526020019081526020016000205490506000810361195657600067ffffffffffffffff81111561191f5761191e612dad565b5b60405190808252806020026020018201604052801561194d5781602001602082028036833780820191505090505b50915050611b08565b600061196184610a5f565b9050600561ffff168211611979578092505050611b08565b6000815190505b600561ffff16811115611a50576000814261199b9190613995565b905060008190505b6001836119b0919061300a565b811015611a1057836001826119c5919061303e565b815181106119d6576119d5613094565b5b60200260200101518482815181106119f1576119f0613094565b5b6020026020010181815250508080611a0890613247565b9150506119a3565b5082600183611a1f919061300a565b81518110611a3057611a2f613094565b5b6020026020010160008152508180611a47906139c6565b92505050611980565b6000600561ffff1667ffffffffffffffff811115611a7157611a70612dad565b5b604051908082528060200260200182016040528015611a9f5781602001602082028036833780820191505090505b50905060005b600561ffff16811015611aff57838181518110611ac557611ac4613094565b5b6020026020010151828281518110611ae057611adf613094565b5b6020026020010181815250508080611af790613247565b915050611aa5565b50809450505050505b919050565b60007f01ffc9a7000000000000000000000000000000000000000000000000000000007bffffffffffffffffffffffffffffffffffffffffffffffffffffffff1916827bffffffffffffffffffffffffffffffffffffffffffffffffffffffff1916149050919050565b611b80816124a4565b611bbf576040517f08c379a0000000000000000000000000000000000000000000000000000000008152600401611bb690613491565b60405180910390fd5b50565b600033905090565b816004600083815260200190815260200160002060006101000a81548173ffffffffffffffffffffffffffffffffffffffff021916908373ffffffffffffffffffffffffffffffffffffffff160217905550808273ffffffffffffffffffffffffffffffffffffffff16611c3d83610eec565b73ffffffffffffffffffffffffffffffffffffffff167f8c5be1e5ebec7d5bd14f71427d1e84f3dd0314c0f7b2291e5b200ac8c7c3b92560405160405180910390a45050565b611c9d828260405180602001604052806000815250612510565b5050565b600080611cad83610eec565b90508073ffffffffffffffffffffffffffffffffffffffff168473ffffffffffffffffffffffffffffffffffffffff161480611cef5750611cee818561175c565b5b80611d2d57508373ffffffffffffffffffffffffffffffffffffffff16611d1584610902565b73ffffffffffffffffffffffffffffffffffffffff16145b91505092915050565b8273ffffffffffffffffffffffffffffffffffffffff16611d5682610eec565b73ffffffffffffffffffffffffffffffffffffffff1614611dac576040517f08c379a0000000000000000000000000000000000000000000000000000000008152600401611da390613a61565b60405180910390fd5b600073ffffffffffffffffffffffffffffffffffffffff168273ffffffffffffffffffffffffffffffffffffffff1603611e1b576040517f08c379a0000000000000000000000000000000000000000000000000000000008152600401611e1290613af3565b60405180910390fd5b611e2683838361256b565b611e31600082611bca565b6001600360008573ffffffffffffffffffffffffffffffffffffffff1673ffffffffffffffffffffffffffffffffffffffff1681526020019081526020016000206000828254611e81919061300a565b925050819055506001600360008473ffffffffffffffffffffffffffffffffffffffff1673ffffffffffffffffffffffffffffffffffffffff1681526020019081526020016000206000828254611ed8919061303e565b92505081905550816002600083815260200190815260200160002060006101000a81548173ffffffffffffffffffffffffffffffffffffffff021916908373ffffffffffffffffffffffffffffffffffffffff160217905550808273ffffffffffffffffffffffffffffffffffffffff168473ffffffffffffffffffffffffffffffffffffffff167fddf252ad1be2c89b69c2b068fc378daa952ba7f163c4a11628f55a4df523b3ef60405160405180910390a4611f97838383612570565b505050565b611fa7838383611d36565b816006600083815260200190815260200160002060006101000a81548173ffffffffffffffffffffffffffffffffffffffff021916908373ffffffffffffffffffffffffffffffffffffffff1602179055506001600860008473ffffffffffffffffffffffffffffffffffffffff1673ffffffffffffffffffffffffffffffffffffffff16815260200190815260200160002054612045919061303e565b600860008473ffffffffffffffffffffffffffffffffffffffff1673ffffffffffffffffffffffffffffffffffffffff168152602001908152602001600020819055506000600860008573ffffffffffffffffffffffffffffffffffffffff1673ffffffffffffffffffffffffffffffffffffffff168152602001908152602001600020541115612160576001600860008573ffffffffffffffffffffffffffffffffffffffff1673ffffffffffffffffffffffffffffffffffffffff1681526020019081526020016000205461211c919061300a565b600860008573ffffffffffffffffffffffffffffffffffffffff1673ffffffffffffffffffffffffffffffffffffffff168152602001908152602001600020819055505b505050565b8173ffffffffffffffffffffffffffffffffffffffff168373ffffffffffffffffffffffffffffffffffffffff16036121d3576040517f08c379a00000000000000000000000000000000000000000000000000000000081526004016121ca90613b5f565b60405180910390fd5b80600560008573ffffffffffffffffffffffffffffffffffffffff1673ffffffffffffffffffffffffffffffffffffffff16815260200190815260200160002060008473ffffffffffffffffffffffffffffffffffffffff1673ffffffffffffffffffffffffffffffffffffffff16815260200190815260200160002060006101000a81548160ff0219169083151502179055508173ffffffffffffffffffffffffffffffffffffffff168373ffffffffffffffffffffffffffffffffffffffff167f17307eab39ab6107e8899845ad3d59bd9653f200f220920489ca2b5937696c31836040516122c49190612a96565b60405180910390a3505050565b6122dc848484611d36565b6122e884848484612575565b612327576040517f08c379a000000000000000000000000000000000000000000000000000000000815260040161231e90613bf1565b60405180910390fd5b50505050565b606060008203612374576040518060400160405280600181526020017f30000000000000000000000000000000000000000000000000000000000000008152509050612488565b600082905060005b600082146123a657808061238f90613247565b915050600a8261239f9190613604565b915061237c565b60008167ffffffffffffffff8111156123c2576123c1612dad565b5b6040519080825280601f01601f1916602001820160405280156123f45781602001600182028036833780820191505090505b5090505b600085146124815760018261240d919061300a565b9150600a8561241c9190613995565b6030612428919061303e565b60f81b81838151811061243e5761243d613094565b5b60200101907effffffffffffffffffffffffffffffffffffffffffffffffffffffffffffff1916908160001a905350600a8561247a9190613604565b94506123f8565b8093505050505b919050565b606060405180602001604052806000815250905090565b60008073ffffffffffffffffffffffffffffffffffffffff166002600084815260200190815260200160002060009054906101000a900473ffffffffffffffffffffffffffffffffffffffff1673ffffffffffffffffffffffffffffffffffffffff1614159050919050565b61251a83836126fc565b6125276000848484612575565b612566576040517f08c379a000000000000000000000000000000000000000000000000000000000815260040161255d90613bf1565b60405180910390fd5b505050565b505050565b505050565b60006125968473ffffffffffffffffffffffffffffffffffffffff166128d5565b156126ef578373ffffffffffffffffffffffffffffffffffffffff1663150b7a026125bf611bc2565b8786866040518563ffffffff1660e01b81526004016125e19493929190613c66565b6020604051808303816000875af192505050801561261d57506040513d601f19601f8201168201806040525081019061261a9190613cc7565b60015b61269f573d806000811461264d576040519150601f19603f3d011682016040523d82523d6000602084013e612652565b606091505b506000815103612697576040517f08c379a000000000000000000000000000000000000000000000000000000000815260040161268e90613bf1565b60405180910390fd5b805181602001fd5b63150b7a0260e01b7bffffffffffffffffffffffffffffffffffffffffffffffffffffffff1916817bffffffffffffffffffffffffffffffffffffffffffffffffffffffff1916149150506126f4565b600190505b949350505050565b600073ffffffffffffffffffffffffffffffffffffffff168273ffffffffffffffffffffffffffffffffffffffff160361276b576040517f08c379a000000000000000000000000000000000000000000000000000000000815260040161276290613d40565b60405180910390fd5b612774816124a4565b156127b4576040517f08c379a00000000000000000000000000000000000000000000000000000000081526004016127ab90613dac565b60405180910390fd5b6127c06000838361256b565b6001600360008473ffffffffffffffffffffffffffffffffffffffff1673ffffffffffffffffffffffffffffffffffffffff1681526020019081526020016000206000828254612810919061303e565b92505081905550816002600083815260200190815260200160002060006101000a81548173ffffffffffffffffffffffffffffffffffffffff021916908373ffffffffffffffffffffffffffffffffffffffff160217905550808273ffffffffffffffffffffffffffffffffffffffff16600073ffffffffffffffffffffffffffffffffffffffff167fddf252ad1be2c89b69c2b068fc378daa952ba7f163c4a11628f55a4df523b3ef60405160405180910390a46128d160008383612570565b5050565b6000808273ffffffffffffffffffffffffffffffffffffffff163b119050919050565b600081519050919050565b600082825260208201905092915050565b6000819050602082019050919050565b6000819050919050565b61293781612924565b82525050565b6000612949838361292e565b60208301905092915050565b6000602082019050919050565b600061296d826128f8565b6129778185612903565b935061298283612914565b8060005b838110156129b357815161299a888261293d565b97506129a583612955565b925050600181019050612986565b5085935050505092915050565b600060208201905081810360008301526129da8184612962565b905092915050565b6000604051905090565b600080fd5b600080fd5b60007fffffffff0000000000000000000000000000000000000000000000000000000082169050919050565b612a2b816129f6565b8114612a3657600080fd5b50565b600081359050612a4881612a22565b92915050565b600060208284031215612a6457612a636129ec565b5b6000612a7284828501612a39565b91505092915050565b60008115159050919050565b612a9081612a7b565b82525050565b6000602082019050612aab6000830184612a87565b92915050565b600081519050919050565b600082825260208201905092915050565b60005b83811015612aeb578082015181840152602081019050612ad0565b83811115612afa576000848401525b50505050565b6000601f19601f8301169050919050565b6000612b1c82612ab1565b612b268185612abc565b9350612b36818560208601612acd565b612b3f81612b00565b840191505092915050565b60006020820190508181036000830152612b648184612b11565b905092915050565b612b7581612924565b8114612b8057600080fd5b50565b600081359050612b9281612b6c565b92915050565b600060208284031215612bae57612bad6129ec565b5b6000612bbc84828501612b83565b91505092915050565b600073ffffffffffffffffffffffffffffffffffffffff82169050919050565b6000612bf082612bc5565b9050919050565b612c0081612be5565b82525050565b6000602082019050612c1b6000830184612bf7565b92915050565b612c2a81612be5565b8114612c3557600080fd5b50565b600081359050612c4781612c21565b92915050565b60008060408385031215612c6457612c636129ec565b5b6000612c7285828601612c38565b9250506020612c8385828601612b83565b9150509250929050565b600060208284031215612ca357612ca26129ec565b5b6000612cb184828501612c38565b91505092915050565b600080600060608486031215612cd357612cd26129ec565b5b6000612ce186828701612c38565b9350506020612cf286828701612c38565b9250506040612d0386828701612b83565b9150509250925092565b612d1681612924565b82525050565b6000602082019050612d316000830184612d0d565b92915050565b612d4081612a7b565b8114612d4b57600080fd5b50565b600081359050612d5d81612d37565b92915050565b60008060408385031215612d7a57612d796129ec565b5b6000612d8885828601612c38565b9250506020612d9985828601612d4e565b9150509250929050565b600080fd5b600080fd5b7f4e487b7100000000000000000000000000000000000000000000000000000000600052604160045260246000fd5b612de582612b00565b810181811067ffffffffffffffff82111715612e0457612e03612dad565b5b80604052505050565b6000612e176129e2565b9050612e238282612ddc565b919050565b600067ffffffffffffffff821115612e4357612e42612dad565b5b612e4c82612b00565b9050602081019050919050565b82818337600083830152505050565b6000612e7b612e7684612e28565b612e0d565b905082815260208101848484011115612e9757612e96612da8565b5b612ea2848285612e59565b509392505050565b600082601f830112612ebf57612ebe612da3565b5b8135612ecf848260208601612e68565b91505092915050565b60008060008060808587031215612ef257612ef16129ec565b5b6000612f0087828801612c38565b9450506020612f1187828801612c38565b9350506040612f2287828801612b83565b925050606085013567ffffffffffffffff811115612f4357612f426129f1565b5b612f4f87828801612eaa565b91505092959194509250565b60008060408385031215612f7257612f716129ec565b5b6000612f8085828601612c38565b9250506020612f9185828601612c38565b9150509250929050565b60008060408385031215612fb257612fb16129ec565b5b6000612fc085828601612b83565b9250506020612fd185828601612b83565b9150509250929050565b7f4e487b7100000000000000000000000000000000000000000000000000000000600052601160045260246000fd5b600061301582612924565b915061302083612924565b92508282101561303357613032612fdb565b5b828203905092915050565b600061304982612924565b915061305483612924565b9250827fffffffffffffffffffffffffffffffffffffffffffffffffffffffffffffffff0382111561308957613088612fdb565b5b828201905092915050565b7f4e487b7100000000000000000000000000000000000000000000000000000000600052603260045260246000fd5b7f4e487b7100000000000000000000000000000000000000000000000000000000600052602260045260246000fd5b6000600282049050600182168061310a57607f821691505b60208210810361311d5761311c6130c3565b5b50919050565b7f4552433732313a20617070726f76616c20746f2063757272656e74206f776e6560008201527f7200000000000000000000000000000000000000000000000000000000000000602082015250565b600061317f602183612abc565b915061318a82613123565b604082019050919050565b600060208201905081810360008301526131ae81613172565b9050919050565b7f4552433732313a20617070726f76652063616c6c6572206973206e6f7420746f60008201527f6b656e206f776e6572206e6f7220617070726f76656420666f7220616c6c0000602082015250565b6000613211603e83612abc565b915061321c826131b5565b604082019050919050565b6000602082019050818103600083015261324081613204565b9050919050565b600061325282612924565b91507fffffffffffffffffffffffffffffffffffffffffffffffffffffffffffffffff820361328457613283612fdb565b5b600182019050919050565b7f6f6e6c792061646d696e206861766520746865207065726d697373696f6e207460008201527f6f206d696e740000000000000000000000000000000000000000000000000000602082015250565b60006132eb602683612abc565b91506132f68261328f565b604082019050919050565b6000602082019050818103600083015261331a816132de565b9050919050565b7f4552433732313a2063616c6c6572206973206e6f7420746f6b656e206f776e6560008201527f72206e6f7220617070726f766564000000000000000000000000000000000000602082015250565b600061337d602e83612abc565b915061338882613321565b604082019050919050565b600060208201905081810360008301526133ac81613370565b9050919050565b7f796f75206d757374206465706f7369742035302065746820746f206265636f6d60008201527f652061646d696e00000000000000000000000000000000000000000000000000602082015250565b600061340f602783612abc565b915061341a826133b3565b604082019050919050565b6000602082019050818103600083015261343e81613402565b9050919050565b7f4552433732313a20696e76616c696420746f6b656e2049440000000000000000600082015250565b600061347b601883612abc565b915061348682613445565b602082019050919050565b600060208201905081810360008301526134aa8161346e565b9050919050565b7f4552433732313a2061646472657373207a65726f206973206e6f74206120766160008201527f6c6964206f776e65720000000000000000000000000000000000000000000000602082015250565b600061350d602983612abc565b9150613518826134b1565b604082019050919050565b6000602082019050818103600083015261353c81613500565b9050919050565b7f6f6e6c792063617264206f776e65722068617665207065726d697373696f6e2060008201527f746f2073656c6c20636172640000000000000000000000000000000000000000602082015250565b600061359f602c83612abc565b91506135aa82613543565b604082019050919050565b600060208201905081810360008301526135ce81613592565b9050919050565b7f4e487b7100000000000000000000000000000000000000000000000000000000600052601260045260246000fd5b600061360f82612924565b915061361a83612924565b92508261362a576136296135d5565b5b828204905092915050565b7f207061796d656e74206d75737420626520657861637420000000000000000000815250565b600081905092915050565b600061367182612ab1565b61367b818561365b565b935061368b818560208601612acd565b80840191505092915050565b60006136a282613635565b6017820191506136b28284613666565b915081905092915050565b60006136c98285613666565b91506136d58284613666565b91508190509392505050565b7f796f752063616e6e6f742062757920796f7572206f776e20746f6b656e200000600082015250565b6000613717601e83612abc565b9150613722826136e1565b602082019050919050565b600060208201905081810360008301526137468161370a565b9050919050565b7f796f75206d757374206e6f742073656e642065746820746f20636f6e7472616360008201527f7400000000000000000000000000000000000000000000000000000000000000602082015250565b60006137a9602183612abc565b91506137b48261374d565b604082019050919050565b600060208201905081810360008301526137d88161379c565b9050919050565b7f4e6f7420666f756e6420616e7920617661696c61626c65206361726420666f7260008201527f2070726f6d6f74696f6e616c20707572706f73652e0000000000000000000000602082015250565b600061383b603583612abc565b9150613846826137df565b604082019050919050565b6000602082019050818103600083015261386a8161382e565b9050919050565b7f796f752063616e6e6f74207265636569766520796f7572206f776e20746f6b6560008201527f6e20000000000000000000000000000000000000000000000000000000000000602082015250565b60006138cd602283612abc565b91506138d882613871565b604082019050919050565b600060208201905081810360008301526138fc816138c0565b9050919050565b7f796f75206d7573742061646d696e20746f2073657420746f6b656e207072696360008201527f6500000000000000000000000000000000000000000000000000000000000000602082015250565b600061395f602183612abc565b915061396a82613903565b604082019050919050565b6000602082019050818103600083015261398e81613952565b9050919050565b60006139a082612924565b91506139ab83612924565b9250826139bb576139ba6135d5565b5b828206905092915050565b60006139d182612924565b9150600082036139e4576139e3612fdb565b5b600182039050919050565b7f4552433732313a207472616e736665722066726f6d20696e636f72726563742060008201527f6f776e6572000000000000000000000000000000000000000000000000000000602082015250565b6000613a4b602583612abc565b9150613a56826139ef565b604082019050919050565b60006020820190508181036000830152613a7a81613a3e565b9050919050565b7f4552433732313a207472616e7366657220746f20746865207a65726f2061646460008201527f7265737300000000000000000000000000000000000000000000000000000000602082015250565b6000613add602483612abc565b9150613ae882613a81565b604082019050919050565b60006020820190508181036000830152613b0c81613ad0565b9050919050565b7f4552433732313a20617070726f766520746f2063616c6c657200000000000000600082015250565b6000613b49601983612abc565b9150613b5482613b13565b602082019050919050565b60006020820190508181036000830152613b7881613b3c565b9050919050565b7f4552433732313a207472616e7366657220746f206e6f6e20455243373231526560008201527f63656976657220696d706c656d656e7465720000000000000000000000000000602082015250565b6000613bdb603283612abc565b9150613be682613b7f565b604082019050919050565b60006020820190508181036000830152613c0a81613bce565b9050919050565b600081519050919050565b600082825260208201905092915050565b6000613c3882613c11565b613c428185613c1c565b9350613c52818560208601612acd565b613c5b81612b00565b840191505092915050565b6000608082019050613c7b6000830187612bf7565b613c886020830186612bf7565b613c956040830185612d0d565b8181036060830152613ca78184613c2d565b905095945050505050565b600081519050613cc181612a22565b92915050565b600060208284031215613cdd57613cdc6129ec565b5b6000613ceb84828501613cb2565b91505092915050565b7f4552433732313a206d696e7420746f20746865207a65726f2061646472657373600082015250565b6000613d2a602083612abc565b9150613d3582613cf4565b602082019050919050565b60006020820190508181036000830152613d5981613d1d565b9050919050565b7f4552433732313a20746f6b656e20616c7265616479206d696e74656400000000600082015250565b6000613d96601c83612abc565b9150613da182613d60565b602082019050919050565b60006020820190508181036000830152613dc581613d89565b905091905056fea264697066735822122028e573b1233d6c6485909890f92ec6f5a5fdbf72c9beae5ac34794a55095007764736f6c634300080e0033",
  "immutableReferences": {},
  "source": "pragma solidity ^0.8.1;\n\nimport \"../node_modules/@openzeppelin/contracts/token/ERC721/ERC721.sol\";\nimport \"../node_modules/@openzeppelin/contracts/utils/Strings.sol\";\n\ncontract Token is ERC721 {\n    using Strings for uint256;\n\n    // string public domain = \"localhost:8080\";\n\n    mapping(uint256 => address) internal cardToOwner;\n    mapping(uint256 => uint256) internal cardToPrice;\n    mapping(address => uint256) internal ownerCardCount;\n    uint256 nextId = 1;\n    uint16 internal constant CARD_PER_COLLECTION = 5;\n    address _admin;\n\n    constructor() ERC721(\"The bai\", \"The\") {}\n\n    function setAdmin() public payable {\n        require(\n            msg.value == 50 ether,\n            \"you must deposit 50 eth to become admin\"\n        );\n        _admin = msg.sender;\n    }\n\n    function getContractBalance() public view returns (uint256) {\n        return address(this).balance;\n    }\n\n    function getWalletBalance() public view returns (uint256) {\n        return address(msg.sender).balance;\n    }\n\n    function mint() public {\n        require(msg.sender == _admin, \"only admin have the permission to mint\");\n        _safeMint(msg.sender, nextId);\n\n        cardToOwner[nextId] = msg.sender;\n        ownerCardCount[msg.sender] = ownerCardCount[msg.sender] + 1;\n        nextId++;\n    }\n\n    function getAllCardIds() public view returns (uint256[] memory) {\n        if (nextId <= 1) {\n            return new uint256[](0);\n        }\n\n        uint256[] memory ids = new uint256[](nextId - 1);\n        uint256 i = 0;\n        while (i < nextId - 1) {\n            ids[i] = i + 1;\n            i = i + 1;\n        }\n\n        return ids;\n    }\n\n    function getOwnCardIds(address _owner)\n        public\n        view\n        returns (uint256[] memory)\n    {\n        uint256 ownerCount = ownerCardCount[_owner];\n        if (ownerCount == 0) {\n            return new uint256[](0);\n        }\n\n        uint256[] memory ids = new uint256[](ownerCount);\n        uint256 i = 1;\n        uint256 count = 0;\n        while (count < ownerCount || i < nextId) {\n            if (cardToOwner[i] == _owner) {\n                ids[count] = i;\n                count++;\n            }\n            i++;\n        }\n\n        return ids;\n    }\n\n    function getOwnCollection(address _owner)\n        public\n        view\n        returns (uint256[] memory)\n    {\n        uint256 ownerCount = ownerCardCount[_owner];\n        if (ownerCount == 0) {\n            return new uint256[](0);\n        }\n\n        uint256[] memory myCards = getOwnCardIds(_owner);\n\n        if (ownerCount <= CARD_PER_COLLECTION) {\n            return myCards;\n        }\n\n        uint256 cardsLength = myCards.length;\n        while (cardsLength > CARD_PER_COLLECTION) {\n            uint256 removeIndex = block.timestamp % cardsLength;\n\n            for (uint256 i = removeIndex; i < cardsLength - 1; i++) {\n                myCards[i] = myCards[i + 1];\n            }\n            delete myCards[cardsLength - 1];\n            cardsLength--;\n        }\n\n        uint256[] memory ids = new uint256[](CARD_PER_COLLECTION);\n        for (uint256 i = 0; i < CARD_PER_COLLECTION; i++) {\n            ids[i] = myCards[i];\n        }\n\n        return ids;\n    }\n\n    function setPrice(uint256 _tokenId, uint256 price)\n        public\n        returns (uint256)\n    {\n        require(msg.sender == _admin, \"you must admin to set token price\");\n\n        cardToPrice[_tokenId] = price;\n\n        return cardToPrice[_tokenId];\n    }\n\n    function getTokenPrice(uint256 _tokenId) public view returns (uint256) {\n        return cardToPrice[_tokenId];\n    }\n\n    function buyCard(uint256 _tokenId) external payable {\n        uint256 price = cardToPrice[_tokenId];\n\n        string memory s1 = string.concat(\n            \" payment must be exact \",\n            Strings.toString(msg.value)\n        );\n        string memory s2 = string.concat(Strings.toString(price), s1);\n        require(msg.value == price, s2);\n\n        address owner = cardToOwner[_tokenId];\n\n        require(msg.sender != owner, \"you cannot buy your own token \");\n\n        doTransfer(owner, msg.sender, _tokenId);\n    }\n\n    function takePromotionalCard() external payable returns (uint256) {\n        require(msg.value == 0, \"you must not send eth to contract\");\n\n        uint256 _tokenId = 0;\n        for (uint256 i = 1; i < nextId; i++) {\n            if (cardToOwner[i] == _admin) {\n                _tokenId = i;\n                break;\n            }\n        }\n\n        require(\n            _tokenId != 0,\n            \"Not found any available card for promotional purpose.\"\n        );\n\n        address owner = cardToOwner[_tokenId];\n\n        require(msg.sender != owner, \"you cannot receive your own token \");\n\n        doTransfer(owner, msg.sender, _tokenId);\n\n        return _tokenId;\n    }\n\n    function getContractEthBalance() public view returns (uint256) {\n        return address(this).balance;\n    }\n\n    function sellCard(uint256 _tokenId) external payable {\n        address owner = cardToOwner[_tokenId];\n        require(\n            owner == msg.sender,\n            \"only card owner have permission to sell card\"\n        );\n\n        uint256 sellPrice = cardToPrice[_tokenId] / 2;\n        doTransfer(owner, _admin, _tokenId);\n\n        payable(owner).transfer(sellPrice);\n    }\n\n    function doTransfer(\n        address owner,\n        address to,\n        uint256 _tokenId\n    ) private {\n        _transfer(owner, to, _tokenId);\n\n        cardToOwner[_tokenId] = to;\n        ownerCardCount[to] = ownerCardCount[to] + 1;\n        if (ownerCardCount[owner] > 0) {\n            ownerCardCount[owner] = ownerCardCount[owner] - 1;\n        }\n    }\n\n    function getPrices() public view returns (uint256[] memory) {\n        uint256[] memory prices = new uint256[](nextId - 1);\n\n        for (uint256 i = 1; i < nextId; i++) {\n            prices[i - 1] = cardToPrice[i];\n        }\n\n        return prices;\n    }\n}\n",
  "sourcePath": "/Users/hieudao/Documents/fork/NFT-GAME-Demo/smartcontract/contracts/Token.sol",
  "compiler": {
    "name": "solc",
    "version": "0.8.14+commit.80d49f37.Emscripten.clang"
  },
  "schemaVersion": "3.4.7",
  "updatedAt": "2022-07-01T09:09:15.479Z",
  "networkType": "ethereum",
  "devdoc": {
    "kind": "dev",
    "methods": {
      "approve(address,uint256)": {
        "details": "See {IERC721-approve}."
      },
      "balanceOf(address)": {
        "details": "See {IERC721-balanceOf}."
      },
      "getApproved(uint256)": {
        "details": "See {IERC721-getApproved}."
      },
      "isApprovedForAll(address,address)": {
        "details": "See {IERC721-isApprovedForAll}."
      },
      "name()": {
        "details": "See {IERC721Metadata-name}."
      },
      "ownerOf(uint256)": {
        "details": "See {IERC721-ownerOf}."
      },
      "safeTransferFrom(address,address,uint256)": {
        "details": "See {IERC721-safeTransferFrom}."
      },
      "safeTransferFrom(address,address,uint256,bytes)": {
        "details": "See {IERC721-safeTransferFrom}."
      },
      "setApprovalForAll(address,bool)": {
        "details": "See {IERC721-setApprovalForAll}."
      },
      "supportsInterface(bytes4)": {
        "details": "See {IERC165-supportsInterface}."
      },
      "symbol()": {
        "details": "See {IERC721Metadata-symbol}."
      },
      "tokenURI(uint256)": {
        "details": "See {IERC721Metadata-tokenURI}."
      },
      "transferFrom(address,address,uint256)": {
        "details": "See {IERC721-transferFrom}."
      }
    },
    "version": 1
  },
  "userdoc": {
    "kind": "user",
    "methods": {},
    "version": 1
  }
}