{
  "contractName": "Token",
  "abi": [
    {
      "inputs": [],
      "stateMutability": "nonpayable",
      "type": "constructor"
    },
    {
      "anonymous": false,
      "inputs": [
        {
          "indexed": true,
          "internalType": "address",
          "name": "owner",
          "type": "address"
        },
        {
          "indexed": true,
          "internalType": "address",
          "name": "approved",
          "type": "address"
        },
        {
          "indexed": true,
          "internalType": "uint256",
          "name": "tokenId",
          "type": "uint256"
        }
      ],
      "name": "Approval",
      "type": "event"
    },
    {
      "anonymous": false,
      "inputs": [
        {
          "indexed": true,
          "internalType": "address",
          "name": "owner",
          "type": "address"
        },
        {
          "indexed": true,
          "internalType": "address",
          "name": "operator",
          "type": "address"
        },
        {
          "indexed": false,
          "internalType": "bool",
          "name": "approved",
          "type": "bool"
        }
      ],
      "name": "ApprovalForAll",
      "type": "event"
    },
    {
      "anonymous": false,
      "inputs": [
        {
          "indexed": true,
          "internalType": "address",
          "name": "from",
          "type": "address"
        },
        {
          "indexed": true,
          "internalType": "address",
          "name": "to",
          "type": "address"
        },
        {
          "indexed": true,
          "internalType": "uint256",
          "name": "tokenId",
          "type": "uint256"
        }
      ],
      "name": "Transfer",
      "type": "event"
    },
    {
      "inputs": [
        {
          "internalType": "address",
          "name": "to",
          "type": "address"
        },
        {
          "internalType": "uint256",
          "name": "tokenId",
          "type": "uint256"
        }
      ],
      "name": "approve",
      "outputs": [],
      "stateMutability": "nonpayable",
      "type": "function"
    },
    {
      "inputs": [
        {
          "internalType": "address",
          "name": "owner",
          "type": "address"
        }
      ],
      "name": "balanceOf",
      "outputs": [
        {
          "internalType": "uint256",
          "name": "",
          "type": "uint256"
        }
      ],
      "stateMutability": "view",
      "type": "function",
      "constant": true
    },
    {
      "inputs": [
        {
          "internalType": "uint256",
          "name": "tokenId",
          "type": "uint256"
        }
      ],
      "name": "getApproved",
      "outputs": [
        {
          "internalType": "address",
          "name": "",
          "type": "address"
        }
      ],
      "stateMutability": "view",
      "type": "function",
      "constant": true
    },
    {
      "inputs": [
        {
          "internalType": "address",
          "name": "owner",
          "type": "address"
        },
        {
          "internalType": "address",
          "name": "operator",
          "type": "address"
        }
      ],
      "name": "isApprovedForAll",
      "outputs": [
        {
          "internalType": "bool",
          "name": "",
          "type": "bool"
        }
      ],
      "stateMutability": "view",
      "type": "function",
      "constant": true
    },
    {
      "inputs": [],
      "name": "name",
      "outputs": [
        {
          "internalType": "string",
          "name": "",
          "type": "string"
        }
      ],
      "stateMutability": "view",
      "type": "function",
      "constant": true
    },
    {
      "inputs": [
        {
          "internalType": "uint256",
          "name": "tokenId",
          "type": "uint256"
        }
      ],
      "name": "ownerOf",
      "outputs": [
        {
          "internalType": "address",
          "name": "",
          "type": "address"
        }
      ],
      "stateMutability": "view",
      "type": "function",
      "constant": true
    },
    {
      "inputs": [
        {
          "internalType": "address",
          "name": "from",
          "type": "address"
        },
        {
          "internalType": "address",
          "name": "to",
          "type": "address"
        },
        {
          "internalType": "uint256",
          "name": "tokenId",
          "type": "uint256"
        }
      ],
      "name": "safeTransferFrom",
      "outputs": [],
      "stateMutability": "nonpayable",
      "type": "function"
    },
    {
      "inputs": [
        {
          "internalType": "address",
          "name": "from",
          "type": "address"
        },
        {
          "internalType": "address",
          "name": "to",
          "type": "address"
        },
        {
          "internalType": "uint256",
          "name": "tokenId",
          "type": "uint256"
        },
        {
          "internalType": "bytes",
          "name": "data",
          "type": "bytes"
        }
      ],
      "name": "safeTransferFrom",
      "outputs": [],
      "stateMutability": "nonpayable",
      "type": "function"
    },
    {
      "inputs": [
        {
          "internalType": "address",
          "name": "operator",
          "type": "address"
        },
        {
          "internalType": "bool",
          "name": "approved",
          "type": "bool"
        }
      ],
      "name": "setApprovalForAll",
      "outputs": [],
      "stateMutability": "nonpayable",
      "type": "function"
    },
    {
      "inputs": [
        {
          "internalType": "bytes4",
          "name": "interfaceId",
          "type": "bytes4"
        }
      ],
      "name": "supportsInterface",
      "outputs": [
        {
          "internalType": "bool",
          "name": "",
          "type": "bool"
        }
      ],
      "stateMutability": "view",
      "type": "function",
      "constant": true
    },
    {
      "inputs": [],
      "name": "symbol",
      "outputs": [
        {
          "internalType": "string",
          "name": "",
          "type": "string"
        }
      ],
      "stateMutability": "view",
      "type": "function",
      "constant": true
    },
    {
      "inputs": [
        {
          "internalType": "uint256",
          "name": "tokenId",
          "type": "uint256"
        }
      ],
      "name": "tokenURI",
      "outputs": [
        {
          "internalType": "string",
          "name": "",
          "type": "string"
        }
      ],
      "stateMutability": "view",
      "type": "function",
      "constant": true
    },
    {
      "inputs": [
        {
          "internalType": "address",
          "name": "from",
          "type": "address"
        },
        {
          "internalType": "address",
          "name": "to",
          "type": "address"
        },
        {
          "internalType": "uint256",
          "name": "tokenId",
          "type": "uint256"
        }
      ],
      "name": "transferFrom",
      "outputs": [],
      "stateMutability": "nonpayable",
      "type": "function"
    },
    {
      "inputs": [],
      "name": "setAdmin",
      "outputs": [],
      "stateMutability": "payable",
      "type": "function",
      "payable": true
    },
    {
      "inputs": [],
      "name": "getContractBalance",
      "outputs": [
        {
          "internalType": "uint256",
          "name": "",
          "type": "uint256"
        }
      ],
      "stateMutability": "view",
      "type": "function",
      "constant": true
    },
    {
      "inputs": [],
      "name": "getWalletBalance",
      "outputs": [
        {
          "internalType": "uint256",
          "name": "",
          "type": "uint256"
        }
      ],
      "stateMutability": "view",
      "type": "function",
      "constant": true
    },
    {
      "inputs": [],
      "name": "mint",
      "outputs": [],
      "stateMutability": "nonpayable",
      "type": "function"
    },
    {
      "inputs": [],
      "name": "getAllCardIds",
      "outputs": [
        {
          "internalType": "uint256[]",
          "name": "",
          "type": "uint256[]"
        }
      ],
      "stateMutability": "view",
      "type": "function",
      "constant": true
    },
    {
      "inputs": [
        {
          "internalType": "address",
          "name": "_owner",
          "type": "address"
        }
      ],
      "name": "getOwnCardIds",
      "outputs": [
        {
          "internalType": "uint256[]",
          "name": "",
          "type": "uint256[]"
        }
      ],
      "stateMutability": "view",
      "type": "function",
      "constant": true
    },
    {
      "inputs": [
        {
          "internalType": "address",
          "name": "_owner",
          "type": "address"
        }
      ],
      "name": "getOwnCollection",
      "outputs": [
        {
          "internalType": "uint256[]",
          "name": "",
          "type": "uint256[]"
        }
      ],
      "stateMutability": "view",
      "type": "function",
      "constant": true
    },
    {
      "inputs": [
        {
          "internalType": "uint256",
          "name": "_tokenId",
          "type": "uint256"
        },
        {
          "internalType": "uint256",
          "name": "price",
          "type": "uint256"
        }
      ],
      "name": "setPrice",
      "outputs": [
        {
          "internalType": "uint256",
          "name": "",
          "type": "uint256"
        }
      ],
      "stateMutability": "nonpayable",
      "type": "function"
    },
    {
      "inputs": [
        {
          "internalType": "uint256",
          "name": "_tokenId",
          "type": "uint256"
        }
      ],
      "name": "getTokenPrice",
      "outputs": [
        {
          "internalType": "uint256",
          "name": "",
          "type": "uint256"
        }
      ],
      "stateMutability": "view",
      "type": "function",
      "constant": true
    },
    {
      "inputs": [
        {
          "internalType": "uint256",
          "name": "_tokenId",
          "type": "uint256"
        }
      ],
      "name": "buyCard",
      "outputs": [],
      "stateMutability": "payable",
      "type": "function",
      "payable": true
    },
    {
      "inputs": [],
      "name": "takePromotionalCard",
      "outputs": [
        {
          "internalType": "uint256",
          "name": "",
          "type": "uint256"
        }
      ],
      "stateMutability": "payable",
      "type": "function",
      "payable": true
    },
    {
      "inputs": [],
      "name": "getContractEthBalance",
      "outputs": [
        {
          "internalType": "uint256",
          "name": "",
          "type": "uint256"
        }
      ],
      "stateMutability": "view",
      "type": "function",
      "constant": true
    },
    {
      "inputs": [
        {
          "internalType": "uint256",
          "name": "_tokenId",
          "type": "uint256"
        }
      ],
      "name": "sellCard",
      "outputs": [],
      "stateMutability": "payable",
      "type": "function",
      "payable": true
    },
    {
      "inputs": [],
      "name": "getPrices",
      "outputs": [
        {
          "internalType": "uint256[]",
          "name": "",
          "type": "uint256[]"
        }
      ],
      "stateMutability": "view",
      "type": "function",
      "constant": true
    }
  ],
  "bytecode": "0x608060405260016009553480156200001657600080fd5b506040518060400160405280600781526020017f54686520626169000000000000000000000000000000000000000000000000008152506040518060400160405280600381526020017f546865000000000000000000000000000000000000000000000000000000000081525081600090805190602001906200009b929190620000bd565b508060019080519060200190620000b4929190620000bd565b505050620001d1565b828054620000cb906200019c565b90600052602060002090601f016020900481019282620000ef57600085556200013b565b82601f106200010a57805160ff19168380011785556200013b565b828001600101855582156200013b579182015b828111156200013a5782518255916020019190600101906200011d565b5b5090506200014a91906200014e565b5090565b5b80821115620001695760008160009055506001016200014f565b5090565b7f4e487b7100000000000000000000000000000000000000000000000000000000600052602260045260246000fd5b60006002820490506001821680620001b557607f821691505b602082108103620001cb57620001ca6200016d565b5b50919050565b613e2180620001e16000396000f3fe60806040526004361061019c5760003560e01c80636f9fb98a116100ec578063c457fb371161008a578063e137285b11610064578063e137285b1461059f578063e985e9c5146105bd578063f7d97577146105fa578063f8f8bfd2146106375761019c565b8063c457fb3714610509578063c70f5eaa14610546578063c87b56dd146105625761019c565b806395d89b41116100c657806395d89b4114610461578063a22cb4651461048c578063b88d4fde146104b5578063bd9a548b146104de5761019c565b80636f9fb98a146103dd57806370a0823114610408578063871238e4146104455761019c565b80631249c58b11610159578063329a27e711610133578063329a27e71461032157806342842e0e1461034c5780634de57d75146103755780636352211e146103a05761019c565b80631249c58b146102d757806323b872dd146102ee5780632cae2096146103175761019c565b80630164c1db146101a157806301ffc9a7146101cc57806306fdde0314610209578063081812fc14610234578063095ea7b3146102715780630f5ed4501461029a575b600080fd5b3480156101ad57600080fd5b506101b6610674565b6040516101c39190612a05565b60405180910390f35b3480156101d857600080fd5b506101f360048036038101906101ee9190612a93565b61078e565b6040516102009190612adb565b60405180910390f35b34801561021557600080fd5b5061021e610870565b60405161022b9190612b8f565b60405180910390f35b34801561024057600080fd5b5061025b60048036038101906102569190612bdd565b610902565b6040516102689190612c4b565b60405180910390f35b34801561027d57600080fd5b5061029860048036038101906102939190612c92565b610948565b005b3480156102a657600080fd5b506102c160048036038101906102bc9190612cd2565b610a5f565b6040516102ce9190612a05565b60405180910390f35b3480156102e357600080fd5b506102ec610c1e565b005b3480156102fa57600080fd5b5061031560048036038101906103109190612cff565b610db7565b005b61031f610e17565b005b34801561032d57600080fd5b50610336610e5a565b6040516103439190612d61565b60405180910390f35b34801561035857600080fd5b50610373600480360381019061036e9190612cff565b610e79565b005b34801561038157600080fd5b5061038a610e99565b6040516103979190612d61565b60405180910390f35b3480156103ac57600080fd5b506103c760048036038101906103c29190612bdd565b610ea1565b6040516103d49190612c4b565b60405180910390f35b3480156103e957600080fd5b506103f2610f52565b6040516103ff9190612d61565b60405180910390f35b34801561041457600080fd5b5061042f600480360381019061042a9190612cd2565b610f5a565b60405161043c9190612d61565b60405180910390f35b61045f600480360381019061045a9190612bdd565b611011565b005b34801561046d57600080fd5b506104766111e4565b6040516104839190612b8f565b60405180910390f35b34801561049857600080fd5b506104b360048036038101906104ae9190612da8565b611276565b005b3480156104c157600080fd5b506104dc60048036038101906104d79190612f1d565b61128c565b005b3480156104ea57600080fd5b506104f36112ee565b6040516105009190612a05565b60405180910390f35b34801561051557600080fd5b50610530600480360381019061052b9190612bdd565b6113b6565b60405161053d9190612d61565b60405180910390f35b610560600480360381019061055b9190612bdd565b6113d3565b005b34801561056e57600080fd5b5061058960048036038101906105849190612bdd565b611543565b6040516105969190612b8f565b60405180910390f35b6105a76115ab565b6040516105b49190612d61565b60405180910390f35b3480156105c957600080fd5b506105e460048036038101906105df9190612fa0565b6117a1565b6040516105f19190612adb565b60405180910390f35b34801561060657600080fd5b50610621600480360381019061061c9190612fe0565b611835565b60405161062e9190612d61565b60405180910390f35b34801561064357600080fd5b5061065e60048036038101906106599190612cd2565b6118fb565b60405161066b9190612a05565b60405180910390f35b60606001600954116106d157600067ffffffffffffffff81111561069b5761069a612df2565b5b6040519080825280602002602001820160405280156106c95781602001602082028036833780820191505090505b50905061078b565b600060016009546106e2919061304f565b67ffffffffffffffff8111156106fb576106fa612df2565b5b6040519080825280602002602001820160405280156107295781602001602082028036833780820191505090505b50905060005b600160095461073e919061304f565b811015610785576001816107529190613083565b828281518110610765576107646130d9565b5b60200260200101818152505060018161077e9190613083565b905061072f565b81925050505b90565b60007f80ac58cd000000000000000000000000000000000000000000000000000000007bffffffffffffffffffffffffffffffffffffffffffffffffffffffff1916827bffffffffffffffffffffffffffffffffffffffffffffffffffffffff1916148061085957507f5b5e139f000000000000000000000000000000000000000000000000000000007bffffffffffffffffffffffffffffffffffffffffffffffffffffffff1916827bffffffffffffffffffffffffffffffffffffffffffffffffffffffff1916145b80610869575061086882611b52565b5b9050919050565b60606000805461087f90613137565b80601f01602080910402602001604051908101604052809291908181526020018280546108ab90613137565b80156108f85780601f106108cd576101008083540402835291602001916108f8565b820191906000526020600020905b8154815290600101906020018083116108db57829003601f168201915b5050505050905090565b600061090d82611bbc565b6004600083815260200190815260200160002060009054906101000a900473ffffffffffffffffffffffffffffffffffffffff169050919050565b600061095382610ea1565b90508073ffffffffffffffffffffffffffffffffffffffff168373ffffffffffffffffffffffffffffffffffffffff16036109c3576040517f08c379a00000000000000000000000000000000000000000000000000000000081526004016109ba906131da565b60405180910390fd5b8073ffffffffffffffffffffffffffffffffffffffff166109e2611c07565b73ffffffffffffffffffffffffffffffffffffffff161480610a115750610a1081610a0b611c07565b6117a1565b5b610a50576040517f08c379a0000000000000000000000000000000000000000000000000000000008152600401610a479061326c565b60405180910390fd5b610a5a8383611c0f565b505050565b60606000600860008473ffffffffffffffffffffffffffffffffffffffff1673ffffffffffffffffffffffffffffffffffffffff16815260200190815260200160002054905060008103610aff57600067ffffffffffffffff811115610ac857610ac7612df2565b5b604051908082528060200260200182016040528015610af65781602001602082028036833780820191505090505b50915050610c19565b60008167ffffffffffffffff811115610b1b57610b1a612df2565b5b604051908082528060200260200182016040528015610b495781602001602082028036833780820191505090505b50905060006001905060005b83811080610b64575060095482105b15610c11578573ffffffffffffffffffffffffffffffffffffffff166006600084815260200190815260200160002060009054906101000a900473ffffffffffffffffffffffffffffffffffffffff1673ffffffffffffffffffffffffffffffffffffffff1603610bfe5781838281518110610be357610be26130d9565b5b6020026020010181815250508080610bfa9061328c565b9150505b8180610c099061328c565b925050610b55565b829450505050505b919050565b600a60009054906101000a900473ffffffffffffffffffffffffffffffffffffffff1673ffffffffffffffffffffffffffffffffffffffff163373ffffffffffffffffffffffffffffffffffffffff1614610cae576040517f08c379a0000000000000000000000000000000000000000000000000000000008152600401610ca590613346565b60405180910390fd5b610cba33600954611cc8565b3360066000600954815260200190815260200160002060006101000a81548173ffffffffffffffffffffffffffffffffffffffff021916908373ffffffffffffffffffffffffffffffffffffffff1602179055506001600860003373ffffffffffffffffffffffffffffffffffffffff1673ffffffffffffffffffffffffffffffffffffffff16815260200190815260200160002054610d5a9190613083565b600860003373ffffffffffffffffffffffffffffffffffffffff1673ffffffffffffffffffffffffffffffffffffffff1681526020019081526020016000208190555060096000815480929190610db09061328c565b9190505550565b610dc8610dc2611c07565b82611ce6565b610e07576040517f08c379a0000000000000000000000000000000000000000000000000000000008152600401610dfe906133d8565b60405180910390fd5b610e12838383611d7b565b505050565b33600a60006101000a81548173ffffffffffffffffffffffffffffffffffffffff021916908373ffffffffffffffffffffffffffffffffffffffff160217905550565b60003373ffffffffffffffffffffffffffffffffffffffff1631905090565b610e948383836040518060200160405280600081525061128c565b505050565b600047905090565b6000806002600084815260200190815260200160002060009054906101000a900473ffffffffffffffffffffffffffffffffffffffff169050600073ffffffffffffffffffffffffffffffffffffffff168173ffffffffffffffffffffffffffffffffffffffff1603610f49576040517f08c379a0000000000000000000000000000000000000000000000000000000008152600401610f4090613444565b60405180910390fd5b80915050919050565b600047905090565b60008073ffffffffffffffffffffffffffffffffffffffff168273ffffffffffffffffffffffffffffffffffffffff1603610fca576040517f08c379a0000000000000000000000000000000000000000000000000000000008152600401610fc1906134d6565b60405180910390fd5b600360008373ffffffffffffffffffffffffffffffffffffffff1673ffffffffffffffffffffffffffffffffffffffff168152602001908152602001600020549050919050565b60006006600083815260200190815260200160002060009054906101000a900473ffffffffffffffffffffffffffffffffffffffff1690503373ffffffffffffffffffffffffffffffffffffffff168173ffffffffffffffffffffffffffffffffffffffff16146110b7576040517f08c379a00000000000000000000000000000000000000000000000000000000081526004016110ae90613568565b60405180910390fd5b600a60009054906101000a900473ffffffffffffffffffffffffffffffffffffffff1673ffffffffffffffffffffffffffffffffffffffff163373ffffffffffffffffffffffffffffffffffffffff1603611147576040517f08c379a000000000000000000000000000000000000000000000000000000000815260040161113e906135d4565b60405180910390fd5b6000600260076000858152602001908152602001600020546111699190613623565b905061119882600a60009054906101000a900473ffffffffffffffffffffffffffffffffffffffff1685611fe1565b8173ffffffffffffffffffffffffffffffffffffffff166108fc829081150290604051600060405180830381858888f193505050501580156111de573d6000803e3d6000fd5b50505050565b6060600180546111f390613137565b80601f016020809104026020016040519081016040528092919081815260200182805461121f90613137565b801561126c5780601f106112415761010080835404028352916020019161126c565b820191906000526020600020905b81548152906001019060200180831161124f57829003601f168201915b5050505050905090565b611288611281611c07565b83836121aa565b5050565b61129d611297611c07565b83611ce6565b6112dc576040517f08c379a00000000000000000000000000000000000000000000000000000000081526004016112d3906133d8565b60405180910390fd5b6112e884848484612316565b50505050565b606060006001600954611301919061304f565b67ffffffffffffffff81111561131a57611319612df2565b5b6040519080825280602002602001820160405280156113485781602001602082028036833780820191505090505b5090506000600190505b6009548110156113ae5760076000828152602001908152602001600020548260018361137e919061304f565b8151811061138f5761138e6130d9565b5b60200260200101818152505080806113a69061328c565b915050611352565b508091505090565b600060076000838152602001908152602001600020549050919050565b60006007600083815260200190815260200160002054905060006113f634612372565b60405160200161140691906136b6565b6040516020818303038152906040529050600061142283612372565b826040516020016114349291906136dc565b6040516020818303038152906040529050823414819061148a576040517f08c379a00000000000000000000000000000000000000000000000000000000081526004016114819190612b8f565b60405180910390fd5b5060006006600086815260200190815260200160002060009054906101000a900473ffffffffffffffffffffffffffffffffffffffff1690508073ffffffffffffffffffffffffffffffffffffffff163373ffffffffffffffffffffffffffffffffffffffff1603611531576040517f08c379a00000000000000000000000000000000000000000000000000000000081526004016115289061374c565b60405180910390fd5b61153c813387611fe1565b5050505050565b606061154e82611bbc565b60006115586124d2565b9050600081511161157857604051806020016040528060008152506115a3565b8061158284612372565b6040516020016115939291906136dc565b6040516020818303038152906040525b915050919050565b60008034146115ef576040517f08c379a00000000000000000000000000000000000000000000000000000000081526004016115e6906137de565b60405180910390fd5b600080600190505b6009548110156116a457600a60009054906101000a900473ffffffffffffffffffffffffffffffffffffffff1673ffffffffffffffffffffffffffffffffffffffff166006600083815260200190815260200160002060009054906101000a900473ffffffffffffffffffffffffffffffffffffffff1673ffffffffffffffffffffffffffffffffffffffff1603611691578091506116a4565b808061169c9061328c565b9150506115f7565b50600081036116e8576040517f08c379a00000000000000000000000000000000000000000000000000000000081526004016116df90613870565b60405180910390fd5b60006006600083815260200190815260200160002060009054906101000a900473ffffffffffffffffffffffffffffffffffffffff1690508073ffffffffffffffffffffffffffffffffffffffff163373ffffffffffffffffffffffffffffffffffffffff160361178e576040517f08c379a000000000000000000000000000000000000000000000000000000000815260040161178590613902565b60405180910390fd5b611799813384611fe1565b819250505090565b6000600560008473ffffffffffffffffffffffffffffffffffffffff1673ffffffffffffffffffffffffffffffffffffffff16815260200190815260200160002060008373ffffffffffffffffffffffffffffffffffffffff1673ffffffffffffffffffffffffffffffffffffffff16815260200190815260200160002060009054906101000a900460ff16905092915050565b6000600a60009054906101000a900473ffffffffffffffffffffffffffffffffffffffff1673ffffffffffffffffffffffffffffffffffffffff163373ffffffffffffffffffffffffffffffffffffffff16146118c7576040517f08c379a00000000000000000000000000000000000000000000000000000000081526004016118be90613994565b60405180910390fd5b8160076000858152602001908152602001600020819055506007600084815260200190815260200160002054905092915050565b60606000600860008473ffffffffffffffffffffffffffffffffffffffff1673ffffffffffffffffffffffffffffffffffffffff1681526020019081526020016000205490506000810361199b57600067ffffffffffffffff81111561196457611963612df2565b5b6040519080825280602002602001820160405280156119925781602001602082028036833780820191505090505b50915050611b4d565b60006119a684610a5f565b9050600561ffff1682116119be578092505050611b4d565b6000815190505b600561ffff16811115611a9557600081426119e091906139b4565b905060008190505b6001836119f5919061304f565b811015611a555783600182611a0a9190613083565b81518110611a1b57611a1a6130d9565b5b6020026020010151848281518110611a3657611a356130d9565b5b6020026020010181815250508080611a4d9061328c565b9150506119e8565b5082600183611a64919061304f565b81518110611a7557611a746130d9565b5b6020026020010160008152508180611a8c906139e5565b925050506119c5565b6000600561ffff1667ffffffffffffffff811115611ab657611ab5612df2565b5b604051908082528060200260200182016040528015611ae45781602001602082028036833780820191505090505b50905060005b600561ffff16811015611b4457838181518110611b0a57611b096130d9565b5b6020026020010151828281518110611b2557611b246130d9565b5b6020026020010181815250508080611b3c9061328c565b915050611aea565b50809450505050505b919050565b60007f01ffc9a7000000000000000000000000000000000000000000000000000000007bffffffffffffffffffffffffffffffffffffffffffffffffffffffff1916827bffffffffffffffffffffffffffffffffffffffffffffffffffffffff1916149050919050565b611bc5816124e9565b611c04576040517f08c379a0000000000000000000000000000000000000000000000000000000008152600401611bfb90613444565b60405180910390fd5b50565b600033905090565b816004600083815260200190815260200160002060006101000a81548173ffffffffffffffffffffffffffffffffffffffff021916908373ffffffffffffffffffffffffffffffffffffffff160217905550808273ffffffffffffffffffffffffffffffffffffffff16611c8283610ea1565b73ffffffffffffffffffffffffffffffffffffffff167f8c5be1e5ebec7d5bd14f71427d1e84f3dd0314c0f7b2291e5b200ac8c7c3b92560405160405180910390a45050565b611ce2828260405180602001604052806000815250612555565b5050565b600080611cf283610ea1565b90508073ffffffffffffffffffffffffffffffffffffffff168473ffffffffffffffffffffffffffffffffffffffff161480611d345750611d3381856117a1565b5b80611d7257508373ffffffffffffffffffffffffffffffffffffffff16611d5a84610902565b73ffffffffffffffffffffffffffffffffffffffff16145b91505092915050565b8273ffffffffffffffffffffffffffffffffffffffff16611d9b82610ea1565b73ffffffffffffffffffffffffffffffffffffffff1614611df1576040517f08c379a0000000000000000000000000000000000000000000000000000000008152600401611de890613a80565b60405180910390fd5b600073ffffffffffffffffffffffffffffffffffffffff168273ffffffffffffffffffffffffffffffffffffffff1603611e60576040517f08c379a0000000000000000000000000000000000000000000000000000000008152600401611e5790613b12565b60405180910390fd5b611e6b8383836125b0565b611e76600082611c0f565b6001600360008573ffffffffffffffffffffffffffffffffffffffff1673ffffffffffffffffffffffffffffffffffffffff1681526020019081526020016000206000828254611ec6919061304f565b925050819055506001600360008473ffffffffffffffffffffffffffffffffffffffff1673ffffffffffffffffffffffffffffffffffffffff1681526020019081526020016000206000828254611f1d9190613083565b92505081905550816002600083815260200190815260200160002060006101000a81548173ffffffffffffffffffffffffffffffffffffffff021916908373ffffffffffffffffffffffffffffffffffffffff160217905550808273ffffffffffffffffffffffffffffffffffffffff168473ffffffffffffffffffffffffffffffffffffffff167fddf252ad1be2c89b69c2b068fc378daa952ba7f163c4a11628f55a4df523b3ef60405160405180910390a4611fdc8383836125b5565b505050565b611fec838383611d7b565b816006600083815260200190815260200160002060006101000a81548173ffffffffffffffffffffffffffffffffffffffff021916908373ffffffffffffffffffffffffffffffffffffffff1602179055506001600860008473ffffffffffffffffffffffffffffffffffffffff1673ffffffffffffffffffffffffffffffffffffffff1681526020019081526020016000205461208a9190613083565b600860008473ffffffffffffffffffffffffffffffffffffffff1673ffffffffffffffffffffffffffffffffffffffff168152602001908152602001600020819055506000600860008573ffffffffffffffffffffffffffffffffffffffff1673ffffffffffffffffffffffffffffffffffffffff1681526020019081526020016000205411156121a5576001600860008573ffffffffffffffffffffffffffffffffffffffff1673ffffffffffffffffffffffffffffffffffffffff16815260200190815260200160002054612161919061304f565b600860008573ffffffffffffffffffffffffffffffffffffffff1673ffffffffffffffffffffffffffffffffffffffff168152602001908152602001600020819055505b505050565b8173ffffffffffffffffffffffffffffffffffffffff168373ffffffffffffffffffffffffffffffffffffffff1603612218576040517f08c379a000000000000000000000000000000000000000000000000000000000815260040161220f90613b7e565b60405180910390fd5b80600560008573ffffffffffffffffffffffffffffffffffffffff1673ffffffffffffffffffffffffffffffffffffffff16815260200190815260200160002060008473ffffffffffffffffffffffffffffffffffffffff1673ffffffffffffffffffffffffffffffffffffffff16815260200190815260200160002060006101000a81548160ff0219169083151502179055508173ffffffffffffffffffffffffffffffffffffffff168373ffffffffffffffffffffffffffffffffffffffff167f17307eab39ab6107e8899845ad3d59bd9653f200f220920489ca2b5937696c31836040516123099190612adb565b60405180910390a3505050565b612321848484611d7b565b61232d848484846125ba565b61236c576040517f08c379a000000000000000000000000000000000000000000000000000000000815260040161236390613c10565b60405180910390fd5b50505050565b6060600082036123b9576040518060400160405280600181526020017f300000000000000000000000000000000000000000000000000000000000000081525090506124cd565b600082905060005b600082146123eb5780806123d49061328c565b915050600a826123e49190613623565b91506123c1565b60008167ffffffffffffffff81111561240757612406612df2565b5b6040519080825280601f01601f1916602001820160405280156124395781602001600182028036833780820191505090505b5090505b600085146124c657600182612452919061304f565b9150600a8561246191906139b4565b603061246d9190613083565b60f81b818381518110612483576124826130d9565b5b60200101907effffffffffffffffffffffffffffffffffffffffffffffffffffffffffffff1916908160001a905350600a856124bf9190613623565b945061243d565b8093505050505b919050565b606060405180602001604052806000815250905090565b60008073ffffffffffffffffffffffffffffffffffffffff166002600084815260200190815260200160002060009054906101000a900473ffffffffffffffffffffffffffffffffffffffff1673ffffffffffffffffffffffffffffffffffffffff1614159050919050565b61255f8383612741565b61256c60008484846125ba565b6125ab576040517f08c379a00000000000000000000000000000000000000000000000000000000081526004016125a290613c10565b60405180910390fd5b505050565b505050565b505050565b60006125db8473ffffffffffffffffffffffffffffffffffffffff1661291a565b15612734578373ffffffffffffffffffffffffffffffffffffffff1663150b7a02612604611c07565b8786866040518563ffffffff1660e01b81526004016126269493929190613c85565b6020604051808303816000875af192505050801561266257506040513d601f19601f8201168201806040525081019061265f9190613ce6565b60015b6126e4573d8060008114612692576040519150601f19603f3d011682016040523d82523d6000602084013e612697565b606091505b5060008151036126dc576040517f08c379a00000000000000000000000000000000000000000000000000000000081526004016126d390613c10565b60405180910390fd5b805181602001fd5b63150b7a0260e01b7bffffffffffffffffffffffffffffffffffffffffffffffffffffffff1916817bffffffffffffffffffffffffffffffffffffffffffffffffffffffff191614915050612739565b600190505b949350505050565b600073ffffffffffffffffffffffffffffffffffffffff168273ffffffffffffffffffffffffffffffffffffffff16036127b0576040517f08c379a00000000000000000000000000000000000000000000000000000000081526004016127a790613d5f565b60405180910390fd5b6127b9816124e9565b156127f9576040517f08c379a00000000000000000000000000000000000000000000000000000000081526004016127f090613dcb565b60405180910390fd5b612805600083836125b0565b6001600360008473ffffffffffffffffffffffffffffffffffffffff1673ffffffffffffffffffffffffffffffffffffffff16815260200190815260200160002060008282546128559190613083565b92505081905550816002600083815260200190815260200160002060006101000a81548173ffffffffffffffffffffffffffffffffffffffff021916908373ffffffffffffffffffffffffffffffffffffffff160217905550808273ffffffffffffffffffffffffffffffffffffffff16600073ffffffffffffffffffffffffffffffffffffffff167fddf252ad1be2c89b69c2b068fc378daa952ba7f163c4a11628f55a4df523b3ef60405160405180910390a4612916600083836125b5565b5050565b6000808273ffffffffffffffffffffffffffffffffffffffff163b119050919050565b600081519050919050565b600082825260208201905092915050565b6000819050602082019050919050565b6000819050919050565b61297c81612969565b82525050565b600061298e8383612973565b60208301905092915050565b6000602082019050919050565b60006129b28261293d565b6129bc8185612948565b93506129c783612959565b8060005b838110156129f85781516129df8882612982565b97506129ea8361299a565b9250506001810190506129cb565b5085935050505092915050565b60006020820190508181036000830152612a1f81846129a7565b905092915050565b6000604051905090565b600080fd5b600080fd5b60007fffffffff0000000000000000000000000000000000000000000000000000000082169050919050565b612a7081612a3b565b8114612a7b57600080fd5b50565b600081359050612a8d81612a67565b92915050565b600060208284031215612aa957612aa8612a31565b5b6000612ab784828501612a7e565b91505092915050565b60008115159050919050565b612ad581612ac0565b82525050565b6000602082019050612af06000830184612acc565b92915050565b600081519050919050565b600082825260208201905092915050565b60005b83811015612b30578082015181840152602081019050612b15565b83811115612b3f576000848401525b50505050565b6000601f19601f8301169050919050565b6000612b6182612af6565b612b6b8185612b01565b9350612b7b818560208601612b12565b612b8481612b45565b840191505092915050565b60006020820190508181036000830152612ba98184612b56565b905092915050565b612bba81612969565b8114612bc557600080fd5b50565b600081359050612bd781612bb1565b92915050565b600060208284031215612bf357612bf2612a31565b5b6000612c0184828501612bc8565b91505092915050565b600073ffffffffffffffffffffffffffffffffffffffff82169050919050565b6000612c3582612c0a565b9050919050565b612c4581612c2a565b82525050565b6000602082019050612c606000830184612c3c565b92915050565b612c6f81612c2a565b8114612c7a57600080fd5b50565b600081359050612c8c81612c66565b92915050565b60008060408385031215612ca957612ca8612a31565b5b6000612cb785828601612c7d565b9250506020612cc885828601612bc8565b9150509250929050565b600060208284031215612ce857612ce7612a31565b5b6000612cf684828501612c7d565b91505092915050565b600080600060608486031215612d1857612d17612a31565b5b6000612d2686828701612c7d565b9350506020612d3786828701612c7d565b9250506040612d4886828701612bc8565b9150509250925092565b612d5b81612969565b82525050565b6000602082019050612d766000830184612d52565b92915050565b612d8581612ac0565b8114612d9057600080fd5b50565b600081359050612da281612d7c565b92915050565b60008060408385031215612dbf57612dbe612a31565b5b6000612dcd85828601612c7d565b9250506020612dde85828601612d93565b9150509250929050565b600080fd5b600080fd5b7f4e487b7100000000000000000000000000000000000000000000000000000000600052604160045260246000fd5b612e2a82612b45565b810181811067ffffffffffffffff82111715612e4957612e48612df2565b5b80604052505050565b6000612e5c612a27565b9050612e688282612e21565b919050565b600067ffffffffffffffff821115612e8857612e87612df2565b5b612e9182612b45565b9050602081019050919050565b82818337600083830152505050565b6000612ec0612ebb84612e6d565b612e52565b905082815260208101848484011115612edc57612edb612ded565b5b612ee7848285612e9e565b509392505050565b600082601f830112612f0457612f03612de8565b5b8135612f14848260208601612ead565b91505092915050565b60008060008060808587031215612f3757612f36612a31565b5b6000612f4587828801612c7d565b9450506020612f5687828801612c7d565b9350506040612f6787828801612bc8565b925050606085013567ffffffffffffffff811115612f8857612f87612a36565b5b612f9487828801612eef565b91505092959194509250565b60008060408385031215612fb757612fb6612a31565b5b6000612fc585828601612c7d565b9250506020612fd685828601612c7d565b9150509250929050565b60008060408385031215612ff757612ff6612a31565b5b600061300585828601612bc8565b925050602061301685828601612bc8565b9150509250929050565b7f4e487b7100000000000000000000000000000000000000000000000000000000600052601160045260246000fd5b600061305a82612969565b915061306583612969565b92508282101561307857613077613020565b5b828203905092915050565b600061308e82612969565b915061309983612969565b9250827fffffffffffffffffffffffffffffffffffffffffffffffffffffffffffffffff038211156130ce576130cd613020565b5b828201905092915050565b7f4e487b7100000000000000000000000000000000000000000000000000000000600052603260045260246000fd5b7f4e487b7100000000000000000000000000000000000000000000000000000000600052602260045260246000fd5b6000600282049050600182168061314f57607f821691505b60208210810361316257613161613108565b5b50919050565b7f4552433732313a20617070726f76616c20746f2063757272656e74206f776e6560008201527f7200000000000000000000000000000000000000000000000000000000000000602082015250565b60006131c4602183612b01565b91506131cf82613168565b604082019050919050565b600060208201905081810360008301526131f3816131b7565b9050919050565b7f4552433732313a20617070726f76652063616c6c6572206973206e6f7420746f60008201527f6b656e206f776e6572206e6f7220617070726f76656420666f7220616c6c0000602082015250565b6000613256603e83612b01565b9150613261826131fa565b604082019050919050565b6000602082019050818103600083015261328581613249565b9050919050565b600061329782612969565b91507fffffffffffffffffffffffffffffffffffffffffffffffffffffffffffffffff82036132c9576132c8613020565b5b600182019050919050565b7f6f6e6c792061646d696e206861766520746865207065726d697373696f6e207460008201527f6f206d696e740000000000000000000000000000000000000000000000000000602082015250565b6000613330602683612b01565b915061333b826132d4565b604082019050919050565b6000602082019050818103600083015261335f81613323565b9050919050565b7f4552433732313a2063616c6c6572206973206e6f7420746f6b656e206f776e6560008201527f72206e6f7220617070726f766564000000000000000000000000000000000000602082015250565b60006133c2602e83612b01565b91506133cd82613366565b604082019050919050565b600060208201905081810360008301526133f1816133b5565b9050919050565b7f4552433732313a20696e76616c696420746f6b656e2049440000000000000000600082015250565b600061342e601883612b01565b9150613439826133f8565b602082019050919050565b6000602082019050818103600083015261345d81613421565b9050919050565b7f4552433732313a2061646472657373207a65726f206973206e6f74206120766160008201527f6c6964206f776e65720000000000000000000000000000000000000000000000602082015250565b60006134c0602983612b01565b91506134cb82613464565b604082019050919050565b600060208201905081810360008301526134ef816134b3565b9050919050565b7f6f6e6c792063617264206f776e65722068617665207065726d697373696f6e2060008201527f746f2073656c6c20636172640000000000000000000000000000000000000000602082015250565b6000613552602c83612b01565b915061355d826134f6565b604082019050919050565b6000602082019050818103600083015261358181613545565b9050919050565b7f61646d696e20646f206e6f742073656c6c206361726400000000000000000000600082015250565b60006135be601683612b01565b91506135c982613588565b602082019050919050565b600060208201905081810360008301526135ed816135b1565b9050919050565b7f4e487b7100000000000000000000000000000000000000000000000000000000600052601260045260246000fd5b600061362e82612969565b915061363983612969565b925082613649576136486135f4565b5b828204905092915050565b7f207061796d656e74206d75737420626520657861637420000000000000000000815250565b600081905092915050565b600061369082612af6565b61369a818561367a565b93506136aa818560208601612b12565b80840191505092915050565b60006136c182613654565b6017820191506136d18284613685565b915081905092915050565b60006136e88285613685565b91506136f48284613685565b91508190509392505050565b7f796f752063616e6e6f742062757920796f7572206f776e20746f6b656e200000600082015250565b6000613736601e83612b01565b915061374182613700565b602082019050919050565b6000602082019050818103600083015261376581613729565b9050919050565b7f796f75206d757374206e6f742073656e642065746820746f20636f6e7472616360008201527f7400000000000000000000000000000000000000000000000000000000000000602082015250565b60006137c8602183612b01565b91506137d38261376c565b604082019050919050565b600060208201905081810360008301526137f7816137bb565b9050919050565b7f4e6f7420666f756e6420616e7920617661696c61626c65206361726420666f7260008201527f2070726f6d6f74696f6e616c20707572706f73652e0000000000000000000000602082015250565b600061385a603583612b01565b9150613865826137fe565b604082019050919050565b600060208201905081810360008301526138898161384d565b9050919050565b7f796f752063616e6e6f74207265636569766520796f7572206f776e20746f6b6560008201527f6e20000000000000000000000000000000000000000000000000000000000000602082015250565b60006138ec602283612b01565b91506138f782613890565b604082019050919050565b6000602082019050818103600083015261391b816138df565b9050919050565b7f796f75206d7573742061646d696e20746f2073657420746f6b656e207072696360008201527f6500000000000000000000000000000000000000000000000000000000000000602082015250565b600061397e602183612b01565b915061398982613922565b604082019050919050565b600060208201905081810360008301526139ad81613971565b9050919050565b60006139bf82612969565b91506139ca83612969565b9250826139da576139d96135f4565b5b828206905092915050565b60006139f082612969565b915060008203613a0357613a02613020565b5b600182039050919050565b7f4552433732313a207472616e736665722066726f6d20696e636f72726563742060008201527f6f776e6572000000000000000000000000000000000000000000000000000000602082015250565b6000613a6a602583612b01565b9150613a7582613a0e565b604082019050919050565b60006020820190508181036000830152613a9981613a5d565b9050919050565b7f4552433732313a207472616e7366657220746f20746865207a65726f2061646460008201527f7265737300000000000000000000000000000000000000000000000000000000602082015250565b6000613afc602483612b01565b9150613b0782613aa0565b604082019050919050565b60006020820190508181036000830152613b2b81613aef565b9050919050565b7f4552433732313a20617070726f766520746f2063616c6c657200000000000000600082015250565b6000613b68601983612b01565b9150613b7382613b32565b602082019050919050565b60006020820190508181036000830152613b9781613b5b565b9050919050565b7f4552433732313a207472616e7366657220746f206e6f6e20455243373231526560008201527f63656976657220696d706c656d656e7465720000000000000000000000000000602082015250565b6000613bfa603283612b01565b9150613c0582613b9e565b604082019050919050565b60006020820190508181036000830152613c2981613bed565b9050919050565b600081519050919050565b600082825260208201905092915050565b6000613c5782613c30565b613c618185613c3b565b9350613c71818560208601612b12565b613c7a81612b45565b840191505092915050565b6000608082019050613c9a6000830187612c3c565b613ca76020830186612c3c565b613cb46040830185612d52565b8181036060830152613cc68184613c4c565b905095945050505050565b600081519050613ce081612a67565b92915050565b600060208284031215613cfc57613cfb612a31565b5b6000613d0a84828501613cd1565b91505092915050565b7f4552433732313a206d696e7420746f20746865207a65726f2061646472657373600082015250565b6000613d49602083612b01565b9150613d5482613d13565b602082019050919050565b60006020820190508181036000830152613d7881613d3c565b9050919050565b7f4552433732313a20746f6b656e20616c7265616479206d696e74656400000000600082015250565b6000613db5601c83612b01565b9150613dc082613d7f565b602082019050919050565b60006020820190508181036000830152613de481613da8565b905091905056fea264697066735822122074d020564a355bb9f8e67234979f77edb56483cd6bb5770a66f376591e556eee64736f6c634300080e0033",
  "immutableReferences": {},
  "source": "pragma solidity ^0.8.1;\n\nimport \"../node_modules/@openzeppelin/contracts/token/ERC721/ERC721.sol\";\nimport \"../node_modules/@openzeppelin/contracts/utils/Strings.sol\";\n\ncontract Token is ERC721 {\n    using Strings for uint256;\n\n    // string public domain = \"localhost:8080\";\n\n    mapping(uint256 => address) internal cardToOwner;\n    mapping(uint256 => uint256) internal cardToPrice;\n    mapping(address => uint256) internal ownerCardCount;\n    uint256 nextId = 1;\n    uint16 internal constant CARD_PER_COLLECTION = 5;\n    address _admin;\n\n    constructor() ERC721(\"The bai\", \"The\") {}\n\n    function setAdmin() public payable {\n        // require(\n        //     msg.value == 50 ether,\n        //     \"you must deposit 50 eth to become admin\"\n        // );\n        _admin = msg.sender;\n    }\n\n    function getContractBalance() public view returns (uint256) {\n        return address(this).balance;\n    }\n\n    function getWalletBalance() public view returns (uint256) {\n        return address(msg.sender).balance;\n    }\n\n    function mint() public {\n        require(msg.sender == _admin, \"only admin have the permission to mint\");\n        _safeMint(msg.sender, nextId);\n\n        cardToOwner[nextId] = msg.sender;\n        ownerCardCount[msg.sender] = ownerCardCount[msg.sender] + 1;\n        nextId++;\n    }\n\n    function getAllCardIds() public view returns (uint256[] memory) {\n        if (nextId <= 1) {\n            return new uint256[](0);\n        }\n\n        uint256[] memory ids = new uint256[](nextId - 1);\n        uint256 i = 0;\n        while (i < nextId - 1) {\n            ids[i] = i + 1;\n            i = i + 1;\n        }\n\n        return ids;\n    }\n\n    function getOwnCardIds(address _owner)\n        public\n        view\n        returns (uint256[] memory)\n    {\n        uint256 ownerCount = ownerCardCount[_owner];\n        if (ownerCount == 0) {\n            return new uint256[](0);\n        }\n\n        uint256[] memory ids = new uint256[](ownerCount);\n        uint256 i = 1;\n        uint256 count = 0;\n        while (count < ownerCount || i < nextId) {\n            if (cardToOwner[i] == _owner) {\n                ids[count] = i;\n                count++;\n            }\n            i++;\n        }\n\n        return ids;\n    }\n\n    function getOwnCollection(address _owner)\n        public\n        view\n        returns (uint256[] memory)\n    {\n        uint256 ownerCount = ownerCardCount[_owner];\n        if (ownerCount == 0) {\n            return new uint256[](0);\n        }\n\n        uint256[] memory myCards = getOwnCardIds(_owner);\n\n        if (ownerCount <= CARD_PER_COLLECTION) {\n            return myCards;\n        }\n\n        uint256 cardsLength = myCards.length;\n        while (cardsLength > CARD_PER_COLLECTION) {\n            uint256 removeIndex = block.timestamp % cardsLength;\n\n            for (uint256 i = removeIndex; i < cardsLength - 1; i++) {\n                myCards[i] = myCards[i + 1];\n            }\n            delete myCards[cardsLength - 1];\n            cardsLength--;\n        }\n\n        uint256[] memory ids = new uint256[](CARD_PER_COLLECTION);\n        for (uint256 i = 0; i < CARD_PER_COLLECTION; i++) {\n            ids[i] = myCards[i];\n        }\n\n        return ids;\n    }\n\n    function setPrice(uint256 _tokenId, uint256 price)\n        public\n        returns (uint256)\n    {\n        require(msg.sender == _admin, \"you must admin to set token price\");\n\n        cardToPrice[_tokenId] = price;\n\n        return cardToPrice[_tokenId];\n    }\n\n    function getTokenPrice(uint256 _tokenId) public view returns (uint256) {\n        return cardToPrice[_tokenId];\n    }\n\n    function buyCard(uint256 _tokenId) external payable {\n        uint256 price = cardToPrice[_tokenId];\n\n        string memory s1 = string.concat(\n            \" payment must be exact \",\n            Strings.toString(msg.value)\n        );\n        string memory s2 = string.concat(Strings.toString(price), s1);\n        require(msg.value == price, s2);\n\n        address owner = cardToOwner[_tokenId];\n\n        require(msg.sender != owner, \"you cannot buy your own token \");\n\n        doTransfer(owner, msg.sender, _tokenId);\n    }\n\n    function takePromotionalCard() external payable returns (uint256) {\n        require(msg.value == 0, \"you must not send eth to contract\");\n\n        uint256 _tokenId = 0;\n        for (uint256 i = 1; i < nextId; i++) {\n            if (cardToOwner[i] == _admin) {\n                _tokenId = i;\n                break;\n            }\n        }\n\n        require(\n            _tokenId != 0,\n            \"Not found any available card for promotional purpose.\"\n        );\n\n        address owner = cardToOwner[_tokenId];\n\n        require(msg.sender != owner, \"you cannot receive your own token \");\n\n        doTransfer(owner, msg.sender, _tokenId);\n\n        return _tokenId;\n    }\n\n    function getContractEthBalance() public view returns (uint256) {\n        return address(this).balance;\n    }\n\n    function sellCard(uint256 _tokenId) external payable {\n        address owner = cardToOwner[_tokenId];\n        require(\n            owner == msg.sender,\n            \"only card owner have permission to sell card\"\n        );\n\n        require(msg.sender != _admin, \"admin do not sell card\");\n\n        uint256 sellPrice = cardToPrice[_tokenId] / 2;\n        doTransfer(owner, _admin, _tokenId);\n\n        payable(owner).transfer(sellPrice);\n    }\n\n    function doTransfer(\n        address owner,\n        address to,\n        uint256 _tokenId\n    ) private {\n        _transfer(owner, to, _tokenId);\n\n        cardToOwner[_tokenId] = to;\n        ownerCardCount[to] = ownerCardCount[to] + 1;\n        if (ownerCardCount[owner] > 0) {\n            ownerCardCount[owner] = ownerCardCount[owner] - 1;\n        }\n    }\n\n    function getPrices() public view returns (uint256[] memory) {\n        uint256[] memory prices = new uint256[](nextId - 1);\n\n        for (uint256 i = 1; i < nextId; i++) {\n            prices[i - 1] = cardToPrice[i];\n        }\n\n        return prices;\n    }\n}\n",
  "sourcePath": "/Users/hieudao/Documents/fork/NFT-GAME-Demo/smartcontract/contracts/Token.sol",
  "compiler": {
    "name": "solc",
    "version": "0.8.14+commit.80d49f37.Emscripten.clang"
  },
  "schemaVersion": "3.4.7",
  "updatedAt": "2022-07-01T13:02:42.735Z",
  "networkType": "ethereum",
  "devdoc": {
    "kind": "dev",
    "methods": {
      "approve(address,uint256)": {
        "details": "See {IERC721-approve}."
      },
      "balanceOf(address)": {
        "details": "See {IERC721-balanceOf}."
      },
      "getApproved(uint256)": {
        "details": "See {IERC721-getApproved}."
      },
      "isApprovedForAll(address,address)": {
        "details": "See {IERC721-isApprovedForAll}."
      },
      "name()": {
        "details": "See {IERC721Metadata-name}."
      },
      "ownerOf(uint256)": {
        "details": "See {IERC721-ownerOf}."
      },
      "safeTransferFrom(address,address,uint256)": {
        "details": "See {IERC721-safeTransferFrom}."
      },
      "safeTransferFrom(address,address,uint256,bytes)": {
        "details": "See {IERC721-safeTransferFrom}."
      },
      "setApprovalForAll(address,bool)": {
        "details": "See {IERC721-setApprovalForAll}."
      },
      "supportsInterface(bytes4)": {
        "details": "See {IERC165-supportsInterface}."
      },
      "symbol()": {
        "details": "See {IERC721Metadata-symbol}."
      },
      "tokenURI(uint256)": {
        "details": "See {IERC721Metadata-tokenURI}."
      },
      "transferFrom(address,address,uint256)": {
        "details": "See {IERC721-transferFrom}."
      }
    },
    "version": 1
  },
  "userdoc": {
    "kind": "user",
    "methods": {},
    "version": 1
  }
}