{
  "contractName": "Token",
  "abi": [
    {
      "inputs": [],
      "stateMutability": "nonpayable",
      "type": "constructor"
    },
    {
      "anonymous": false,
      "inputs": [
        {
          "indexed": true,
          "internalType": "address",
          "name": "owner",
          "type": "address"
        },
        {
          "indexed": true,
          "internalType": "address",
          "name": "approved",
          "type": "address"
        },
        {
          "indexed": true,
          "internalType": "uint256",
          "name": "tokenId",
          "type": "uint256"
        }
      ],
      "name": "Approval",
      "type": "event"
    },
    {
      "anonymous": false,
      "inputs": [
        {
          "indexed": true,
          "internalType": "address",
          "name": "owner",
          "type": "address"
        },
        {
          "indexed": true,
          "internalType": "address",
          "name": "operator",
          "type": "address"
        },
        {
          "indexed": false,
          "internalType": "bool",
          "name": "approved",
          "type": "bool"
        }
      ],
      "name": "ApprovalForAll",
      "type": "event"
    },
    {
      "anonymous": false,
      "inputs": [
        {
          "indexed": true,
          "internalType": "address",
          "name": "from",
          "type": "address"
        },
        {
          "indexed": true,
          "internalType": "address",
          "name": "to",
          "type": "address"
        },
        {
          "indexed": true,
          "internalType": "uint256",
          "name": "tokenId",
          "type": "uint256"
        }
      ],
      "name": "Transfer",
      "type": "event"
    },
    {
      "inputs": [
        {
          "internalType": "address",
          "name": "to",
          "type": "address"
        },
        {
          "internalType": "uint256",
          "name": "tokenId",
          "type": "uint256"
        }
      ],
      "name": "approve",
      "outputs": [],
      "stateMutability": "nonpayable",
      "type": "function"
    },
    {
      "inputs": [
        {
          "internalType": "address",
          "name": "owner",
          "type": "address"
        }
      ],
      "name": "balanceOf",
      "outputs": [
        {
          "internalType": "uint256",
          "name": "",
          "type": "uint256"
        }
      ],
      "stateMutability": "view",
      "type": "function",
      "constant": true
    },
    {
      "inputs": [
        {
          "internalType": "uint256",
          "name": "tokenId",
          "type": "uint256"
        }
      ],
      "name": "getApproved",
      "outputs": [
        {
          "internalType": "address",
          "name": "",
          "type": "address"
        }
      ],
      "stateMutability": "view",
      "type": "function",
      "constant": true
    },
    {
      "inputs": [
        {
          "internalType": "address",
          "name": "owner",
          "type": "address"
        },
        {
          "internalType": "address",
          "name": "operator",
          "type": "address"
        }
      ],
      "name": "isApprovedForAll",
      "outputs": [
        {
          "internalType": "bool",
          "name": "",
          "type": "bool"
        }
      ],
      "stateMutability": "view",
      "type": "function",
      "constant": true
    },
    {
      "inputs": [],
      "name": "name",
      "outputs": [
        {
          "internalType": "string",
          "name": "",
          "type": "string"
        }
      ],
      "stateMutability": "view",
      "type": "function",
      "constant": true
    },
    {
      "inputs": [
        {
          "internalType": "uint256",
          "name": "tokenId",
          "type": "uint256"
        }
      ],
      "name": "ownerOf",
      "outputs": [
        {
          "internalType": "address",
          "name": "",
          "type": "address"
        }
      ],
      "stateMutability": "view",
      "type": "function",
      "constant": true
    },
    {
      "inputs": [
        {
          "internalType": "address",
          "name": "from",
          "type": "address"
        },
        {
          "internalType": "address",
          "name": "to",
          "type": "address"
        },
        {
          "internalType": "uint256",
          "name": "tokenId",
          "type": "uint256"
        }
      ],
      "name": "safeTransferFrom",
      "outputs": [],
      "stateMutability": "nonpayable",
      "type": "function"
    },
    {
      "inputs": [
        {
          "internalType": "address",
          "name": "from",
          "type": "address"
        },
        {
          "internalType": "address",
          "name": "to",
          "type": "address"
        },
        {
          "internalType": "uint256",
          "name": "tokenId",
          "type": "uint256"
        },
        {
          "internalType": "bytes",
          "name": "_data",
          "type": "bytes"
        }
      ],
      "name": "safeTransferFrom",
      "outputs": [],
      "stateMutability": "nonpayable",
      "type": "function"
    },
    {
      "inputs": [
        {
          "internalType": "address",
          "name": "operator",
          "type": "address"
        },
        {
          "internalType": "bool",
          "name": "approved",
          "type": "bool"
        }
      ],
      "name": "setApprovalForAll",
      "outputs": [],
      "stateMutability": "nonpayable",
      "type": "function"
    },
    {
      "inputs": [
        {
          "internalType": "bytes4",
          "name": "interfaceId",
          "type": "bytes4"
        }
      ],
      "name": "supportsInterface",
      "outputs": [
        {
          "internalType": "bool",
          "name": "",
          "type": "bool"
        }
      ],
      "stateMutability": "view",
      "type": "function",
      "constant": true
    },
    {
      "inputs": [],
      "name": "symbol",
      "outputs": [
        {
          "internalType": "string",
          "name": "",
          "type": "string"
        }
      ],
      "stateMutability": "view",
      "type": "function",
      "constant": true
    },
    {
      "inputs": [
        {
          "internalType": "uint256",
          "name": "tokenId",
          "type": "uint256"
        }
      ],
      "name": "tokenURI",
      "outputs": [
        {
          "internalType": "string",
          "name": "",
          "type": "string"
        }
      ],
      "stateMutability": "view",
      "type": "function",
      "constant": true
    },
    {
      "inputs": [
        {
          "internalType": "address",
          "name": "from",
          "type": "address"
        },
        {
          "internalType": "address",
          "name": "to",
          "type": "address"
        },
        {
          "internalType": "uint256",
          "name": "tokenId",
          "type": "uint256"
        }
      ],
      "name": "transferFrom",
      "outputs": [],
      "stateMutability": "nonpayable",
      "type": "function"
    },
    {
      "inputs": [],
      "name": "getContractBalance",
      "outputs": [
        {
          "internalType": "uint256",
          "name": "",
          "type": "uint256"
        }
      ],
      "stateMutability": "view",
      "type": "function",
      "constant": true
    },
    {
      "inputs": [],
      "name": "getWalletBalance",
      "outputs": [
        {
          "internalType": "uint256",
          "name": "",
          "type": "uint256"
        }
      ],
      "stateMutability": "view",
      "type": "function",
      "constant": true
    },
    {
      "inputs": [],
      "name": "mint",
      "outputs": [],
      "stateMutability": "nonpayable",
      "type": "function"
    },
    {
      "inputs": [],
      "name": "getAllCardIds",
      "outputs": [
        {
          "internalType": "uint256[]",
          "name": "",
          "type": "uint256[]"
        }
      ],
      "stateMutability": "view",
      "type": "function",
      "constant": true
    },
    {
      "inputs": [
        {
          "internalType": "address",
          "name": "_owner",
          "type": "address"
        }
      ],
      "name": "getOwnCardIds",
      "outputs": [
        {
          "internalType": "uint256[]",
          "name": "",
          "type": "uint256[]"
        }
      ],
      "stateMutability": "view",
      "type": "function",
      "constant": true
    },
    {
      "inputs": [
        {
          "internalType": "address",
          "name": "_owner",
          "type": "address"
        }
      ],
      "name": "getOwnCollection",
      "outputs": [
        {
          "internalType": "uint256[]",
          "name": "",
          "type": "uint256[]"
        }
      ],
      "stateMutability": "view",
      "type": "function",
      "constant": true
    },
    {
      "inputs": [
        {
          "internalType": "uint256",
          "name": "_tokenId",
          "type": "uint256"
        },
        {
          "internalType": "uint256",
          "name": "price",
          "type": "uint256"
        }
      ],
      "name": "setPrice",
      "outputs": [],
      "stateMutability": "nonpayable",
      "type": "function"
    },
    {
      "inputs": [
        {
          "internalType": "uint256",
          "name": "_tokenId",
          "type": "uint256"
        }
      ],
      "name": "getTokenPrice",
      "outputs": [
        {
          "internalType": "uint256",
          "name": "",
          "type": "uint256"
        }
      ],
      "stateMutability": "view",
      "type": "function",
      "constant": true
    },
    {
      "inputs": [],
      "name": "buyCard",
      "outputs": [],
      "stateMutability": "payable",
      "type": "function",
      "payable": true
    },
    {
      "inputs": [],
      "name": "getContractEthBalance",
      "outputs": [
        {
          "internalType": "uint256",
          "name": "",
          "type": "uint256"
        }
      ],
      "stateMutability": "view",
      "type": "function",
      "constant": true
    }
  ],
  "bytecode": "0x608060405260016009553480156200001657600080fd5b506040518060400160405280600781526020017f54686520626169000000000000000000000000000000000000000000000000008152506040518060400160405280600381526020017f546865000000000000000000000000000000000000000000000000000000000081525081600090805190602001906200009b929190620000bd565b508060019080519060200190620000b4929190620000bd565b505050620001d1565b828054620000cb906200019c565b90600052602060002090601f016020900481019282620000ef57600085556200013b565b82601f106200010a57805160ff19168380011785556200013b565b828001600101855582156200013b579182015b828111156200013a5782518255916020019190600101906200011d565b5b5090506200014a91906200014e565b5090565b5b80821115620001695760008160009055506001016200014f565b5090565b7f4e487b7100000000000000000000000000000000000000000000000000000000600052602260045260246000fd5b60006002820490506001821680620001b557607f821691505b602082108103620001cb57620001ca6200016d565b5b50919050565b61350380620001e16000396000f3fe6080604052600436106101405760003560e01c80636352211e116100b6578063bdc0779a1161006f578063bdc0779a1461045c578063c457fb3714610466578063c87b56dd146104a3578063e985e9c5146104e0578063f7d975771461051d578063f8f8bfd21461054657610140565b80636352211e1461033a5780636f9fb98a1461037757806370a08231146103a257806395d89b41146103df578063a22cb4651461040a578063b88d4fde1461043357610140565b80630f5ed450116101085780630f5ed4501461023e5780631249c58b1461027b57806323b872dd14610292578063329a27e7146102bb57806342842e0e146102e65780634de57d751461030f57610140565b80630164c1db1461014557806301ffc9a71461017057806306fdde03146101ad578063081812fc146101d8578063095ea7b314610215575b600080fd5b34801561015157600080fd5b5061015a610583565b6040516101679190612309565b60405180910390f35b34801561017c57600080fd5b5061019760048036038101906101929190612397565b61069d565b6040516101a491906123df565b60405180910390f35b3480156101b957600080fd5b506101c261077f565b6040516101cf9190612493565b60405180910390f35b3480156101e457600080fd5b506101ff60048036038101906101fa91906124e1565b610811565b60405161020c919061254f565b60405180910390f35b34801561022157600080fd5b5061023c60048036038101906102379190612596565b610896565b005b34801561024a57600080fd5b50610265600480360381019061026091906125d6565b6109ad565b6040516102729190612309565b60405180910390f35b34801561028757600080fd5b50610290610b6c565b005b34801561029e57600080fd5b506102b960048036038101906102b49190612603565b610c75565b005b3480156102c757600080fd5b506102d0610cd5565b6040516102dd9190612665565b60405180910390f35b3480156102f257600080fd5b5061030d60048036038101906103089190612603565b610cf4565b005b34801561031b57600080fd5b50610324610d14565b6040516103319190612665565b60405180910390f35b34801561034657600080fd5b50610361600480360381019061035c91906124e1565b610d1c565b60405161036e919061254f565b60405180910390f35b34801561038357600080fd5b5061038c610dcd565b6040516103999190612665565b60405180910390f35b3480156103ae57600080fd5b506103c960048036038101906103c491906125d6565b610dd5565b6040516103d69190612665565b60405180910390f35b3480156103eb57600080fd5b506103f4610e8c565b6040516104019190612493565b60405180910390f35b34801561041657600080fd5b50610431600480360381019061042c91906126ac565b610f1e565b005b34801561043f57600080fd5b5061045a60048036038101906104559190612821565b610f34565b005b610464610f96565b005b34801561047257600080fd5b5061048d600480360381019061048891906124e1565b6111b5565b60405161049a9190612665565b60405180910390f35b3480156104af57600080fd5b506104ca60048036038101906104c591906124e1565b6111d2565b6040516104d79190612493565b60405180910390f35b3480156104ec57600080fd5b50610507600480360381019061050291906128a4565b611279565b60405161051491906123df565b60405180910390f35b34801561052957600080fd5b50610544600480360381019061053f91906128e4565b61130d565b005b34801561055257600080fd5b5061056d600480360381019061056891906125d6565b6113ca565b60405161057a9190612309565b60405180910390f35b60606001600954116105e057600067ffffffffffffffff8111156105aa576105a96126f6565b5b6040519080825280602002602001820160405280156105d85781602001602082028036833780820191505090505b50905061069a565b600060016009546105f19190612953565b67ffffffffffffffff81111561060a576106096126f6565b5b6040519080825280602002602001820160405280156106385781602001602082028036833780820191505090505b50905060005b600160095461064d9190612953565b811015610694576001816106619190612987565b828281518110610674576106736129dd565b5b60200260200101818152505060018161068d9190612987565b905061063e565b81925050505b90565b60007f80ac58cd000000000000000000000000000000000000000000000000000000007bffffffffffffffffffffffffffffffffffffffffffffffffffffffff1916827bffffffffffffffffffffffffffffffffffffffffffffffffffffffff1916148061076857507f5b5e139f000000000000000000000000000000000000000000000000000000007bffffffffffffffffffffffffffffffffffffffffffffffffffffffff1916827bffffffffffffffffffffffffffffffffffffffffffffffffffffffff1916145b80610778575061077782611621565b5b9050919050565b60606000805461078e90612a3b565b80601f01602080910402602001604051908101604052809291908181526020018280546107ba90612a3b565b80156108075780601f106107dc57610100808354040283529160200191610807565b820191906000526020600020905b8154815290600101906020018083116107ea57829003601f168201915b5050505050905090565b600061081c8261168b565b61085b576040517f08c379a000000000000000000000000000000000000000000000000000000000815260040161085290612ade565b60405180910390fd5b6004600083815260200190815260200160002060009054906101000a900473ffffffffffffffffffffffffffffffffffffffff169050919050565b60006108a182610d1c565b90508073ffffffffffffffffffffffffffffffffffffffff168373ffffffffffffffffffffffffffffffffffffffff1603610911576040517f08c379a000000000000000000000000000000000000000000000000000000000815260040161090890612b70565b60405180910390fd5b8073ffffffffffffffffffffffffffffffffffffffff166109306116f7565b73ffffffffffffffffffffffffffffffffffffffff16148061095f575061095e816109596116f7565b611279565b5b61099e576040517f08c379a000000000000000000000000000000000000000000000000000000000815260040161099590612c02565b60405180910390fd5b6109a883836116ff565b505050565b60606000600860008473ffffffffffffffffffffffffffffffffffffffff1673ffffffffffffffffffffffffffffffffffffffff16815260200190815260200160002054905060008103610a4d57600067ffffffffffffffff811115610a1657610a156126f6565b5b604051908082528060200260200182016040528015610a445781602001602082028036833780820191505090505b50915050610b67565b60008167ffffffffffffffff811115610a6957610a686126f6565b5b604051908082528060200260200182016040528015610a975781602001602082028036833780820191505090505b50905060006001905060005b83811080610ab2575060095482105b15610b5f578573ffffffffffffffffffffffffffffffffffffffff166006600084815260200190815260200160002060009054906101000a900473ffffffffffffffffffffffffffffffffffffffff1673ffffffffffffffffffffffffffffffffffffffff1603610b4c5781838281518110610b3157610b306129dd565b5b6020026020010181815250508080610b4890612c22565b9150505b8180610b5790612c22565b925050610aa3565b829450505050505b919050565b610b78336009546117b8565b3360066000600954815260200190815260200160002060006101000a81548173ffffffffffffffffffffffffffffffffffffffff021916908373ffffffffffffffffffffffffffffffffffffffff1602179055506001600860003373ffffffffffffffffffffffffffffffffffffffff1673ffffffffffffffffffffffffffffffffffffffff16815260200190815260200160002054610c189190612987565b600860003373ffffffffffffffffffffffffffffffffffffffff1673ffffffffffffffffffffffffffffffffffffffff1681526020019081526020016000208190555060096000815480929190610c6e90612c22565b9190505550565b610c86610c806116f7565b826117d6565b610cc5576040517f08c379a0000000000000000000000000000000000000000000000000000000008152600401610cbc90612cdc565b60405180910390fd5b610cd08383836118b4565b505050565b60003373ffffffffffffffffffffffffffffffffffffffff1631905090565b610d0f83838360405180602001604052806000815250610f34565b505050565b600047905090565b6000806002600084815260200190815260200160002060009054906101000a900473ffffffffffffffffffffffffffffffffffffffff169050600073ffffffffffffffffffffffffffffffffffffffff168173ffffffffffffffffffffffffffffffffffffffff1603610dc4576040517f08c379a0000000000000000000000000000000000000000000000000000000008152600401610dbb90612d6e565b60405180910390fd5b80915050919050565b600047905090565b60008073ffffffffffffffffffffffffffffffffffffffff168273ffffffffffffffffffffffffffffffffffffffff1603610e45576040517f08c379a0000000000000000000000000000000000000000000000000000000008152600401610e3c90612e00565b60405180910390fd5b600360008373ffffffffffffffffffffffffffffffffffffffff1673ffffffffffffffffffffffffffffffffffffffff168152602001908152602001600020549050919050565b606060018054610e9b90612a3b565b80601f0160208091040260200160405190810160405280929190818152602001828054610ec790612a3b565b8015610f145780601f10610ee957610100808354040283529160200191610f14565b820191906000526020600020905b815481529060010190602001808311610ef757829003601f168201915b5050505050905090565b610f30610f296116f7565b8383611b1a565b5050565b610f45610f3f6116f7565b836117d6565b610f84576040517f08c379a0000000000000000000000000000000000000000000000000000000008152600401610f7b90612cdc565b60405180910390fd5b610f9084848484611c86565b50505050565b60006001905060006007600083815260200190815260200160002054905060006006600084815260200190815260200160002060009054906101000a900473ffffffffffffffffffffffffffffffffffffffff169050610ff78133856118b4565b336006600085815260200190815260200160002060006101000a81548173ffffffffffffffffffffffffffffffffffffffff021916908373ffffffffffffffffffffffffffffffffffffffff1602179055506001600860003373ffffffffffffffffffffffffffffffffffffffff1673ffffffffffffffffffffffffffffffffffffffff168152602001908152602001600020546110959190612987565b600860003373ffffffffffffffffffffffffffffffffffffffff1673ffffffffffffffffffffffffffffffffffffffff168152602001908152602001600020819055506000600860008373ffffffffffffffffffffffffffffffffffffffff1673ffffffffffffffffffffffffffffffffffffffff1681526020019081526020016000205411156111b0576001600860008373ffffffffffffffffffffffffffffffffffffffff1673ffffffffffffffffffffffffffffffffffffffff1681526020019081526020016000205461116c9190612953565b600860008373ffffffffffffffffffffffffffffffffffffffff1673ffffffffffffffffffffffffffffffffffffffff168152602001908152602001600020819055505b505050565b600060076000838152602001908152602001600020549050919050565b60606111dd8261168b565b61121c576040517f08c379a000000000000000000000000000000000000000000000000000000000815260040161121390612e92565b60405180910390fd5b6000611226611ce2565b905060008151116112465760405180602001604052806000815250611271565b8061125084611cf9565b604051602001611261929190612eee565b6040516020818303038152906040525b915050919050565b6000600560008473ffffffffffffffffffffffffffffffffffffffff1673ffffffffffffffffffffffffffffffffffffffff16815260200190815260200160002060008373ffffffffffffffffffffffffffffffffffffffff1673ffffffffffffffffffffffffffffffffffffffff16815260200190815260200160002060009054906101000a900460ff16905092915050565b6006600083815260200190815260200160002060009054906101000a900473ffffffffffffffffffffffffffffffffffffffff1673ffffffffffffffffffffffffffffffffffffffff163373ffffffffffffffffffffffffffffffffffffffff16146113ae576040517f08c379a00000000000000000000000000000000000000000000000000000000081526004016113a590612f84565b60405180910390fd5b8060076000848152602001908152602001600020819055505050565b60606000600860008473ffffffffffffffffffffffffffffffffffffffff1673ffffffffffffffffffffffffffffffffffffffff1681526020019081526020016000205490506000810361146a57600067ffffffffffffffff811115611433576114326126f6565b5b6040519080825280602002602001820160405280156114615781602001602082028036833780820191505090505b5091505061161c565b6000611475846109ad565b9050600561ffff16821161148d57809250505061161c565b6000815190505b600561ffff1681111561156457600081426114af9190612fd3565b905060008190505b6001836114c49190612953565b81101561152457836001826114d99190612987565b815181106114ea576114e96129dd565b5b6020026020010151848281518110611505576115046129dd565b5b602002602001018181525050808061151c90612c22565b9150506114b7565b50826001836115339190612953565b81518110611544576115436129dd565b5b602002602001016000815250818061155b90613004565b92505050611494565b6000600561ffff1667ffffffffffffffff811115611585576115846126f6565b5b6040519080825280602002602001820160405280156115b35781602001602082028036833780820191505090505b50905060005b600561ffff16811015611613578381815181106115d9576115d86129dd565b5b60200260200101518282815181106115f4576115f36129dd565b5b602002602001018181525050808061160b90612c22565b9150506115b9565b50809450505050505b919050565b60007f01ffc9a7000000000000000000000000000000000000000000000000000000007bffffffffffffffffffffffffffffffffffffffffffffffffffffffff1916827bffffffffffffffffffffffffffffffffffffffffffffffffffffffff1916149050919050565b60008073ffffffffffffffffffffffffffffffffffffffff166002600084815260200190815260200160002060009054906101000a900473ffffffffffffffffffffffffffffffffffffffff1673ffffffffffffffffffffffffffffffffffffffff1614159050919050565b600033905090565b816004600083815260200190815260200160002060006101000a81548173ffffffffffffffffffffffffffffffffffffffff021916908373ffffffffffffffffffffffffffffffffffffffff160217905550808273ffffffffffffffffffffffffffffffffffffffff1661177283610d1c565b73ffffffffffffffffffffffffffffffffffffffff167f8c5be1e5ebec7d5bd14f71427d1e84f3dd0314c0f7b2291e5b200ac8c7c3b92560405160405180910390a45050565b6117d2828260405180602001604052806000815250611e59565b5050565b60006117e18261168b565b611820576040517f08c379a00000000000000000000000000000000000000000000000000000000081526004016118179061309f565b60405180910390fd5b600061182b83610d1c565b90508073ffffffffffffffffffffffffffffffffffffffff168473ffffffffffffffffffffffffffffffffffffffff16148061186d575061186c8185611279565b5b806118ab57508373ffffffffffffffffffffffffffffffffffffffff1661189384610811565b73ffffffffffffffffffffffffffffffffffffffff16145b91505092915050565b8273ffffffffffffffffffffffffffffffffffffffff166118d482610d1c565b73ffffffffffffffffffffffffffffffffffffffff161461192a576040517f08c379a000000000000000000000000000000000000000000000000000000000815260040161192190613131565b60405180910390fd5b600073ffffffffffffffffffffffffffffffffffffffff168273ffffffffffffffffffffffffffffffffffffffff1603611999576040517f08c379a0000000000000000000000000000000000000000000000000000000008152600401611990906131c3565b60405180910390fd5b6119a4838383611eb4565b6119af6000826116ff565b6001600360008573ffffffffffffffffffffffffffffffffffffffff1673ffffffffffffffffffffffffffffffffffffffff16815260200190815260200160002060008282546119ff9190612953565b925050819055506001600360008473ffffffffffffffffffffffffffffffffffffffff1673ffffffffffffffffffffffffffffffffffffffff1681526020019081526020016000206000828254611a569190612987565b92505081905550816002600083815260200190815260200160002060006101000a81548173ffffffffffffffffffffffffffffffffffffffff021916908373ffffffffffffffffffffffffffffffffffffffff160217905550808273ffffffffffffffffffffffffffffffffffffffff168473ffffffffffffffffffffffffffffffffffffffff167fddf252ad1be2c89b69c2b068fc378daa952ba7f163c4a11628f55a4df523b3ef60405160405180910390a4611b15838383611eb9565b505050565b8173ffffffffffffffffffffffffffffffffffffffff168373ffffffffffffffffffffffffffffffffffffffff1603611b88576040517f08c379a0000000000000000000000000000000000000000000000000000000008152600401611b7f9061322f565b60405180910390fd5b80600560008573ffffffffffffffffffffffffffffffffffffffff1673ffffffffffffffffffffffffffffffffffffffff16815260200190815260200160002060008473ffffffffffffffffffffffffffffffffffffffff1673ffffffffffffffffffffffffffffffffffffffff16815260200190815260200160002060006101000a81548160ff0219169083151502179055508173ffffffffffffffffffffffffffffffffffffffff168373ffffffffffffffffffffffffffffffffffffffff167f17307eab39ab6107e8899845ad3d59bd9653f200f220920489ca2b5937696c3183604051611c7991906123df565b60405180910390a3505050565b611c918484846118b4565b611c9d84848484611ebe565b611cdc576040517f08c379a0000000000000000000000000000000000000000000000000000000008152600401611cd3906132c1565b60405180910390fd5b50505050565b606060405180602001604052806000815250905090565b606060008203611d40576040518060400160405280600181526020017f30000000000000000000000000000000000000000000000000000000000000008152509050611e54565b600082905060005b60008214611d72578080611d5b90612c22565b915050600a82611d6b91906132e1565b9150611d48565b60008167ffffffffffffffff811115611d8e57611d8d6126f6565b5b6040519080825280601f01601f191660200182016040528015611dc05781602001600182028036833780820191505090505b5090505b60008514611e4d57600182611dd99190612953565b9150600a85611de89190612fd3565b6030611df49190612987565b60f81b818381518110611e0a57611e096129dd565b5b60200101907effffffffffffffffffffffffffffffffffffffffffffffffffffffffffffff1916908160001a905350600a85611e4691906132e1565b9450611dc4565b8093505050505b919050565b611e638383612045565b611e706000848484611ebe565b611eaf576040517f08c379a0000000000000000000000000000000000000000000000000000000008152600401611ea6906132c1565b60405180910390fd5b505050565b505050565b505050565b6000611edf8473ffffffffffffffffffffffffffffffffffffffff1661221e565b15612038578373ffffffffffffffffffffffffffffffffffffffff1663150b7a02611f086116f7565b8786866040518563ffffffff1660e01b8152600401611f2a9493929190613367565b6020604051808303816000875af1925050508015611f6657506040513d601f19601f82011682018060405250810190611f6391906133c8565b60015b611fe8573d8060008114611f96576040519150601f19603f3d011682016040523d82523d6000602084013e611f9b565b606091505b506000815103611fe0576040517f08c379a0000000000000000000000000000000000000000000000000000000008152600401611fd7906132c1565b60405180910390fd5b805181602001fd5b63150b7a0260e01b7bffffffffffffffffffffffffffffffffffffffffffffffffffffffff1916817bffffffffffffffffffffffffffffffffffffffffffffffffffffffff19161491505061203d565b600190505b949350505050565b600073ffffffffffffffffffffffffffffffffffffffff168273ffffffffffffffffffffffffffffffffffffffff16036120b4576040517f08c379a00000000000000000000000000000000000000000000000000000000081526004016120ab90613441565b60405180910390fd5b6120bd8161168b565b156120fd576040517f08c379a00000000000000000000000000000000000000000000000000000000081526004016120f4906134ad565b60405180910390fd5b61210960008383611eb4565b6001600360008473ffffffffffffffffffffffffffffffffffffffff1673ffffffffffffffffffffffffffffffffffffffff16815260200190815260200160002060008282546121599190612987565b92505081905550816002600083815260200190815260200160002060006101000a81548173ffffffffffffffffffffffffffffffffffffffff021916908373ffffffffffffffffffffffffffffffffffffffff160217905550808273ffffffffffffffffffffffffffffffffffffffff16600073ffffffffffffffffffffffffffffffffffffffff167fddf252ad1be2c89b69c2b068fc378daa952ba7f163c4a11628f55a4df523b3ef60405160405180910390a461221a60008383611eb9565b5050565b6000808273ffffffffffffffffffffffffffffffffffffffff163b119050919050565b600081519050919050565b600082825260208201905092915050565b6000819050602082019050919050565b6000819050919050565b6122808161226d565b82525050565b60006122928383612277565b60208301905092915050565b6000602082019050919050565b60006122b682612241565b6122c0818561224c565b93506122cb8361225d565b8060005b838110156122fc5781516122e38882612286565b97506122ee8361229e565b9250506001810190506122cf565b5085935050505092915050565b6000602082019050818103600083015261232381846122ab565b905092915050565b6000604051905090565b600080fd5b600080fd5b60007fffffffff0000000000000000000000000000000000000000000000000000000082169050919050565b6123748161233f565b811461237f57600080fd5b50565b6000813590506123918161236b565b92915050565b6000602082840312156123ad576123ac612335565b5b60006123bb84828501612382565b91505092915050565b60008115159050919050565b6123d9816123c4565b82525050565b60006020820190506123f460008301846123d0565b92915050565b600081519050919050565b600082825260208201905092915050565b60005b83811015612434578082015181840152602081019050612419565b83811115612443576000848401525b50505050565b6000601f19601f8301169050919050565b6000612465826123fa565b61246f8185612405565b935061247f818560208601612416565b61248881612449565b840191505092915050565b600060208201905081810360008301526124ad818461245a565b905092915050565b6124be8161226d565b81146124c957600080fd5b50565b6000813590506124db816124b5565b92915050565b6000602082840312156124f7576124f6612335565b5b6000612505848285016124cc565b91505092915050565b600073ffffffffffffffffffffffffffffffffffffffff82169050919050565b60006125398261250e565b9050919050565b6125498161252e565b82525050565b60006020820190506125646000830184612540565b92915050565b6125738161252e565b811461257e57600080fd5b50565b6000813590506125908161256a565b92915050565b600080604083850312156125ad576125ac612335565b5b60006125bb85828601612581565b92505060206125cc858286016124cc565b9150509250929050565b6000602082840312156125ec576125eb612335565b5b60006125fa84828501612581565b91505092915050565b60008060006060848603121561261c5761261b612335565b5b600061262a86828701612581565b935050602061263b86828701612581565b925050604061264c868287016124cc565b9150509250925092565b61265f8161226d565b82525050565b600060208201905061267a6000830184612656565b92915050565b612689816123c4565b811461269457600080fd5b50565b6000813590506126a681612680565b92915050565b600080604083850312156126c3576126c2612335565b5b60006126d185828601612581565b92505060206126e285828601612697565b9150509250929050565b600080fd5b600080fd5b7f4e487b7100000000000000000000000000000000000000000000000000000000600052604160045260246000fd5b61272e82612449565b810181811067ffffffffffffffff8211171561274d5761274c6126f6565b5b80604052505050565b600061276061232b565b905061276c8282612725565b919050565b600067ffffffffffffffff82111561278c5761278b6126f6565b5b61279582612449565b9050602081019050919050565b82818337600083830152505050565b60006127c46127bf84612771565b612756565b9050828152602081018484840111156127e0576127df6126f1565b5b6127eb8482856127a2565b509392505050565b600082601f830112612808576128076126ec565b5b81356128188482602086016127b1565b91505092915050565b6000806000806080858703121561283b5761283a612335565b5b600061284987828801612581565b945050602061285a87828801612581565b935050604061286b878288016124cc565b925050606085013567ffffffffffffffff81111561288c5761288b61233a565b5b612898878288016127f3565b91505092959194509250565b600080604083850312156128bb576128ba612335565b5b60006128c985828601612581565b92505060206128da85828601612581565b9150509250929050565b600080604083850312156128fb576128fa612335565b5b6000612909858286016124cc565b925050602061291a858286016124cc565b9150509250929050565b7f4e487b7100000000000000000000000000000000000000000000000000000000600052601160045260246000fd5b600061295e8261226d565b91506129698361226d565b92508282101561297c5761297b612924565b5b828203905092915050565b60006129928261226d565b915061299d8361226d565b9250827fffffffffffffffffffffffffffffffffffffffffffffffffffffffffffffffff038211156129d2576129d1612924565b5b828201905092915050565b7f4e487b7100000000000000000000000000000000000000000000000000000000600052603260045260246000fd5b7f4e487b7100000000000000000000000000000000000000000000000000000000600052602260045260246000fd5b60006002820490506001821680612a5357607f821691505b602082108103612a6657612a65612a0c565b5b50919050565b7f4552433732313a20617070726f76656420717565727920666f72206e6f6e657860008201527f697374656e7420746f6b656e0000000000000000000000000000000000000000602082015250565b6000612ac8602c83612405565b9150612ad382612a6c565b604082019050919050565b60006020820190508181036000830152612af781612abb565b9050919050565b7f4552433732313a20617070726f76616c20746f2063757272656e74206f776e6560008201527f7200000000000000000000000000000000000000000000000000000000000000602082015250565b6000612b5a602183612405565b9150612b6582612afe565b604082019050919050565b60006020820190508181036000830152612b8981612b4d565b9050919050565b7f4552433732313a20617070726f76652063616c6c6572206973206e6f74206f7760008201527f6e6572206e6f7220617070726f76656420666f7220616c6c0000000000000000602082015250565b6000612bec603883612405565b9150612bf782612b90565b604082019050919050565b60006020820190508181036000830152612c1b81612bdf565b9050919050565b6000612c2d8261226d565b91507fffffffffffffffffffffffffffffffffffffffffffffffffffffffffffffffff8203612c5f57612c5e612924565b5b600182019050919050565b7f4552433732313a207472616e736665722063616c6c6572206973206e6f74206f60008201527f776e6572206e6f7220617070726f766564000000000000000000000000000000602082015250565b6000612cc6603183612405565b9150612cd182612c6a565b604082019050919050565b60006020820190508181036000830152612cf581612cb9565b9050919050565b7f4552433732313a206f776e657220717565727920666f72206e6f6e657869737460008201527f656e7420746f6b656e0000000000000000000000000000000000000000000000602082015250565b6000612d58602983612405565b9150612d6382612cfc565b604082019050919050565b60006020820190508181036000830152612d8781612d4b565b9050919050565b7f4552433732313a2062616c616e636520717565727920666f7220746865207a6560008201527f726f206164647265737300000000000000000000000000000000000000000000602082015250565b6000612dea602a83612405565b9150612df582612d8e565b604082019050919050565b60006020820190508181036000830152612e1981612ddd565b9050919050565b7f4552433732314d657461646174613a2055524920717565727920666f72206e6f60008201527f6e6578697374656e7420746f6b656e0000000000000000000000000000000000602082015250565b6000612e7c602f83612405565b9150612e8782612e20565b604082019050919050565b60006020820190508181036000830152612eab81612e6f565b9050919050565b600081905092915050565b6000612ec8826123fa565b612ed28185612eb2565b9350612ee2818560208601612416565b80840191505092915050565b6000612efa8285612ebd565b9150612f068284612ebd565b91508190509392505050565b7f796f75206d757374206f776e657220746f2073657420746f6b656e207072696360008201527f6500000000000000000000000000000000000000000000000000000000000000602082015250565b6000612f6e602183612405565b9150612f7982612f12565b604082019050919050565b60006020820190508181036000830152612f9d81612f61565b9050919050565b7f4e487b7100000000000000000000000000000000000000000000000000000000600052601260045260246000fd5b6000612fde8261226d565b9150612fe98361226d565b925082612ff957612ff8612fa4565b5b828206905092915050565b600061300f8261226d565b91506000820361302257613021612924565b5b600182039050919050565b7f4552433732313a206f70657261746f7220717565727920666f72206e6f6e657860008201527f697374656e7420746f6b656e0000000000000000000000000000000000000000602082015250565b6000613089602c83612405565b91506130948261302d565b604082019050919050565b600060208201905081810360008301526130b88161307c565b9050919050565b7f4552433732313a207472616e736665722066726f6d20696e636f72726563742060008201527f6f776e6572000000000000000000000000000000000000000000000000000000602082015250565b600061311b602583612405565b9150613126826130bf565b604082019050919050565b6000602082019050818103600083015261314a8161310e565b9050919050565b7f4552433732313a207472616e7366657220746f20746865207a65726f2061646460008201527f7265737300000000000000000000000000000000000000000000000000000000602082015250565b60006131ad602483612405565b91506131b882613151565b604082019050919050565b600060208201905081810360008301526131dc816131a0565b9050919050565b7f4552433732313a20617070726f766520746f2063616c6c657200000000000000600082015250565b6000613219601983612405565b9150613224826131e3565b602082019050919050565b600060208201905081810360008301526132488161320c565b9050919050565b7f4552433732313a207472616e7366657220746f206e6f6e20455243373231526560008201527f63656976657220696d706c656d656e7465720000000000000000000000000000602082015250565b60006132ab603283612405565b91506132b68261324f565b604082019050919050565b600060208201905081810360008301526132da8161329e565b9050919050565b60006132ec8261226d565b91506132f78361226d565b92508261330757613306612fa4565b5b828204905092915050565b600081519050919050565b600082825260208201905092915050565b600061333982613312565b613343818561331d565b9350613353818560208601612416565b61335c81612449565b840191505092915050565b600060808201905061337c6000830187612540565b6133896020830186612540565b6133966040830185612656565b81810360608301526133a8818461332e565b905095945050505050565b6000815190506133c28161236b565b92915050565b6000602082840312156133de576133dd612335565b5b60006133ec848285016133b3565b91505092915050565b7f4552433732313a206d696e7420746f20746865207a65726f2061646472657373600082015250565b600061342b602083612405565b9150613436826133f5565b602082019050919050565b6000602082019050818103600083015261345a8161341e565b9050919050565b7f4552433732313a20746f6b656e20616c7265616479206d696e74656400000000600082015250565b6000613497601c83612405565b91506134a282613461565b602082019050919050565b600060208201905081810360008301526134c68161348a565b905091905056fea2646970667358221220e6c31bc439354270cb1280355c881e7b1c9aa9569e2690dc85426457755d7e4e64736f6c634300080e0033",
  "immutableReferences": {},
  "source": "pragma solidity ^0.8.1;\n\nimport \"../node_modules/@openzeppelin/contracts/token/ERC721/ERC721.sol\";\nimport \"../node_modules/@openzeppelin/contracts/utils/Strings.sol\";\n\ncontract Token is ERC721 {\n    using Strings for uint256;\n\n    // string public domain = \"localhost:8080\";\n\n    mapping(uint256 => address) internal cardToOwner;\n    mapping(uint256 => uint256) internal cardToPrice;\n    mapping(address => uint256) internal ownerCardCount;\n    uint256 nextId = 1;\n    uint16 internal constant CARD_PER_COLLECTION = 5;\n\n    constructor() ERC721(\"The bai\", \"The\") {}\n\n    function getContractBalance() public view returns (uint256) {\n        return address(this).balance;\n    }\n\n    function getWalletBalance() public view returns (uint256) {\n        return address(msg.sender).balance;\n    }\n\n    function mint() public {\n        _safeMint(msg.sender, nextId);\n\n        cardToOwner[nextId] = msg.sender;\n        ownerCardCount[msg.sender] = ownerCardCount[msg.sender] + 1;\n        nextId++;\n    }\n\n    function getAllCardIds() public view returns (uint256[] memory) {\n        if (nextId <= 1) {\n            return new uint256[](0);\n        }\n\n        uint256[] memory ids = new uint256[](nextId - 1);\n        uint256 i = 0;\n        while (i < nextId - 1) {\n            ids[i] = i + 1;\n            i = i + 1;\n        }\n\n        return ids;\n    }\n\n    function getOwnCardIds(address _owner)\n        public\n        view\n        returns (uint256[] memory)\n    {\n        uint256 ownerCount = ownerCardCount[_owner];\n        if (ownerCount == 0) {\n            return new uint256[](0);\n        }\n\n        uint256[] memory ids = new uint256[](ownerCount);\n        uint256 i = 1;\n        uint256 count = 0;\n        while (count < ownerCount || i < nextId) {\n            if (cardToOwner[i] == _owner) {\n                ids[count] = i;\n                count++;\n            }\n            i++;\n        }\n\n        return ids;\n    }\n\n    function getOwnCollection(address _owner)\n        public\n        view\n        returns (uint256[] memory)\n    {\n        uint256 ownerCount = ownerCardCount[_owner];\n        if (ownerCount == 0) {\n            return new uint256[](0);\n        }\n\n        uint256[] memory myCards = getOwnCardIds(_owner);\n\n        if (ownerCount <= CARD_PER_COLLECTION) {\n            return myCards;\n        }\n\n        uint256 cardsLength = myCards.length;\n        while (cardsLength > CARD_PER_COLLECTION) {\n            uint256 removeIndex = block.timestamp % cardsLength;\n\n            for (uint256 i = removeIndex; i < cardsLength - 1; i++) {\n                myCards[i] = myCards[i + 1];\n            }\n            delete myCards[cardsLength - 1];\n            cardsLength--;\n        }\n\n        uint256[] memory ids = new uint256[](CARD_PER_COLLECTION);\n        for (uint256 i = 0; i < CARD_PER_COLLECTION; i++) {\n            ids[i] = myCards[i];\n        }\n\n        return ids;\n    }\n\n    function setPrice(uint256 _tokenId, uint256 price) public {\n        require(\n            msg.sender == cardToOwner[_tokenId],\n            \"you must owner to set token price\"\n        );\n\n        cardToPrice[_tokenId] = price;\n    }\n\n    function getTokenPrice(uint256 _tokenId) public view returns (uint256) {\n        return cardToPrice[_tokenId];\n    }\n\n    function buyCard() external payable {\n        uint256 _tokenId = 1;\n        uint256 price = cardToPrice[_tokenId];\n\n        // string memory s1 = string.concat(\n        //     \" payment must be exact \",\n        //     Strings.toString(msg.value)\n        // );\n        // string memory s2 = string.concat(Strings.toString(price), s1);\n        // require(msg.value == price, s2);\n\n        address owner = cardToOwner[_tokenId];\n\n        // require(\n        //     msg.sender != owner,\n        //     string.concat(\"you cannot buy your own token \", msg.sender)\n        // );\n\n        //do transfer\n        _transfer(owner, msg.sender, _tokenId);\n\n        cardToOwner[_tokenId] = msg.sender;\n        ownerCardCount[msg.sender] = ownerCardCount[msg.sender] + 1;\n        if (ownerCardCount[owner] > 0) {\n            ownerCardCount[owner] = ownerCardCount[owner] - 1;\n        }\n    }\n\n    function getContractEthBalance() public view returns (uint256) {\n        return address(this).balance;\n    }\n}\n",
  "sourcePath": "/Users/hieudao/Documents/fork/nft-game/smartcontract/contracts/Token.sol",
  "compiler": {
    "name": "solc",
    "version": "0.8.14+commit.80d49f37.Emscripten.clang"
  },
  "schemaVersion": "3.4.7",
  "updatedAt": "2022-06-30T05:58:11.137Z",
  "networkType": "ethereum",
  "devdoc": {
    "kind": "dev",
    "methods": {
      "approve(address,uint256)": {
        "details": "See {IERC721-approve}."
      },
      "balanceOf(address)": {
        "details": "See {IERC721-balanceOf}."
      },
      "getApproved(uint256)": {
        "details": "See {IERC721-getApproved}."
      },
      "isApprovedForAll(address,address)": {
        "details": "See {IERC721-isApprovedForAll}."
      },
      "name()": {
        "details": "See {IERC721Metadata-name}."
      },
      "ownerOf(uint256)": {
        "details": "See {IERC721-ownerOf}."
      },
      "safeTransferFrom(address,address,uint256)": {
        "details": "See {IERC721-safeTransferFrom}."
      },
      "safeTransferFrom(address,address,uint256,bytes)": {
        "details": "See {IERC721-safeTransferFrom}."
      },
      "setApprovalForAll(address,bool)": {
        "details": "See {IERC721-setApprovalForAll}."
      },
      "supportsInterface(bytes4)": {
        "details": "See {IERC165-supportsInterface}."
      },
      "symbol()": {
        "details": "See {IERC721Metadata-symbol}."
      },
      "tokenURI(uint256)": {
        "details": "See {IERC721Metadata-tokenURI}."
      },
      "transferFrom(address,address,uint256)": {
        "details": "See {IERC721-transferFrom}."
      }
    },
    "version": 1
  },
  "userdoc": {
    "kind": "user",
    "methods": {},
    "version": 1
  }
}